:020000040800F2
:10000000000003203D140008E1110008E51100087C
:10001000E9110008ED110008C114000800000000FB
:1000200000000000000000000000000019030008AC
:10003000F111000800000000F5110008F911000896
:10004000C1140008C1140008C1140008C11400083C
:10005000C1140008C1140008C1140008C11400082C
:10006000FD110008C114000805120008C1140008A1
:10007000C1140008C1140008C1140008C11400080C
:10008000C1140008C1140008C1140008C1140008FC
:10009000C1140008C1140008C1140008C1140008EC
:1000A000C1140008C1140008C1140008C1140008DC
:1000B000C1140008C1140008C1140008C1140008CC
:1000C000C1140008C1140008C1140008C1140008BC
:1000D000C1140008C1140008C1140008C1140008AC
:1000E000C1140008C1140008C1140008C11400089C
:1000F000C1140008C1140008C1140008C11400088C
:10010000C11400080D120008C1140008C114000831
:10011000C1140008C1140008C1140008C11400086B
:10012000C1140008C1140008C11400081912000805
:10013000C1140008C1140008C1140008C11400084B
:10014000C1140008C1140008C1140008C11400083B
:10015000C114000825120008C1140008C1140008C9
:10016000C1140008C1140008C1140008C11400081B
:10017000C1140008C1140008C114000800000000E8
:10018000C1140008C1140008C1140008C1140008FB
:10019000C1140008C1140008C1140008C1140008EB
:0C01A000C1140008C1140008C1140008BC
:1001B00010B5054C237833B9044B13B10448AFF3A1
:1001C00000800123237010BDB80100200000000052
:1001D0000C3E000808B5034B1BB103490348AFF3BD
:1001E000008008BD00000000BC0100200C3E00089B
:1001F00000F06DB8BDF1180D00B540F23C20C4F21E
:10020000412000788DF818009DF81800002840F073
:1002100008805FF4002001905FF48060049000F09B
:1002200021B85FF4002041F20001CDF2200101224B
:1002300002DF029041F20C00CDF220000068019034
:100240000198002840F008805FF4002001905FF4DE
:100250008060049000F006B841F21000CDF220005A
:100260000068049004984012059005984000019998
:10027000081841F20001CDF22001059A02DF029038
:1002800041F21000CDF220000068039003984FF275
:10029000FF11C2F6DF71401840120599401A029012
:1002A0000298002840F30E800598401C40000199F8
:1002B000081841F20001CDF22001049A8918029A2F
:1002C00002DF02905DF804EB1DF1180D704740F25B
:1002D0008C20C4F241200121017040F28C20C4F234
:1002E000432001210170FFF785FF41F20C00CDF2A0
:1002F00020000021CDF28001016041F21800CDF212
:1003000020000021C1F201010160442001DF41F21F
:100310000100CDF2200000471EF0040F0CBFEFF3E8
:100320000880EFF3098000F083BF000053B94AB999
:10033000002908BF00281CBF4FF0FF314FF0FF30ED
:1003400000F06AB9ADF1080C6DE904CE00F006F8D2
:10035000DDF804E0DDE9022304B070472DE9F04741
:10036000089D0C46002B4ED194468C458646B2FA29
:1003700082F262D94AB1C2F12003914020FA03F31C
:100380000CFA02FC194300FA02FE4FEA1C471FFA5E
:100390008CF6B1FBF7F44FEA1E4307FB141143EA56
:1003A000014304FB06F199420AD91CEB030304F153
:1003B000FF3080F01281994240F20F81023C634489
:1003C000591A1FFA8EF3B1FBF7F007FB101143EA3D
:1003D000014300FB06F69E420AD91CEB030300F121
:1003E000FF3180F0FC809E4240F2F9806344023885
:1003F0009B1B40EA044000211DB1D3400022C5E907
:100400000032BDE8F0878B4205D90DB1C5E9000186
:1004100000210846F5E7B3FA83F1002946D1A3424B
:1004200002D39042C0F0F080861A64EB03030120EF
:10043000002DE6D0C5E90063E3E7002A40F0908094
:10044000A1EB0C044FEA1C481FFA8CF70121B4FB06
:10045000F8F64FEA1E4308FB164443EA044307FB41
:1004600006F0984208D91CEB030306F1FF3402D2D0
:10047000984200F2CD8026461C1A1FFA8EF3B4FB78
:10048000F8F008FB104443EA044300FB07F79F42DF
:1004900008D91CEB030300F1FF3402D29F4200F2A3
:1004A000B0802046DB1B40EA0640A5E7C1F12006EC
:1004B0008B4022FA06F71F4320FA06FC04FA01F3E8
:1004C00043EA0C03F44000FA01F8380C4FEA1349F0
:1004D000B4FBF0FE1FFA87FC00FB1E4449EA04440B
:1004E0000EFB0CF9A14502FA01F20AD93C190EF1F2
:1004F000FF3A80F08480A14540F28180AEF1020E87
:100500003C44A4EB09041FFA83F9B4FBF0F300FBAD
:10051000134449EA044403FB0CFCA44507D93C19E5
:1005200003F1FF3067D2A44565D9023B3C4443EA5E
:100530000E40A0FB0293A4EB0C049C42CE469C46CA
:1005400051D34ED055B1B8EB0E0364EB0C0404FA52
:1005500006F6CB401E43CC40C5E90064002150E7BD
:10056000C2F1200320FA03F10CFA02FC24FA03F38F
:1005700094400C434FEA1C4800FA02FE1FFA8CF725
:10058000B3FBF8F008FB1031230C43EA014300FBF6
:1005900007F1994208D91CEB030300F1FF362CD276
:1005A00099422AD9023863445B1AA4B2B3FBF8F12A
:1005B00008FB113344EA034401FB07F3A34208D9C3
:1005C0001CEB040401F1FF3613D2A34211D9023906
:1005D0006444E41A41EA004139E70446F0E608467B
:1005E00006E7C845AED2B9EB020E63EB070C013843
:1005F000A8E73146EDE7034699E73046D4E7D6460B
:100600007FE7634402384DE70646234608460FE776
:10061000023E634430E700BF704700BF30B500239F
:1006200095B0CDE90A33CDE90C33CDE90333CDE9FB
:100630000533214901930793086C204A40F080500C
:100640000864096C01F080510191019902931368CB
:1006500043F440431360136801204FF4803103F4E6
:100660004043CDE9080102934FF480010224CDE913
:100670000E41029807210220CDE912010422A8238D
:1006800008A81092119301F01BFD08B172B6FEE7A5
:100690000F220346CDE903244FF4A0554FF48052B6
:1006A00003A80521CDE90535079201F01FFF08B128
:1006B00072B6FEE715B030BD003802400070004051
:1006C0002DE9F04FBB4DBC4F6B6A4FF0E02243F475
:1006D000C0236B62936843F0010399B0936000F00C
:1006E00015FFFFF79BFFD5F8FC30B44823F080736B
:1006F000C5F8FC30D5F8FC3043F08073C5F8FC3009
:100700003B68AF4D002423F001033B607C603B68F5
:1007100043F001033B60CDE90B44CDE90D44039464
:100720000F942B6B43F010032B632B6B03F0100320
:100730000393039B04942B6B43F004032B632B6BF9
:1007400003F004030493049B05942B6B43F02003F4
:100750002B632B6B03F020030593059B06942B6BF7
:1007600043F080032B632B6B03F080030693069BFF
:1007700007942B6B43F001032B632B6B03F00103F6
:100780000793079B08942B6B43F002032B632B6B9F
:1007900003F002030893089B09942B6B43F040037A
:1007A0002B632B6B03F040030993099B0A942B6B7B
:1007B00043F008032B632B6B03F0080322460A93D4
:1007C0004FF400710A9B01F09FFA7E480122062136
:1007D00001F09AFA22467B48082101F095FA224658
:1007E0007948A02101F090FA224678484FF4405110
:1007F00001F08AFA2246764846F2082101F084FA8E
:1008000001227448802101F07FFA4FF40418142368
:1008100071480D940BA9CDE90B384FF0280A01F06F
:1008200035F96D48CDF82CA00BA90126CDE90C4473
:100830004FF0400901F02AF967480C940BA90D9676
:10084000CDF82C9001F022F94FF420435D480B9332
:100850000BA9CDE90C4601F019F94FF48043594832
:100860000B930BA9CDE90C8601F010F94FF4E0735E
:1008700052480B930BA9CDE90C4601F007F94FF450
:1008800000734E480E940BA9CDE90C640B9301F054
:10089000FDF80E234B480E940BA9CDE90C640B9385
:1008A00001F0F4F84FF4901347480D940BA90C9302
:1008B0000B9601F0EBF8A02343480B930BA94FF0E4
:1008C0000408CDE90C640E9401F0E0F84148CDF83D
:1008D0002C800BA9CDE90C4401F0D8F84FF440531B
:1008E0003A480B930BA9CDE90C640E9401F0CEF8B5
:1008F00037480D960BA9CDE90B8401F0C7F846F2F5
:10090000082333480E940BA9CDE90C640B9301F036
:10091000BDF830232D480B930BA9CDE90C464FF0C1
:10092000800B01F0B3F82948CDF82CB00BA9CDE924
:100930000C4401F0ABF827480BA9CDE90D44CDE9F3
:100940000BB601F0A3F822462146082000F02EFE47
:10095000082000F067FE224621460A2000F026FE0D
:100960000A2000F05FFE22462146504600F01EFE9F
:10097000504600F057FE02942B6B43F480032B6328
:100980002B6B164D03F480032246314602933B2025
:10099000029B00F00BFE3B2000F044FE2246314655
:1009A000452000F003FE452000F03CFE03230F939A
:1009B000022315E000ED00E0001000E0001402400A
:1009C000003802400008024000000240000C0240D3
:1009D000001802400004024000100240E80100201C
:1009E000CDE910330B9307230C930E93AE4B2B6082
:1009F00010232B614FF4C073C5E90164EC61AB6156
:100A00004FF400644FF48053C5E908430BA94FF439
:100A100000532846C5F81490C5F80C80CDF83480F2
:100A2000AB6202F051FD08B172B6FEE79F4C03467F
:100A30004FF6FF7228460193E36021460823636066
:100A40002660A66002F062FD7D6801F0EDFD772270
:100A5000974BB0FBF3F303FB02F27B685B1B934203
:100A6000FBD30025022308269049924801274FF620
:100A7000FF72C4E90036C4E902754FF0030802F0C2
:100A800045FD4FF0040989498A48E5604FF6FF7239
:100A9000C4F80080C4F80890666002F037FD4FF497
:100AA0000C730193019B81498248E3604FF6FF720A
:100AB000C4E90096A760804C02F028FD40F20C517A
:100AC0007C4802F041FD294634220BA803F072F95C
:100AD000C4E90355A58684F83650784DC4F81880CB
:100AE0004FF00043C4E900534FF08043A3608F23CD
:100AF00063614FF4B2781B23C4E9078340F2BA69FB
:100B000040F21B33C4E909934FF4E06A40F21E330C
:100B10002046C4E90BA301F095F908B172B6FEE7CF
:100B200040F256530C9315934FF440730E93169363
:100B30000521FF23CDE90F130B900D901190ADF817
:100B40005C008DF85E00024607234FF4C060CDE9DB
:100B500012030BA94FF050432046149301F0E2F921
:100B6000054608B172B6FEE702464FF4B061204672
:100B700001F066FA52492B464FF48072204601F08C
:100B800007FA014608B172B6FEE7204601F03AFACC
:100B9000034608B172B6FEE722684A48D2F88410CC
:100BA00041F00101C2F88410C0E90233C0E9063304
:100BB0000361536B43F008035363434A4FF4E1333B
:100BC000C0E900230C23436102F03CFD054608B157
:100BD00072B6FEE73D48202101F090F80128024658
:100BE0005AD03A48102101F089F8012802464DD028
:100BF0003748384C3A464FF4007101F085F83648D2
:100C00003A46314601F080F8344BA5612046C4E9EC
:100C10000035C4E90255C4E9045502F001FA08B1EF
:100C200072B6FEE74FF40061204602F019FA08B1EF
:100C300072B6FEE7264800224FF4007101F064F816
:100C400008212548002201F05FF800F013FD244A36
:100C5000244B0124CDE90C230BA8234B0E93ADF8B4
:100C60002C4000F025FD214A0C9215230BA88DF88D
:100C700034308DF82D4000F01BFD042000F008FDFD
:100C8000FFF7B6FA002019B0BDE8F08F12483146E0
:100C900001F03AF872B6FEE70D484FF4007101F02A
:100CA00033F872B6FEE700BF400100A0D801002073
:100CB00040420F00E8010020A4030020006801402A
:100CC000243E00081C02002000100140000C0240DD
:100CD000001402402003002000080240002C0140C4
:100CE000001020D01500000300010100000040D0DA
:100CF000014B01221A707047D401002072B6FEE742
:100D000010B582B000241B4B00945A6C42F4804210
:100D10005A645A6C02F480420092009A01941A6C50
:100D200042F080521A641B6C03F0805301932246F8
:100D300001216FF00A00019B00F038FC22460121DE
:100D40006FF0090000F032FC22460F216FF0040022
:100D500000F02CFC224601216FF0030000F026FC7D
:100D600022460F216FF0010002B0BDE8104000F0F4
:100D70001DBC00BF00380240F0B504469BB0002106
:100D800030220EA8CDE90811CDE90A110C9103F02B
:100D900011F8604B22689A4201D01BB0F0BD0821C7
:100DA000A02202230EA80E911292149301F062FC6D
:100DB000002840F0AC80584B584800220192596CF2
:100DC00041F080615964596C01F080610191019991
:100DD0000292196B41F020011963196B01F0200197
:100DE000029102990392196B41F001011963196B89
:100DF00001F00101039103990492196B41F0020182
:100E00001963196B01F00201049104990592196BA1
:100E100041F040011963196B01F0400105910599FA
:100E20000692196B41F004011963196B01F004017A
:100E30000691069907921A6B42F008021A631B6B1F
:100E400003F008030793002403250E26079B0C9646
:100E500008A941F648020223CDE90823CDE90A4555
:100E600000F014FE10220223CDE9082308A9002275
:100E700000232A480C96CDE90A23092700F006FE34
:100E800008A90322022326480C97CDE90823CDE9BF
:100E90000A4500F0FBFD08A94FF4706202232048C8
:100EA0000C96CDE90823CDE90A4500F0EFFD08A92D
:100EB0004FF4046202231B480C96CDE90823CDE9C8
:100EC0000A4500F0E3FD08A9C022022316480C964B
:100ED000CDE90823CDE90A4500F0D8FD08A908228C
:100EE000022312480C96CDE90823CDE90A4500F00B
:100EF000CDFD4FF4A05202230A480C9708A9CDE972
:100F00000A45CDE9082300F0C1FD1BB0F0BDFFF795
:100F1000F5FE50E700680140003802400000024042
:100F2000000402400018024000080240000C024089
:100F30002DE9F041514B02688AB000249A42CDE974
:100F40000444CDE90644089402D00AB0BDE8F0811B
:100F500003F5863301945A6C494E42F400625A6498
:100F60005A6C02F400620192019A02941A6B42F0E8
:100F700004021A631A6B02F004020292029A0394AA
:100F80001A6B42F008021A631B6B03F008034FF45C
:100F9000F852039303274FF00C08022304A90546D7
:100FA0003848CDE90423CDE90778039B00F06EFDB6
:100FB00002233548CDF8208004A94FF00408CDE97C
:100FC0000483CDE9064700F061FD4FF400024FF4C1
:100FD0000013C6E90B232D4AC6F824804FF00063A6
:100FE000C6E900234FF480624FF48053C6E904231E
:100FF00030464FF480422023C6E90244C6E9062366
:101000003462B76200F086FB90BB214C21492E640C
:101010004FF000620023C4E9001240214FF48062C7
:10102000C4E9021322614FF480514FF48042C4E9B5
:1010300005122022C4E9072304210323C4E909136C
:101040004FF400024FF400132046C4E90B23B563AC
:1010500000F060FB78B9002211463120EC63A563F3
:1010600000F0A4FA312000F0DDFA0AB0BDE8F0810A
:10107000FFF744FEC9E7FFF741FEECE7002C014013
:10108000C002002000080240000C024058640240E8
:1010900060020020A064024000B51B4A016889B0CC
:1010A00000239142CDE90233CDE90433069302D007
:1010B00009B05DF804FB02F594320093506C40F0E7
:1010C00010005064506C00F01000009000980193E4
:1010D000136B0E4843F001031363136B9FED087B02
:1010E00003F00103019302A907238DED027B019A0E
:1010F000069300F0CBFC09B05DF804FBAFF3008071
:101100000006000002000000001001400000024044
:10111000F0B52B4B89B01C6800220492002C4CD1F6
:101120000127284A01941F60936B27483B43936330
:10113000936B3B4003260C254FF63F02019302A917
:101140000223CDE90223CDE90565019B00F09EFC59
:101150001E48029702A90227CDE90374CDE905656F
:1011600000F094FC48F233131948029302A9CDE928
:101170000374CDE9056500F089FC4FF683731548CB
:10118000029302A9CDE90374CDE9056500F07EFC68
:101190004CF203731048029302A9CDE90374CDE920
:1011A000056500F073FC60230C48039702A9CDE9A4
:1011B00004460695029300F069FC09B0F0BD00BF3B
:1011C0004C04002000380240001402400008024095
:1011D0000018024000100240000C024000040240CF
:1011E000FEE700BFFEE700BFFEE700BFFEE700BF6F
:1011F000704700BF704700BF00F0A2B9042000F0A4
:1012000089BD00BF102000F085BD00BF014802F07D
:1012100031B800BF20030020014800F05FBB00BFD1
:10122000C0020020014800F059BB00BF600200204E
:101230002DE9F047836913F8023C022B044658D08D
:10124000032B40F08F804FF400716E48012200F0B4
:101250005BFD616801F16043B3F5403FA36810D3C3
:10126000402B6ED85A020BD0674A0020891A535877
:1012700042F8043BA36801305D02B0EB950FF6D352
:101280006149624D624800222A70226801F024FC04
:10129000002844D16FF0170203235D4EDFF87C81F4
:1012A0005C4F22706370A070E070304601F076FFF2
:1012B0000428236800F09D80013B2360D8F8049047
:1012C00001F0B2F9A7FB00239B0C40F2E73203FBCD
:1012D00002F2D8F80430A3EB09039342F9D3236850
:1012E000002BE2D10023012222706370A370E3700F
:1012F00016E0444801224FF4007100F005FD6668D5
:1013000006F16043B3F5403FA3682DD23F4D4048FE
:1013100000222A703146226801F044FB40B320606D
:1013200001223D48082100F0EFFC394B012283F8EF
:101330003420BDE8F047334800224FF4007100F03C
:10134000E3BC35480122082100F0DEFC00222D48D4
:101350004FF4007100F0D8FC00230122227063706A
:10136000A370E370BDE8F087402BEAD8264ECDE7A6
:101370002C232370264FDFF8A490DFF89880A0700C
:1013800001236370E070384601F008FF04282368E9
:1013900016D0013B2360D9F804A001F045F9A8FB61
:1013A00000239B0C40F2E73203FB02F2D9F8043031
:1013B000A3EB0A039342F9D32368002BE3D191E70F
:1013C000002B8FD02A782260002AA9D16568AE420E
:1013D000AFD0A3685B02ACD00B496D1A4B1951F822
:1013E000040B1860A36801325B02B2EB930FF5D3D4
:1013F0009FE7002B3FF476AF2B782360002B98D02B
:101400008EE700BF0014024050040020D4010020E9
:101410002003002083DE1B4300080240001000E090
:10142000054BD3F888204FF0005142F47002C3F806
:1014300088209960704700BF00ED00E0DFF858D0C9
:1014400016481749174A002300F021F81648174993
:10145000174A002300F01BF8164A174C002301E03E
:1014600013600432A242FBD3FFF7DAFF02F0AAFCBA
:10147000124880F309884FF0020080F31488BFF30C
:101480006F8FFFF71DF97047D458C4500433C41848
:101490008C42F9D3704700000000032000000020B8
:1014A000AC01002000000008AC010020B8010020C1
:1014B00054420008B80100205484002000000110AC
:1014C000FEE7000038B50E4A0E4B12781B68054641
:1014D0004FF47A70B0FBF2F0B3FBF0F000F0B0F82C
:1014E00008B90F2D01D9012038BD0446024629460E
:1014F0004FF0FF3000F05AF8034B20461D6038BD16
:10150000B0010020AC010020B401002008B50B4B55
:101510001A6842F400721A601A6842F480621A6013
:101520001A6842F480721A60032000F02DF80A2035
:10153000FFF7C8FFFFF7E4FB002008BD003C0240B6
:10154000034A044B11681B780B441360704700BFBB
:1015500050840020B0010020014B1868704700BF84
:101560005084002038B50446FFF7F6FF631C05469B
:1015700002D0044B1B781C44FFF7EEFF401BA04237
:10158000FAD338BDB00100200749CA6803024FF6FC
:10159000FF0003F4E0630240134343F0BF6343F4EE
:1015A0000033CB60704700BF00ED00E01B4BDB68F1
:1015B000C3F3022300B5C3F1070EBEF1040F03F11C
:1015C000040C28BF4FF0040EBCF1060F1CD9A3F188
:1015D000030C4FF0FF3303FA0CF322EA03024FF03F
:1015E000FF3303FA0EF321EA030303FA0CF3134368
:1015F0001B010028DBB20ADB00F1604000F561400E
:1016000080F800335DF804FB00229446E7E7044AC3
:1016100000F00F00024413765DF804FB00ED00E0DB
:10162000FCEC00E0002807DB4109044A00F01F0041
:101630000123834042F82130704700BF00E100E001
:101640000138B0F1807F01D30120704710B44FF012
:10165000E023074C58614FF0F00C84F823C00022BF
:10166000072110469A615DF8044B1961704700BF6D
:1016700000ED00E0BFF35F8F044B5A6A002122F4B3
:1016800080325A62C3F89410704700BF00ED00E04A
:10169000064B40F00100C3F894005A6A42F48032CD
:1016A0005A62BFF34F8FBFF36F8F704700ED00E0BA
:1016B00017494378C1F89830027822B3436800B5DF
:1016C000C1F89C30C37A90F80CC090F80FE01B066C
:1016D00043EA0C7390F80AC0134343EACC4390F8F2
:1016E0000DC0827B43EA8C4343EA424390F809C031
:1016F000027A43EA0E4343EA0C2343EA4203C1F869
:10170000A0305DF804FBC1F89C20C1F8A020704710
:1017100000ED00E038B50446FFF71EFF002C75D041
:1017200023680022022184F8351084F834201A68D6
:1017300022F0010205461A6005E0FFF70DFF431B8A
:10174000052B39D823681A68D107F6D4D4E90120CB
:10175000E16802430A43D4E90451A0692A430A43D9
:10176000E1691D6802430A4332492940256A2A4338
:101770000A43616A042926D01A605A6922F00702D6
:101780001143D8B22C4A59611038A2FB00521209F9
:101790002A4923F47F73895CE16523F003035F2802
:1017A00088BF04333F228A40A36500209A6001234A
:1017B000606584F8353038BD03232022626584F8E3
:1017C0003530184638BDD4E90B512943114319600F
:1017D0005969A26A21F00701114341F00401002D6B
:1017E000CFD028B9012A21D032F00202C9D106E0B7
:1017F000B0F5005F0CD0022A03D9032AC1D1EA0157
:10180000BFD540220123626584F83530012038BD00
:10181000032AB6D801A050F822F000BF0318000830
:10182000FF170008031800082D180008B5F1C07F45
:10183000A7D1E6E73F8010F0ABAAAAAA3C42000875
:1018400070B490F83440856D012C0AD090F8354082
:101850004FF0010C644580F834C005D0002380F8B7
:101860003430022070BC7047022680F8356004686E
:1018700000264665266826F4802626606360836815
:10188000402B0EBFA260A160E260C26D08BFE160A4
:101890003F239340AB602368026C43F01603236040
:1018A0001AB1236843F008032360236843F001035F
:1018B0000020236070BC704790F83530022B03D0B5
:1018C00080234365012070470268052380F8353086
:1018D000136823F00103002013607047F0B583B054
:1018E000674A876D166800230193C36D3D6808221F
:1018F0009A402A42044603D001680868400778D419
:1019000001229A402A4203D02168496908066AD414
:1019100004229A402A4203D02168096889075CD4CE
:1019200010229A402A4203D021680868000741D457
:1019300020229A402A4214D021680868C00610D597
:10194000BA6094F83520052A63D00B6813F4802F11
:101950000B687ED0190340F18980E36B0BB1204600
:101960009847636D23B3636DDA071AD5226845493A
:10197000052384F835301368A1FB061623F0010314
:10198000B60A136002E01368DB0704D5019B01333C
:10199000B3420193F7D90122002384F8352084F85B
:1019A0003430E36C23B1204603B0BDE8F040184763
:1019B00003B0F0BDBA600A6812F4802F0A6822D121
:1019C000D20503D40A6822F008020A60226C002AB9
:1019D000AED020469047E36DAAE7BA60626D42F050
:1019E000040262659CE7BA60626D42F002026265C1
:1019F0008EE7086820F004000860BA60626D42F06B
:101A0000010262657CE71103E0D5A26C002AE0D1F7
:101A10008EE70A6822F016020A604A6922F0800204
:101A20004A61226C3AB30A6822F008020A603F2237
:101A300002FA03F3216DBB600122002384F83520F4
:101A400084F834300029B3D0204603B0BDE8F0401C
:101A5000084713F4807380D10A6822F010020A60EC
:101A6000012284F8352084F8343076E7636C002B4B
:101A70007FF475AF75E7A26C002AD4D1D7E700BF19
:101A8000AC010020B5814E1B406D70472DE9F04F31
:101A900000230C68DFF844A285B04FF0010B8946A3
:101AA00003E00133102B00F09C800BFA03F202EAF2
:101AB0000408A243F5D1D9F8041001F003024FEA5B
:101AC000430C0325571E05FA0CF5012F6FEA050597
:101AD00040F28A80032A40F0C080076802FA0CF2C4
:101AE0003D402A4311F4403F0260DAD000220392C5
:101AF000DAF8442042F48042CAF84420DAF844205C
:101B000002F480420392039A23F0030202F180421E
:101B100003F003070F2602F59C32BF0006FA07FC0C
:101B20006B4E9568B04225EA0C0531D006F580660B
:101B3000B04200F09D80674EB04200F09F80DFF819
:101B4000A0C1604500F0A080DFF898C1604500F0BA
:101B5000A180DFF894C1604500F0A880DFF88CC157
:101B6000604500F0A980DFF888C1604500F09880EA
:101B7000DFF880C1604500F0A580DFF87CC16045DA
:101B80000CBF4FF0090C4FF00A0C0CFA07F73D435D
:101B90009560514A9268CE026FEA08054E4E54BFD6
:101BA0002A4048EA0202B260F2684B4E8F0254BFEC
:101BB0002A4048EA0202F26072688E03464E54BF21
:101BC0002A4048EA020272603268C90303F1010345
:101BD000414954BF2A4048EA0202102B0A607FF4B0
:101BE00064AF05B0BDE8F08F876807EA050ED9F845
:101BF0000C7007FA0CF747EA0E078760476827EA78
:101C0000080EC1F300179F4047EA0E074760C768F8
:101C100007EA050ED9F8087007FA0CF747EA0E072D
:101C2000022AC7607FF459AFDF0800EB87070197EE
:101C30003E6AD9F81070009603F0070E4FEA8E0E38
:101C40000F2607FA0EF706FA0EFE009E26EA0E0E83
:101C5000019E47EA0E0737623FE7C76807EA050EAD
:101C6000D9F8087007FA0CF747EA0E07C76034E79F
:101C70004FF0010C0CFA07F73D4389E74FF0020CD7
:101C80000CFA07F73D4383E74FF0030C0CFA07F714
:101C90003D437DE74FF0040C0CFA07F73D4377E72F
:101CA0004FF0070C0CFA07F73D4371E74FF0050CB6
:101CB0000CFA07F73D436BE74FF0060C0CFA07F7F9
:101CC0003D4365E74FF0080C0CFA07F73D435FE72B
:101CD0000000024000080240003C01400038024081
:101CE000000C0240001002400014024000180240A4
:101CF000001C0240002002400024024003691942F7
:101D000014BF01200020704702B9090481617047A7
:101D1000704700BF044A5169014200D1704708B5BD
:101D20005061FFF7F5FF08BD003C01402DE9F04789
:101D30000468D1F804A0E3680F68D1F81890D201C4
:101D400002F18400C3F30B4303EB0A06231807F1E7
:101D5000010C5D6805F470455D60E568C5F30B45F1
:101D6000654445EA06455D60E6689D68D1F80CC0AB
:101D700005F470459D60E568C6F30A066644C5F340
:101D80000A0C8D680135654445EA06459D601D696C
:101D90000E6925F007051D614FF0000C1E619D695D
:101DA00091F8318091F832E0C3F818C091F83050C2
:101DB00045EA096545EA082545EA0E459D615D69E4
:101DC00025F0FF055D614D695D61DD6925F4E06524
:101DD00025F00705DD61D1E907521543DD619D6AF4
:101DE0004D6AC3F828C09D624EB1012E25D0B51EA4
:101DF000022D24D9072E14BF0125022500E0042559
:101E00008E6AAAEB070205FB02F2033206FB05F518
:101E100042EA0542CD6AD96A01F0E021D962DA626C
:101E20001A6B22F4FF6222F007021A631D63235823
:101E300043F001032350BDE8F0870325E0E70225C6
:101E4000DEE700BF002869D038B590F8A13004461D
:101E500003F0FF02002B5CD00222236884F8A1204B
:101E6000D4E9012099690243D4E9035021F070417B
:101E7000996199692A4302430A439A619A682849F9
:101E800060690A409A609A6842EA0042A069024387
:101E90009A60DA68E0690A40DA60DA6842EA004289
:101EA000206A0243DA601A69606A0A401A611A6994
:101EB00042EA0042A06A02431A615A69E06A0A4093
:101EC0005A615A69216B42EA00420A435A61DA6A4E
:101ED00094F8350094F8361002F07F42DA62DD6A39
:101EE00094F834202A4342EA002242EA0142DA62AC
:101EF0005A6B42F006025A639A694FF0010C0021B6
:101F000042EA0C029A61C4F8A41084F8A1C0084601
:101F100038BD80F8A020FEF72FFF9DE70120704715
:101F200000F800F0F8B590F8A030012B2DD0012773
:101F3000022380F8A07080F8A1304FF0340C8E4658
:101F400004460D4616460CFB020CBEE80F000CF1D1
:101F5000380CACE80F00BEE80F00ACE80F00BEE89C
:101F60000F00ACE80F00DEF80030CCF8003032464D
:101F700020462946FFF7DAFE22680023576284F8DC
:101F8000A17084F8A0301846F8BD0220F8BD00BF4B
:101F900070B5054690F8A00001284FF002002FD040
:101FA00085F8A10032B3342000FB0350DB01866CBE
:101FB00028688433A1F1040E002118448C4609E0FE
:101FC00023F07F430CF1010C0B436245036401F1E4
:101FD00080710FD0062E5EF8043FF1D101EB0114A1
:101FE00023F07F430CF1010C23436245036401F1AC
:101FF0008071EFD10020012385F8A13085F8A00081
:1020000070BD00BF90F8A020012A16D00346C90178
:1020100002688431022010B483F8A100505840F0C7
:102020001000505001240021546283F8A14083F82D
:10203000A01008465DF8044B70470220704700BFAF
:10204000034690F8A000012835D0342010B400FBDE
:102050000230022483F8A140806C00BBA1401868C4
:10206000164CD20184320244D06A20F0FF5020F492
:10207000F810D062606A40F001006062D06A40EA05
:102080000141D162626A002042F0010201216262D4
:1020900083F8A11083F8A0005DF8044B7047012875
:1020A00006D0841E022C01D90728D8D14900D6E7D2
:1020B00001EB4101D3E70220704700BF00680140F7
:1020C000002800F0D8812DE9F0410368DD0782B0D7
:1020D00004462FD59D498A6802F00C02042A00F0BC
:1020E000EC808A6802F00C02082A00F0E280636843
:1020F000B3F5803F00F0EB80B3F5A02F00F07381C3
:10210000924D2A6822F480322A602A6822F48022C2
:102110002A60002B40F0E080FFF71EFA064605E03B
:10212000FFF71AFA801B642800F200812B689F03D6
:10213000F6D423689D0728D5844A916811F00C0FC6
:1021400000F09B80916801F00C01082900F091805B
:10215000E368002B00F00C817D4B7C4E01221A605D
:10216000FFF7FAF9054605E0FFF7F6F9401B0228EC
:1021700000F2DC8033689F07F6D53368226923F0CC
:10218000F80343EAC203336023681A075CD45D078F
:102190003AD56E4A136C13F0805340F08880019357
:1021A000136C43F080531364136C03F0805301935A
:1021B000019B0125674E3368D80540F1A780A368CD
:1021C000012B00F0B780052B00F01D815F4E326FB0
:1021D00022F001023267326F22F004023267002BD4
:1021E00040F0AD80FFF7B8F941F28838074605E0C6
:1021F000FFF7B2F9C01B404500F29880336F9B0790
:10220000F6D4002D40F0F980A369CBB14F4DAA68F8
:1022100002F00C02082A00F0BC80022B4C4B4FF05D
:1022200000021A6600F0F980FFF796F9044604E010
:10223000FFF792F9001B022878D82B689B01F7D48E
:10224000002002B0BDE8F0816369FBB1404B3F4E16
:102250000122C3F8802EFFF77FF9054604E0FFF75F
:102260007BF9401B022861D8736F9B07F7D5236861
:102270008DE7526851023FF56BAF344A12689207FE
:1022800038D5E268012A35D00120DAE7304A2F4EEE
:10229000C2F8803EFFF760F9054604E0FFF75CF9FD
:1022A000401B022842D8736F9F07F7D4DFE7002551
:1022B00080E74A6851027FF51AAF244A12689203F8
:1022C0007FF538AF6268002A7FF434AFDCE71F4A3D
:1022D000136843F480331360FFF73EF91B4E054645
:1022E00004E0FFF739F9401B64281FD833689B03CB
:1022F000F7D51EE7154920690A6822F0F80242EA7C
:10230000C0020A601A077FF542AF9DE7336843F4C5
:1023100080733360FFF720F907463368D9053FF52E
:102320004EAFFFF719F9C01B0228F6D9032002B0FF
:10233000BDE8F081054A136F43F001031367FFF70F
:102340000BF9024F064641F288380AE00038024095
:102350000000474200700040FFF7FEF8801B404538
:10236000E4D83B6F9A07F7D5002D3FF44DAF44E01A
:10237000424A434E1360FFF7EFF8054604E0FFF7CB
:10238000EBF8401B0228D1D833689907F7D42368AB
:10239000FBE6012B3FF478AF6B68E26903F4800140
:1023A00091427FF471AF226A03F03F0191427FF4C2
:1023B0006BAF616A47F6C0721A40B2EB811F7FF4BF
:1023C00063AFA26A520803F44031013AB1EB024F05
:1023D0007FF45AAFE26A03F07063B3EB026F14BF8D
:1023E000012000202DE7264B1A6842F480221A6053
:1023F0001A6842F480321A606EE7214A136C23F0A7
:102400008053136400E71E4B1A6F42F004021A67F0
:102410001A6F42F001021A6791E7FFF79DF806462E
:1024200005E0FFF799F8801B02283FF67FAF2B6885
:102430009901F6D4D4E90731626A0B4343EA821367
:10244000D4E90A21520843EA0163013A0B4943EAFD
:10245000024301226B600A66FFF77EF8084D0446CE
:1024600005E0FFF779F8001B02283FF65FAF2B6805
:102470009A01F6D5E4E60120704700BF000047420C
:1024800000380240164908B58B6803F00C03042B92
:102490001BD0082B17D14A684B68496813F4800396
:1024A00002F03F0213D10F48C1F38811A1FB0001D4
:1024B000FDF73CFF0A4B5B68C3F3014301335B004C
:1024C000B0FBF3F008BD074808BD074808BD064843
:1024D000C1F388110023A1FB0001FDF727FFE9E705
:1024E000003802400024F40000127A00002800F0B6
:1024F0008780484A136803F00F038B422DE9F041AF
:102500000D46044609D2CBB21370136803F00F03D3
:102510008B4202D00120BDE8F0812368980714D5D2
:10252000590704D53C498A6842F4E0528A601A0788
:1025300004D539498A6842F460428A603649A06805
:102540008A6822F0F00202438A60DF0721D56268C0
:10255000012A57D0931E012B2F4B1B684DD9990789
:10256000D8D52D4EB36823F003031343B360FEF7B1
:10257000F3FF41F28838074604E0FEF7EDFFC01B89
:10258000404544D8B368626803F00C03B3EB820F94
:10259000F3D1204A136803F00F03AB4206D9EBB224
:1025A0001370136803F00F03AB42B3D123685A07CB
:1025B00006D51949E0688A6822F4E05202438A602D
:1025C0001B0707D5144A2169936823F4604343EA43
:1025D000C1039360FFF756FF0F4A104C92681049F1
:1025E000C2F303120346A25C0E48D34000680B609E
:1025F000FEF768FF0020BDE8F0819801B1D489E7BB
:1026000001207047044B1B689E03AAD482E7032075
:1026100081E700BF003C0240003802402C42000825
:10262000AC010020B4010020014B1868704700BFC6
:10263000AC010020044B05499B68054A0868C3F3B8
:102640008223D35CD840704700380240AC010020A0
:1026500024420008044B05499B68054A0868C3F3F7
:102660004233D35CD840704700380240AC010020B0
:1026700024420008F0B5036813F0430F83B004460A
:102680000FD113F00C0F6DD19D0600F1BD80DB065C
:1026900004D5874B94F82C20C3F8E021002003B028
:1026A000F0BD844B844E00229A66FEF755FF054626
:1026B00004E0FEF751FF431B022B50D8336818018A
:1026C000F7D42368D90706D5D4E90112120742EAE4
:1026D0008112C6F884209A0715D57749E268D1F8A7
:1026E00084006568120600F0E04042EA8512024369
:1026F000C1F88420D1F88C00E26920F01F00013A73
:102700000243C1F88C205B0609D5201D0BC81B06AF
:10271000694A43EA801343EA0173C2F88430654B87
:10272000654E01229A66FEF717FF054604E0FEF7A4
:1027300013FF401B022812D833681F01F7D5236806
:102740009FE7FEF709FF41F2883706462B6F9A078D
:1027500000F19080FEF700FF801BB842F6D90320FD
:1027600003B0F0BD534B544E00221A67FEF7F4FE3F
:10277000054604E0FEF7F0FE431B022BEFD833685A
:102780009800F7D42268510715D56369D6F88810E8
:1027900020691B0601F0E04143EA80130B43C6F8B1
:1027A0008830D6F88C30216A23F4F853013943EA93
:1027B0000123C6F88C30130714D53F4AA369D2F819
:1027C000881020691B0701F0706143EA80130B43F6
:1027D000C2F88830D2F88C30616A23F440330B435E
:1027E000C2F88C30334B344E01221A67FEF7B4FE28
:1027F000054604E0FEF7B0FE401B0228AFD8336860
:102800009F00F7D523683FE72B4B2C4D0022019208
:102810001A6C42F080521A641B6C03F080530193CF
:10282000019B2B6843F480732B60FEF795FE0646F0
:1028300004E0FEF791FE831B022B90D82B68D8058D
:10284000F7D51D4DA36A2A6F12F4407203F440714C
:1028500013D08A4211D02B6F164A0121C2F8401EB4
:1028600023F440730021C2F8401E2B672B6FD90759
:102870003FF567AFA36A03F44071B1F5407F0CD018
:102880000D498A6822F4F8128A600B4A116FC3F36B
:102890000B030B4313672368F9E60748826823F0AC
:1028A000704121F4407122F4F8120A438260ECE78F
:1028B00000104742000047420038024000700040CC
:1028C000836B1A68D36B43F48073D363704700BF84
:1028D000F0B589B005460F46FEF73EFE00230821FD
:1028E00006462868CDE9003301F0C2F8044610B16D
:1028F000204609B0F0BD296D2868090401F026F9C9
:1029000004460028F4D14FF0FF3202920821302211
:10291000CDE9031201230222069002A9286805923C
:10292000079300F099FF286801F040F9044640B190
:10293000DEE7436B990415D5FEF70EFE831B0133CA
:1029400024D02868436B13F02A0F0BD1436B9B02F2
:10295000EFD500F06BFF08AB03EB8403013443F8C1
:10296000200CE9E7436B1A0716D4436B9B0716D478
:10297000446B14F020040CD1DDE9003240F23A51EE
:1029800012BA1BBA8163C7E90023B1E74FF00044D4
:10299000AEE720248463ABE708248463A8E702241D
:1029A0008463A5E72DE9F043044687B000297FD072
:1029B00090F8340001285FFA80F866D11E46E36D76
:1029C0001746324400259A42A56308D9A36B43F009
:1029D0000073A3630125284607B0BDE8F0830A46CB
:1029E0002168206CDFF8ECC0032384F83430CD621A
:1029F000CB6B43F44A7343F00203CB6305658560F8
:102A00000568314BC3632B68C0F84CC023F0C0038A
:102A10004FEA46292B6080314FEA9903FEF710FFF9
:102A20000546002836D1294B2068C3F88C85636C95
:102A3000CDF80490012B4FF090024FF00203CDE946
:102A400002234FF000014FF00103CDE904134FF0D2
:102A5000FF33694618BF7F02009300F0FDFE012E90
:102A60002BD9822320682363394601F01FF8002800
:102A7000B1D02368164A9A63A36B01210343002255
:102A8000A36384F834102263A4E70225284607B024
:102A9000BDE8F08323680E49DA6B22F49572DA639D
:102AA0009963A36B43F08043A36384F8348091E778
:102AB000836B43F0006383638CE781232068236387
:102AC000394600F0E3FFD2E7352C000800802542AC
:102AD000FF054000C53100082DE9F041044686B0ED
:102AE000002949D01D4690F83430012B2AD11646D2
:102AF000C36D0F46711900229942826327D800687E
:102B00004649032384F83430C262C36B43F406732E
:102B100043F00203C363E36B1A65626CD963012A55
:102B20003F49D96418BF7602012D2AD9216DA0230F
:102B30000904236301F00AF890B1C6B2304606B02A
:102B4000BDE8F0810226304606B0BDE8F081836B17
:102B500043F0007383630126304606B0BDE8F08180
:102B60002068294601F002F80028E6D120683146A5
:102B700000F0BAFF80460AE0836B43F00063836392
:102B8000E9E790233146236300F0A0FF80462268E6
:102B9000B8F1000F0BD0234B9363A36B012143EAE1
:102BA00008030022A36384F834102263D3E7E06BA8
:102BB000066840238360336823F0C00343F040037A
:102BC0006D02336080323946AB08FEF739FE0646A7
:102BD00090B122681349D36B23F4067323F00203E8
:102BE000D3639163A36B012243F08043A36384F812
:102BF0003420C4F83080AEE70B4A20680123C2F8C5
:102C00008C356946902205934FF0FF33CDE9038858
:102C100001950292009300F01FFE94E7C12800087E
:102C2000C5310008FF05400000802542704700BF05
:102C3000704700BF10B5846B236B2068822B0FD0C8
:102C4000C36A23F00803C36240F23A510122002311
:102C5000816384F8342020462363FFF7E9FF10BD29
:102C600000F052FF034608B92068E9E7A26B13435E
:102C70002046A363FEF73CF8F6E700BF704700BFAD
:102C8000426E10B40346940FC2F383600C70487018
:102C9000C2F30164C2F307408C70C870C2F307200E
:102CA000D2B208714A719A6E140DCC80C2F30344FB
:102CB0000C72C2F3C0344C72C2F380348C72C2F313
:102CC0004034CC720020C2F300340C734873586C4B
:102CD00000286FD1D86E40F6FC7404EA820242EA02
:102CE0009072C0F3C2640A610C75C0F34252C0F323
:102CF00002644C758A75C0F38244C0F3C232CC754D
:102D00000A760C690A7E02F007020232013494400E
:102D10005C6591F808C001220CF00F0C02FA0CF26D
:102D20009A65520A04FB02F2DA65C0F380324FF46E
:102D300000741C664A76C0F3C61200F07F008A76E3
:102D4000C8761B6FDC0FC3F341720C774A77C3F36D
:102D50008264C3F383528C770020CA77C3F3405454
:102D6000C3F3004281F8204081F82100C3F3C0344E
:102D700081F82220C3F3803281F8234081F8242097
:102D8000C3F34034C3F3003281F8254081F8262094
:102D9000C3F38124C3F3012281F82740C3F3460320
:102DA00081F82820012281F8293081F82A205DF855
:102DB000044B704701280FD1D86E120402F47C1224
:102DC00042EA10420A610A69013292024FF4007429
:102DD000C3E916425A65A8E71A68064991639A6BD7
:102DE000012142F080529A6383F8341008465DF85E
:102DF000044B7047FF054000F0B5002299B07623E0
:102E0000CDE90A230023099309AA054607CA8DE8DC
:102E10000700CDE90633089306AB0ECB286800F017
:102E2000E9FC18B10124204619B0F0BD794E0446E2
:102E300001272868C6F8A04000F002FD0220C6F86D
:102E4000A070FEF78FFB2868059400F01BFD044678
:102E500058B9286800F0A0FF70B9AF642868002155
:102E600000F074FE90B14FF08054012385F83430A7
:102E7000AB6B2343AB63D5E72868AC6400F002FD7D
:102E8000002840F0C280AB6C012BE7D0059B4FF6C9
:102E9000FE76B3421DD8604F12E0286800F018FD9E
:102EA00021460028DFD1286800F0D2FC059B0133C1
:102EB0000593059BB34204464FEAD07209D842B944
:102EC0000021286800F042FE394604460028E4D07C
:102ED000CBE7059A4FF6FE739A4200F29880C4F34E
:102EE0008074012328686C64ADF8123000F0ACFCEB
:102EF000002800F084806B6C2868032B2FD10421FC
:102F000000F0A6FC000DE8640DA92846FFF7B8FE06
:102F10000446002876D12A6D28681204234600F062
:102F200005FEF8B92A462B1D52F8106B07CA8DE82A
:102F3000070030460ECB00F05DFC28684FF40071AE
:102F400000F096FD00283FF46EAF2B68334A9A6379
:102F5000AB6B01220343AB6385F8342062E700F0DA
:102F600073FE30B1012385F83430AB6B0343AB63A0
:102F700058E70146286800F06BFC034604216B67A4
:102F8000286800F065FC0346AB670821286800F05C
:102F90005FFC0C21E867286800F05AFC6B6CC5F8F0
:102FA0008000032B2868AAD00DF1120100F0B2FEB8
:102FB0000028D7D16B6C2868032BA0D0BDF8121065
:102FC0002965090400F04EFE0028CBD1014628688F
:102FD00000F03EFC034604216B66286800F038FCD4
:102FE0000346AB660821286800F032FC0C21E86635
:102FF000286800F02DFC03462B6728687FE74FF018
:103000008060AFE74FF08050ACE704462DE74FF00B
:1030100080742AE700802542000001C1FF054000BE
:10302000C8B110B590F83430044603F0FF0273B114
:10303000032384F834302046FFF7DEFE28B901234D
:10304000A063206384F8343010BD012010BD0277E6
:10305000FDF76EFFECE70120704700BF00000000A5
:1030600070B5426C0323032A80F834308AB00368B9
:1030700004460E4625D0B1F5805F22D0B1F5006F31
:103080005FD000293DD0826B42F000628263A56B65
:10309000F5B9D4E90512CDE90812D4E90112CDE958
:1030A0000412E268079606920AAA12E907008DE860
:1030B000070004AE184696E80E0000F09BFB23685C
:1030C0000CE0A26B42F08052A263A56B002DE0D011
:1030D000012231499963154684F834204FF4007178
:1030E000184600F0C5FC30B123682B4A9A63A36BE5
:1030F00003430125A3630123284684F834300AB032
:1031000070BD002218460023CDE9042300F0A0FB87
:10311000820135D404A92046FFF7DAFB60B9059B8C
:10312000DB0330D5216D2068090400F00FFD18B9CC
:103130000146206800F02AFDA26B23680243A263C7
:10314000C3E79FED137B184600218DED047B00F053
:103150007FFB800114D404A92046FFF7B9FB0028A7
:10316000EAD1059B59030ED5216D2068090400F0B2
:10317000EDFC0028E0D12068022100F007FDDBE72C
:103180004FF40060D8E74FF08060D5E7AFF30080E0
:103190000000000000000000FF054000016D10B5B8
:1031A00009040446006800F013FD014620B1A36B3A
:1031B0000B430020A36310BD206800F049FBC0F35F
:1031C000432010BD10B5846BFEF75EFC02280AD0C8
:1031D000D4E90F235B6D526D012B05D0012A03D07A
:1031E0002046FDF785FD10BD2368104A9A63DA6B0F
:1031F00022F49D72DA63A36B43F080432046A363FD
:10320000FFF7CCFF0538012808D90122002384F8F4
:10321000342020462363FDF76BFDE4E7206800F0CF
:1032200073FCA36B0343A363EFE700BFFF054000FC
:1032300010B5846B236840F23A529A632046FFF738
:10324000ADFF012205380023904284F83420236327
:1032500008D9A36B204613B9FFF710FD10BDFDF789
:1032600047FD10BD206800F04FFCA36B0343A36330
:10327000EFE700BF2DE9F04104460068256B436B82
:103280001A0482B01DD52B0700F1C080436BDB050B
:103290006BD54FF480738363C36B23F4434323F0F4
:1032A0003A03C363C36A23F00103C362290605D549
:1032B000AA0600F1EC80AB0700F0BB8002B0BDE8CD
:1032C000F081436BDF0523D54FF480738363C36BB9
:1032D00023F4434323F03A03C363C36A2E0723F066
:1032E0000103C362E2D515F0220F40F0B08040F236
:1032F0003A5383630122002384F834202046236359
:10330000AC0700F09F80FFF793FC02B0BDE8F081AE
:10331000436B5F042AD52E0728D5666A002ECDD0D0
:10332000276A07F1040807F1240500E0206818F86F
:10333000043C019318F8032C43EA0223019318F884
:10334000022C43EA0243019318F8012C01A943EA35
:10335000026308F10408019300F06CFAA845E5D176
:103360002037203EC4E90876A8E7436B426B40F261
:103370003A231A42A2D0436B990703D5A36B43F0BB
:103380000203A363436B1A0703D5A36B43F008033F
:10339000A363436B9B0603D5A36B43F02003A36396
:1033A000436BDF0603D5A36B43F01003A363436BAA
:1033B0009E0503D5A36B43F00803A36340F23A7361
:1033C0008363C36B23F44E7323F00203C36300F0E3
:1033D0009BFBA36B290743EA0003A3633DD42A06A2
:1033E0007FF56CAF15F0300F47D115F003055BD0BA
:1033F000206C324B0365FEF75FFA00283FF45EAFA6
:10340000206C02B0BDE8F041FFF712BFD4E90A57C3
:10341000002F3FF453AF05F1200600E0206800F0D4
:1034200005FA45F8040BB542F8D1203FC4E90A5724
:1034300044E72268D36A012123F00803D3622046BF
:1034400084F83410FFF7F2FB02B0BDE8F08100F021
:103450005BFB034650B9206849E70122002384F84A
:10346000342020462363FDF743FC27E7A26B134378
:103470002046A363FDF73CFCEDE7E06B104B0365D2
:10348000FEF71AFA00283FF419AFE06BB9E700F035
:103490003BFB034600283FF40EAFA26B13432046CC
:1034A000A363FDF725FC06E70123A563204684F806
:1034B00034302563FFF7E2FB00E700BFC5340008A6
:1034C00031320008FFF7B4BEF0B138B590F82C30B7
:1034D0000D46044603F0FF028BB12146022384F817
:1034E0002C3051F8040B00F0DDF8D4E90002294635
:1034F00000F010F9012384F82C30002038BD80F84A
:103500002D20FDF705FEE8E70120704770B590F823
:103510002C30022B0546D8B204D000F0FB04012C5D
:1035200001D0012070BD0E46022385F82C3028689A
:1035300000F02EF93368022B06BF052385F82C30E6
:1035400085F82C40002070BD38B590F82C30022B47
:103550000446D8B205D094F82C30012BDDB201D04E
:10356000012038BD0223206884F82C3000F036F9A1
:1035700084F82C50002038BD0268116938B5044623
:10358000C068A36821F440510143206911610343DD
:103590006069D1680343E06921F4164121F00C0110
:1035A00003430B43D3605369A069234923F4407359
:1035B00003438A42536105D0204B9A4202D0FFF761
:1035C00039F801E0FFF746F8E2691921B2F5004F3A
:1035D000D4E90053A0FB010113D09A009B0FFCF724
:1035E000A5FE174AA2FB00135B09642101FB13002F
:1035F00000013230A2FB00201B0103EB5013AB6033
:1036000038BDDA184FF000035B41FCF78FFE0C4A1F
:10361000A2FB00314909642303FB1103DB003233B1
:10362000A2FB0323C3F342121B0902EB011203F4B2
:10363000F8731344AB6038BD001001400014014022
:103640001F85EB5160B338B590F83D30044603F068
:10365000FF0203B32268242384F83D30D36823F4A7
:1036600000532046D360FFF787FF23681A6922F4CE
:1036700090421A615A6922F02A025A61DA680025DA
:10368000202142F40052DA60256484F83D1084F869
:103690003E10284638BD80F83C20FDF7FDFCD9E7F8
:1036A000012070472DE9F041D1E9073ED1E90082C0
:1036B000D1F824C043EA0E03D1E90276D1E90454DB
:1036C00043EA0C038969B8F1000F0FD113433B4360
:1036D000026833432B43234322F4FF420B4322F07F
:1036E0007F02134303600020BDE8F0813A43324378
:1036F0002A4322430A43016821F4F8410B43036043
:10370000436823F4FF4323F07F0313434360002007
:10371000BDE8F081F0B5CC684B698D688F690E68A3
:10372000013C4FEA043E4C68013C4FEA041C0C6922
:10373000013B013D013C791E1B052D022404013E85
:10374000090672B94EEA0303334343EA0C03826865
:103750002B4323430B4302F070421343836000204A
:10376000F0BD826822F470024EEA030E22F4704229
:1037700042EA0E0282604CEA0503C26833432343E7
:103780000B4302F070421343C3600020F0BD00BF42
:1037900070B50B6815464A68044613430069CA6849
:1037A000800D43EA42238A6880050343013A43EAD5
:1037B00042132361FDF7D0FE064601E06B1C05D1E4
:1037C000A36913F02003F9D1184670BD25B1FDF7A8
:1037D000C3FE801BA842F3D9032070BD436923F4C4
:1037E0007F53024623F03E0343EA41030020536126
:1037F000704700BF84B010B40DF1080C8CE80E00C7
:103800000B46049913430B43DDE90541426823430A
:103810000B4307995DF8044B22F4FD420B4322F061
:103820007F021343436004B000207047D0F880004B
:10383000704700BF0B68C0F880300020704700BFA1
:103840000323036000207047006800F00300704706
:1038500014304058704700BF10B4D1E900428B6863
:103860004462CC6882622343D1E90441C26A2343A3
:1038700022F0F7020B431343C3625DF8044B0020B0
:10388000704700BF002383600F4BC2680F491B685D
:1038900022F47F62A1FB031322F00F0242F4806244
:1038A0005B0A41F28831C26001FB03F302E0426B24
:1038B000120604D4013BFAD24FF000407047C523F2
:1038C00083630020704700BFAC010020D34D62101D
:1038D00041F0004141F480318160184AC3681849C1
:1038E000126823F47F63A1FB021223F00F0343F459
:1038F0008D63520A41F2883143F0010301FB02F269
:10390000C3608446531E52B1DCF8342012F0450FD8
:1039100003F1FF3301D0120504D5591CF4D14FF047
:1039200000407047DCF8340010F0040015BF04209C
:10393000C523CCF83800CCF838307047AC010020F3
:10394000D34D6210474B10B41B68474CA4FB034394
:103950005B0A03FB02F2531E4AB1426B12F0450FA1
:1039600003F1FF3301D0120506D55C1CF5D14FF0F1
:1039700000405DF8044B7047436B5B073CD4436BDE
:10398000DC0707D4C52383630369DBB2994204D003
:103990000120EEE701238363FAE7436933481840C7
:1039A0000028E6D0002B2BDB5A002CD49C002CD412
:1039B000D9002CD41A012DD45C012ED4D9012FD4D6
:1039C0001A0230D45C0231D499023BD4DA0236D4E4
:1039D0005C0331D499032CD4DA033FD41C043AD4C9
:1039E000590435D49A0430D413F0080F0CBF4FF4A7
:1039F00080304FF40000BCE7042383631846B8E727
:103A00004FF00070B5E74020B3E78020B1E74FF4F6
:103A10008070AEE74FF40070ABE74FF48060A8E72A
:103A20004FF40060A5E74FF48050A2E74FF4005038
:103A30009FE74FF480209CE74FF4003099E74FF464
:103A4000004096E74FF4804093E74FF4800090E702
:103A50004FF400108DE74FF480108AE74FF40020F8
:103A600087E700BFAC010020D34D621008E0FFFDE6
:103A70008160C36823F47F6323F00F0343F48A63F8
:103A800041F28832C3601021FFF75CBF8160C368D8
:103A900023F47F6323F00F0343F48A6343F00103AD
:103AA00041F28832C3601121FFF74CBF8160C368C7
:103AB00023F47F6323F00F0343F48A6343F002038C
:103AC00041F28832C3601221FFF73CBF8160C368B6
:103AD00023F47F6323F00F0343F48B6341F28832B6
:103AE000C3601821FFF72EBF8160C36823F47F6392
:103AF00023F00F0343F48B6343F0010341F2883258
:103B0000C3601921FFF71EBF00238360C368064A04
:103B100023F47F6323F00F0343F4896343F004032A
:103B2000C3600C21FFF70EBF00E1F5058260C3689A
:103B300023F47F6323F00F0343F4886343F0070308
:103B400041F28832C3600721FFF7FCBE8160C36881
:103B500023F47F6323F00F0343F48E6343F00703E2
:103B600041F28832C3603721FFF7ECBE8160C36841
:103B700023F47F6323F00F0343F48A6343F00703C6
:103B800041F28832C3601721FFF7DCBE8160C36851
:103B900023F47F6323F00F0343F4886343F00603A9
:103BA00041F28832C3600621FFF7CCBE0023836058
:103BB000C36823F47F6323F00F0343F48E6343F061
:103BC000030341F28832C3603321FFF7BBBE00BF5D
:103BD0008160C36823F47F6323F00F0343F4896398
:103BE00043F0050341F28832C3600D21FFF7AABEFE
:103BF000134A144B1268A3FB023241F28831520A75
:103C000001FB02F2531E01464AB14A6B12F0450F06
:103C100003F1FF3301D0120504D5581CF5D14FF044
:103C2000004070474B6B5B0707D4486B10F00100F6
:103C300014BF0123C5238B6370470420886370473A
:103C4000AC010020D34D621000238360C36823F4CD
:103C50007F6323F00F0343F4986343F00203C360D0
:103C6000FFF7C6BF8160C36823F47F6323F00F03AF
:103C700043F4996343F00103C360FFF7B9BF00BF8A
:103C800010B4224C224B2468A3FB0434640A41F292
:103C9000883303FB04F4631E4CB1446B14F0450FEE
:103CA00003F1FF3301D0240506D55C1CF5D14FF09C
:103CB00000405DF8044B7047436B5B071BD4436BBC
:103CC000DC0705D40369DBB2994204D00120F0E798
:103CD00001238363FAE7C5238363436913F46040D8
:103CE00010D05A040BD413F4004F0CBF4FF48030A3
:103CF0004FF48050DDE7042383631846D9E74FF47F
:103D00000050D6E71B0C1380D3E700BFAC010020A6
:103D1000D34D621000238360C36823F47F6323F0D4
:103D20000F0343F4886343F003030A46C36003218F
:103D3000FFF7A6BF164A174B1268A3FB023241F2E7
:103D40008831520A01FB02F2531E01464AB14A6B06
:103D500012F0450F03F1FF3301D0100504D55A1CB2
:103D6000F5D14FF0004070474B6B5A070CD4486BAD
:103D700010F0010005D14B6B5B06F4D540238B633B
:103D8000704701238B63704704208863704700BF2E
:103D9000AC010020D34D62104FF4D5738360C3682B
:103DA00023F47F6323F00F0343F48963C360FFF7B9
:103DB000C1BF00BF02440346934200D1704703F8DD
:103DC000011BF9E770B50D4D0D4C641BA4100026C6
:103DD000A64209D10B4D0C4C00F018F8641BA4103E
:103DE0000026A64205D170BD55F8043B9847013620
:103DF000EEE755F8043B98470136F2E74C420008DD
:103E00004C4200084C42000850420008F8B500BF80
:103E1000F8BC08BC9E467047F8B500BFF8BC08BCAB
:043E20009E46704703
:103E24000000000055000000AA000000FF00000090
:103E34000024000055240000AA240000FF240000F0
:103E44000048000055480000AA480000FF48000050
:103E5400006D0000556D0000AA6D0000FF6D0000AC
:103E64000091000055910000AA910000FF9100000C
:103E740000B6000055B60000AAB60000FFB6000068
:103E840000DA000055DA0000AADA0000FFDA0000C8
:103E940000FF000055FF0000AAFF0000FFFF000024
:103EA4000000240055002400AA002400FF00240080
:103EB4000024240055242400AA242400FF242400E0
:103EC4000048240055482400AA482400FF48240040
:103ED400006D2400556D2400AA6D2400FF6D24009C
:103EE4000091240055912400AA912400FF912400FC
:103EF40000B6240055B62400AAB62400FFB6240058
:103F040000DA240055DA2400AADA2400FFDA2400B7
:103F140000FF240055FF2400AAFF2400FFFF240013
:103F24000000480055004800AA004800FF0048006F
:103F34000024480055244800AA244800FF244800CF
:103F44000048480055484800AA484800FF4848002F
:103F5400006D4800556D4800AA6D4800FF6D48008B
:103F64000091480055914800AA914800FF914800EB
:103F740000B6480055B64800AAB64800FFB6480047
:103F840000DA480055DA4800AADA4800FFDA4800A7
:103F940000FF480055FF4800AAFF4800FFFF480003
:103FA40000006D0055006D00AA006D00FF006D005B
:103FB40000246D0055246D00AA246D00FF246D00BB
:103FC40000486D0055486D00AA486D00FF486D001B
:103FD400006D6D00556D6D00AA6D6D00FF6D6D0077
:103FE40000916D0055916D00AA916D00FF916D00D7
:103FF40000B66D0055B66D00AAB66D00FFB66D0033
:1040040000DA6D0055DA6D00AADA6D00FFDA6D0092
:1040140000FF6D0055FF6D00AAFF6D00FFFF6D00EE
:104024000000910055009100AA009100FF0091004A
:104034000024910055249100AA249100FF249100AA
:104044000048910055489100AA489100FF4891000A
:10405400006D9100556D9100AA6D9100FF6D910066
:104064000091910055919100AA919100FF919100C6
:1040740000B6910055B69100AAB69100FFB6910022
:1040840000DA910055DA9100AADA9100FFDA910082
:1040940000FF910055FF9100AAFF9100FFFF9100DE
:1040A4000000B6005500B600AA00B600FF00B60036
:1040B4000024B6005524B600AA24B600FF24B60096
:1040C4000048B6005548B600AA48B600FF48B600F6
:1040D400006DB600556DB600AA6DB600FF6DB60052
:1040E4000091B6005591B600AA91B600FF91B600B2
:1040F40000B6B60055B6B600AAB6B600FFB6B6000E
:1041040000DAB60055DAB600AADAB600FFDAB6006D
:1041140000FFB60055FFB600AAFFB600FFFFB600C9
:104124000000DA005500DA00AA00DA00FF00DA0025
:104134000024DA005524DA00AA24DA00FF24DA0085
:104144000048DA005548DA00AA48DA00FF48DA00E5
:10415400006DDA00556DDA00AA6DDA00FF6DDA0041
:104164000091DA005591DA00AA91DA00FF91DA00A1
:1041740000B6DA0055B6DA00AAB6DA00FFB6DA00FD
:1041840000DADA0055DADA00AADADA00FFDADA005D
:1041940000FFDA0055FFDA00AAFFDA00FFFFDA00B9
:1041A4000000FF005500FF00AA00FF00FF00FF0011
:1041B4000024FF005524FF00AA24FF00FF24FF0071
:1041C4000048FF005548FF00AA48FF00FF48FF00D1
:1041D400006DFF00556DFF00AA6DFF00FF6DFF002D
:1041E4000091FF005591FF00AA91FF00FF91FF008D
:1041F40000B6FF0055B6FF00AAB6FF00FFB6FF00E9
:1042040000DAFF0055DAFF00AADAFF00FFDAFF0048
:1042140000FFFF0055FFFF00AAFFFF00FFFFFF00A4
:104224000000000001020304000000000000000080
:1042340001020304060708090006101600061016FA
:0842440018C1FF7F010000001A
:04424C00D501000890
:04425000B1010008B0
:0C4254000024F400010000001000000035
:040000050800143D9E
:00000001FF
