:020000040800F2
:1000000000000320951E00085D1E0008611E000808
:10001000651E0008691E0008191F00080000000086
:10002000000000000000000000000000191F000890
:100030006D1E000800000000711E0008751E0008FB
:10004000191F0008191F0008191F0008191F0008B0
:10005000191F0008191F0008191F0008191F0008A0
:10006000191F0008191F0008191F0008191F000890
:10007000191F0008191F0008191F0008191F000880
:10008000191F0008191F0008191F0008191F000870
:10009000191F0008191F0008191F0008191F000860
:1000A000191F0008191F0008191F0008191F000850
:1000B000191F0008191F0008191F0008191F000840
:1000C000191F0008191F0008191F0008191F000830
:1000D000191F0008191F0008191F0008191F000820
:1000E000191F0008191F0008191F0008191F000810
:1000F000191F0008191F0008191F0008191F000800
:10010000191F0008191F0008191F0008191F0008EF
:10011000191F0008191F0008191F0008191F0008DF
:10012000191F0008191F0008191F0008191F0008CF
:10013000191F0008191F0008191F0008191F0008BF
:10014000191F0008191F0008191F0008191F0008AF
:10015000191F0008191F0008191F0008191F00089F
:10016000191F0008191F0008191F0008191F00088F
:10017000191F0008191F0008191F000800000000BF
:10018000191F0008191F0008191F0008191F00086F
:10019000191F0008191F0008191F0008191F00085F
:0C01A000191F0008191F0008191F000893
:1001AC0010B5054C237833B9044B13B10448AFF3A5
:1001BC0000800123237010BDB80100200000000056
:1001CC003C26000808B5034B1BB103490348AFF3A9
:1001DC00008008BD00000000BC0100203C26000887
:1001EC0001F0E4BBBDF1080D01B400B541F204000F
:1001FC00CEF200000068029041F20400CEF2000042
:10020C000068039003980299401AA821019A51435F
:10021C008842F1DB5DF804EB1DF10C0D704701B465
:10022C0000B501980006000E00060199090A09069E
:10023C00090E090440180199090C0906090E090256
:10024C0040180199090E0906090E40185DF804EBD7
:10025C001DF1040D7047BDF1080D00B50020019093
:10026C0042F63440C4F2010000680290029810F08B
:10027C0080003FF4F5AF029810F40060F0D15DF807
:10028C0004EB1DF1080D7047BDF1080D01B400B56C
:10029C0042F63440C4F2010000680290029810F05B
:1002AC0045003FF4F5AF029810F40060F0D10298CD
:1002BC0010F00500029042F63840C4F20100C5214E
:1002CC0001600298002840F0D48042F61040C4F23D
:1002DC0001000068039003980199884200F00580A2
:1002EC005FF40050029000F0C4B842F61440C4F21F
:1002FC0001000068039003984EF20801CFF6FF51FD
:10030C0010EA010000F0B580039810F0004000F0F6
:10031C0005805FF00070029000F0ABB8039810F00D
:10032C00804000F004804020029000F0A2B80398B6
:10033C0010F0005000F004808020029000F099B87A
:10034C00039810F0805000F005805FF480700290EC
:10035C0000F08FB8039810F0006000F005805FF497
:10036C000070029000F085B8039810F0806000F0E7
:10037C0005805FF48060029000F07BB8039810F069
:10038C00807000F005805FF40060029000F071B89E
:10039C00039810F4000000F005805FF48050029088
:1003AC0000F067B8039810F4800000F005805FF44B
:1003BC000050029000F05DB8039810F4001000F0AB
:1003CC0005805FF48040029000F053B8039810F45D
:1003DC00801000F005805FF40040029000F049B8F6
:1003EC00039810F4802000F005805FF40030029038
:1003FC0000F03FB8039810F4003000F005805FF473
:10040C008020029000F035B8039810F4803000F092
:10041C0005805FF40020029000F02BB8039810F4D4
:10042C00004000F005805FF48010029000F021B8CD
:10043C00039810F4804000F005805FF400100290E7
:10044C0000F017B8039810F4005000F005805FF42A
:10045C008000029000F00DB8039810F0080000F036
:10046C0005805FF40000029000F003B85FF4803068
:10047C00029002985DF804EB1DF10C0D7047BDF174
:10048C00040D00B542F63440C4F20100006801903E
:10049C00019810F045003FF4F5AF019810F400609E
:1004AC00F0D1019810F00400019042F63840C4F2EB
:1004BC000100C521016001985DF804EB1DF1040DEC
:1004CC007047BDF1080D03B400B50020039042F64F
:1004DC003440C4F2010000680390039810F045000A
:1004EC003FF4F5AF039810F40060F0D1039810F0CE
:1004FC000500039042F63840C4F20100C5210160AA
:10050C000398002840F0388042F61040C4F20100F5
:10051C000068049004980199884200F005805FF40B
:10052C000050039000F028B842F61440C4F20100C9
:10053C0000680490049810F4604040F00680049821
:10054C00000C0299086000F017B8049810F4804071
:10055C0000F005805FF40050039000F00DB8049893
:10056C0010F4004000F005805FF48050039000F020
:10057C0003B85FF48030039003985DF804EB1DF131
:10058C00100D7047BDF1040D00B542F63440C4F2B5
:10059C00010000680190019810F045003FF4F5AFA0
:1005AC00019810F40060F0D1019810F00500019052
:1005BC0042F63840C4F20100C521016001985DF893
:1005CC0004EB1DF1040D7047BDF1040D01B400B531
:1005DC0001980069000442F60841C4F20101086068
:1005EC0042F60C40C4F2010000680290029840F6FA
:1005FC00FF7130EA010040F24D4150EA010042F631
:10060C000C41C4F2010108600D20FFF73DFE019979
:10061C00096851EA00000199086042F61440C4F2DE
:10062C000100006802900298400A0007000F5DF874
:10063C0004EB1DF1080D7047BDF1040D00B542F639
:10064C000840C4F201000021016042F60C40C4F2E3
:10065C00010000680190019840F6FF7130EA01003A
:10066C0040F24C4150EA010042F60C41C4F2010147
:10067C0008600C20FFF708FE5DF804EB1DF1040D7B
:10068C007047BDF10C0D0FB400B500200199086046
:10069C000498012880F204805FF0006001990860E2
:1006AC000398049940180199C969884240F3048061
:1006BC005FF000700199086001980068002840F014
:1006CC003F8142F62C40C4F201000021016042F649
:1006DC003C40C4F201000021016046F26040C4F2CB
:1006EC00020042F68041C4F20101016046F264400E
:1006FC00C4F202000299016046F20840C4F2020002
:10070C005FF07461016046F25840C4F20200006868
:10071C000590059830F01E0046F25841C4F20201D3
:10072C00086046F26C40C4F202000068059005981F
:10073C0030F0800046F26C41C4F20201086048F6C9
:10074C000030C4F24C200121016048F28C50C4F2FC
:10075C0025200121016001984068012800F00380E8
:10076C0003984002039042F62440C4F201005FF06B
:10077C00FF3101600498400242F62841C4F20101A5
:10078C00086042F62C40C4F2010000680590059800
:10079C0030F0F70050F0930042F62C41C4F2010106
:1007AC00086042F60840C4F201000399016042F669
:1007BC000C40C4F20100006805900498012840F335
:1007CC001580059840F6FF7130EA010040F2524165
:1007DC0050EA010042F60C41C4F2010108601220FB
:1007EC00FFF752FD0199086000F013B8059840F628
:1007FC00FF7130EA010040F2514150EA010042F62B
:10080C000C41C4F2010108601120FFF73DFD019974
:10081C00086001980068002840F0828046F2004091
:10082C00C4F202000068069042F63440C4F20100A3
:10083C000068079006985FEAB06000F1178007988F
:10084C0040F22A3110EA010040F010806420FFF7DA
:10085C00C9FC46F20040C4F202000068069042F661
:10086C003440C4F2010000680790E3E7FFF7E4FEB0
:10087C000199086007985FEA702000F1518048F6F2
:10088C000030C4F24C200021016006985FEAB06091
:10089C0040F106800198006850F080400199086092
:1008AC0007985FEAB00040F106800198006850F0AC
:1008BC0002000199086007985FEA301040F1068049
:1008CC000198006850F008000199086007985FEAE9
:1008DC00B01040F106800198006850F0200001999A
:1008EC00086007985FEA701040F106800198006874
:1008FC0050F010000199086007985FEAB02040F1B1
:10090C0006800198006850F008000199086048F6CC
:10091C000030C4F24C200068059005980028F6D1F0
:10092C0046F20840C4F202005FF07461016042F6C6
:10093C003840C4F2010040F2FF71C0F24001016086
:10094C00019800685DF804EB1DF11C0D7047BDF1BA
:10095C00040D0FB400B50498802840F30180FEE725
:10096C0001980199096D029A049BFFF78AFE059084
:10097C000598002840F00B800198FFF725FE04280D
:10098C0000F005805FF47A70FFF72CFCF4E7019817
:10099C000068002840F00E800498C00140F2C0317D
:1009AC00C2F20001039A05D051F8043B42F8043B13
:1009BC00401EF9D15DF804EB1DF1140D7047BDF12B
:1009CC00100D01B400B50020039000208DF8140028
:1009DC0042F60840C4F201000021016042F60C40CE
:1009EC00C4F2010000680290029840F6FF7130EAF0
:1009FC00010050F4806042F60C41C4F20101086021
:100A0C00FFF729FC42F60840C4F201005FF4D571EF
:100A1C00016042F60C40C4F201000068029002989A
:100A2C0040F6FF7130EA010050F4896042F60C4147
:100A3C00C4F201010860FFF7A5FD0390039800289C
:100A4C0000F007800020019988600020039000F0DE
:100A5C0003B80120019988600020049042F60840F8
:100A6C00C4F201000021016042F60C40C4F2010006
:100A7C0000680290029840F6FF7130EA010040F2E3
:100A8C00774150EA010042F60C41C4F201010860C2
:100A9C003720FFF7F9FB03900398002840F01F80E4
:100AAC0042F60840C4F201000021CCF202110160B0
:100ABC0042F60C40C4F2010000680290029840F625
:100ACC00FF7130EA010040F2694150EA010042F640
:100ADC000C41C4F201010860FFF7D1FC03900398AC
:100AEC00002840F00F8042F61440C4F20100006868
:100AFC0002900298C00F5FEA70004CBF01200020EA
:100B0C008DF814000498401C04909DF814000028E3
:100B1C0040F009800398002840F0058004984FF6B7
:100B2C00FF7188429ADD9DF81400002800F00F80B8
:100B3C00029810F0804000F0058001200199486077
:100B4C0000F003B800200199486000F003B85FF092
:100B5C008070039003985DF804EB1DF1140D704741
:100B6C00BDF1040D03B400B5002003900198406B57
:100B7C00800F8007800F029908700198406B000C61
:100B8C000006000E029948700198406B000A00069E
:100B9C00000E029988700198406B0006000E0299B5
:100BAC00C8700198806B000D0005000D029948601B
:100BBC000198806B000C0007000F029908720198D5
:100BCC00806BC00B5FEA70004CBF012000200299C3
:100BDC0048720198806B800B5FEA70004CBF01205B
:100BEC000020029988720198806B400B5FEA7000BC
:100BFC004CBF012000200299C8720198806B000B39
:100C0C005FEA70004CBF0120002002990873019824
:100C1C004068002840F050800198806B8005800D62
:100C2C0080000199C96B890F8907890F40180299B7
:100C3C0008610198C06BC00E4007400F02990875FF
:100C4C000198C06B000E4007400F0299487501983F
:100C5C00C06B400D4007400F029988750198C06B1E
:100C6C00800C4007400F0299C8750198C06BC00BEF
:100C7C004007400F0299087602980069401C0299BF
:100C8C00097E891C012212FA01F14843019948613D
:100C9C0001200299097A884001998861019840697C
:100CAC0001998969484340120199C8615FF4007049
:100CBC000199086200F02DB801984068012840F0B5
:100CCC0021800198806B8006800E00040199C96B0D
:100CDC00090C0904090C4018029908610298006972
:100CEC00401C8002019948615FF400700199886191
:100CFC00019840690199C86101988069019908625D
:100D0C0000F007B85FF08050019908605FF08050E8
:100D1C0003900398002840F072800198C06B800B00
:100D2C005FEA70004CBF01200020029948760198C0
:100D3C00C06BC0094006400E029988760198C06BC2
:100D4C004006400E0299C8760198006CC00F5FEA0D
:100D5C0070004CBF01200020029908770198006CAC
:100D6C00800E4007400F029948770198006C800D67
:100D7C000007000F029988770198006C400D5FEA1C
:100D8C0070004CBF012000200299C8770198006CBC
:100D9C00C00BC007C00F029981F820000198006CAD
:100DAC00800B5FEA70004CBF01200020029981F893
:100DBC0021000198006C400B5FEA70004CBF0120D1
:100DCC000020029981F822000198006C000B5FEA68
:100DDC0070004CBF01200020029981F8230001987B
:100DEC00006C800A8007800F029981F8240001981A
:100DFC00006C40084006400E029981F825000398CB
:100E0C005DF804EB1DF10C0D7047BDF1340D01B410
:100E1C0000B500200D9042F60040C4F201000068BD
:100E2C000C900C9810F00300032800F003805FF086
:100E3C0080600D900D98002840F0D68042F6084056
:100E4C00C4F201000021016042F60C40C4F2010022
:100E5C0000680C900C9840F6FF7130EA010040F2EB
:100E6C00C24150EA010042F60C41C4F20101086093
:100E7C00FFF788FB0D900D98002840F01C8042F67F
:100E8C001440C4F2010000680199486242F618400F
:100E9C00C4F2010000680199886242F61C40C4F259
:100EAC00010000680199C86242F62040C4F20100BA
:100EBC000068019908630D98002840F0208042F6E4
:100ECC000840C4F201000021016042F60C40C4F25B
:100EDC00010000680C900C9840F6FF7130EA01009C
:100EEC0040F2434150EA010042F60C41C4F20101C8
:100EFC00086003201DF13801FFF7E3FA0D900D98FF
:100F0C00002840F022800E98019908610198006930
:100F1C00000442F60841C4F20101086042F60C409C
:100F2C00C4F2010000680C900C9840F6FF7130EA96
:100F3C00010040F2C94150EA010042F60C41C4F2F2
:100F4C0001010860FFF71EFB0D900D98002840F082
:100F5C00278042F61440C4F20100006801994863EE
:100F6C0042F61840C4F2010000680199886342F609
:100F7C001C40C4F2010000680199C86342F620408D
:100F8C00C4F201000068019908640198806B000D9F
:100F9C000199C86001981DF10801FFF7E1FD0D9062
:100FAC000D98002840F0208001980069000442F65A
:100FBC000841C4F20101086042F60C40C4F2010081
:100FCC0000680C900C9840F6FF7130EA010040F27A
:100FDC00474150EA010042F60C41C4F2010108609D
:100FEC000720FFF751F90D900D985DF804EB1DF1FA
:100FFC00380D7047BDF1040D2DE9FF0700B50198C0
:10100C00083000680C90019808300C99039A9143B1
:10101C00079A114301600198001D00680C9001981B
:10102C00001D0C99029A9143089A11430160019892
:10103C000C3000680C9001980C300C99039A914379
:10104C00099A114301600198203000680C900198B6
:10105C0020300C99049A91430A9A1143016001982B
:10106C00243000680C90019824300C99059A914317
:10107C000B9A11430160019800680C9001980C992F
:10108C00039A9143069A114301605DF804EB1DF13C
:10109C00300D7047BDF1140D01B400B540F258602D
:1010AC00C4F247200121017040F6AC00C4F2472085
:1010BC000121017040F20860C4F247200121017047
:1010CC0040F20C60C4F247200121017040F20C6028
:1010DC00C4F247200121017040F21460C4F2472091
:1010EC000121017040F21460C4F2472000788DF8A1
:1010FC000C0040F60000C4F2020041F60871C02258
:10110C00C0F2FF3200234FF6FF74C0F20F044025EB
:10111C00C0F2AA250026C0F2AA2600275FF000081C
:10112C005FF000094CF6CC4AC0F20C0AFFF762FFE4
:10113C0040F60040C4F2020034215FF473625FF4A5
:10114C00706300242025202600275FF4A0685FF43C
:10115C0040695FF0000AFFF74DFF41F20040C4F216
:10116C0002005FF400715FF44022002300245FF45E
:10117C008025002600275FF000085FF000095FF073
:10118C00000AFFF737FF6420FFF72CF848F2142011
:10119C00C4F241200068002800F0078048F2A42027
:1011AC00C4F2422001210170FEE748F21020C4F283
:1011BC0041200068002800F0078040F28C20C4F227
:1011CC00412001210170FEE740F60C40C4F2020000
:1011DC0000680290029830F4706040F60C41C4F242
:1011EC000201086048F2A420C4F2422001210170DF
:1011FC0040F28C20C4F241200121017048F60030ED
:10120C00C4F24C200021016048F60030C4F24C209E
:10121C000068029002980028F6D146F25840C4F2B9
:10122C00020045F22041C0F6A001016046F26C407C
:10123C00C4F202000721016049F20040C4F24C20C4
:10124C000021016049F20040C4F24C200068029079
:10125C0002980028F6D146F2A040C4F2020045F2F2
:10126C006041C0F6A001016046F2B440C4F2020035
:10127C000721016042F60440C4F2010076210160AE
:10128C0042F60040C4F201000321016048F2A000C4
:10129C00C4F22520012101605FF47A60FEF7A2FF01
:1012AC000198FFF78CFB01990860019800680028F1
:1012BC0040F005800198FFF7A8FD0199086001989E
:1012CC000068002840F07E8101984068002840F0BA
:1012DC001B8042F60840C4F201000821016002980C
:1012EC0040F6FF7130EA010050F48A6042F60C417E
:1012FC00C4F2010108601020FEF7C6FF01990968CD
:10130C0051EA00000199086001980068002840F03B
:10131C00218001980069000442F60841C4F20101E1
:10132C00086042F60C40C4F201000068029002987A
:10133C0040F6FF7130EA010040F2774150EA0100BB
:10134C0042F60C41C4F2010108603720FEF79CFF05
:10135C000199086001980068002840F0368042F638
:10136C002440C4F201005FF0FF31016042F62840D6
:10137C00C4F201000821016042F62C40C4F20100C5
:10138C0000680290029830F0F70050F0330042F6FB
:10139C002C41C4F20101086042F60840C4F201007D
:1013AC0000210160029840F6FF7130EA010040F222
:1013BC00734150EA010042F60C41C4F2010108608D
:1013CC003320FEF761FF019908600198006800283E
:1013DC0040F0B68042F63440C4F20100006802903E
:1013EC0000200690029842F22A2110EA0100B0F582
:1013FC00005F40F0188002985FEAB05040F10C801A
:10140C0006981DEB800042F68041C4F20101096888
:10141C0001610698401C069042F63440C4F201006B
:10142C0000680290DEE702985FEA702040F10A80C3
:10143C000498FEF7F4FE04900598FEF7F0FE059074
:10144C0000F01CB802985FEAB00040F10580022061
:10145C000199086000F012B802985FEAB01040F1F0
:10146C00058020200199086000F008B802985FEA16
:10147C00B02040F1038008200199086042F6384002
:10148C00C4F2010040F2FF71C0F240010160059806
:10149C005FEAF04040F1548001980069000442F684
:1014AC000841C4F20101086042F60C40C4F201008C
:1014BC0000680290029840F6FF7130EA010040F299
:1014CC00774150EA010042F60C41C4F20101086078
:1014DC003720FEF7D9FE01990860019800680028B2
:1014EC0040F0198042F60840C4F20100022101606C
:1014FC00029840F6FF7130EA010040F2464150EA92
:10150C00010042F60C41C4F2010108600620FEF70E
:10151C00BBFE0199086001980068002840F010801B
:10152C0042F60440C4F2010000680290029830F4C4
:10153C00C05050F4006042F60441C4F2010108604E
:10154C0001980068002840F02C8042F60440C4F258
:10155C00010000680290029830F0FF0050F000008B
:10156C0042F60441C4F20101086042F60840C4F29C
:10157C0001005FF400710160029840F6FF7130EADF
:10158C00010050F48A6042F60C41C4F2010108607B
:10159C001020FEF779FE0199096851EA00000199C3
:1015AC00086001980068002840F00C8048F2A420E4
:1015BC00C4F242200021017040F28C20C4F2412080
:1015CC00002101705DF804EB1DF1180D7047BDF1A1
:1015DC000C0D00B540F26830C2F200000390039885
:1015EC0040F2C031C2F2000101650398FFF752FDD1
:1015FC0003980421C0F2080141F20002CDF220024E
:10160C000223FFF7A4F941F21000CDF2200000688C
:10161C00019001984FF2FF11C2F6DF714018401291
:10162C00801E02900298002840F30B80039806213C
:10163C00C0F2080141F20042CDF22002029BFFF7FA
:10164C0086F95DF804EB1DF10C0D7047BDF1040D2E
:10165C0000B5BFF35F8F4EF62450CEF20000006849
:10166C000190019830F480304EF62451CEF20001F6
:10167C0008604EF69450CEF20000002101604EF648
:10168C009850CEF20000002101604EF69C50CEF234
:10169C0000005FF0504101604EF6A050CEF2000009
:1016AC002D21C0F2063101604EF69850CEF20000AA
:1016BC00012101604EF69C50CEF200000121CDF2CA
:1016CC00000101604EF6A050CEF200002921C1F2BB
:1016DC00063101604EF69450CEF200000068019085
:1016EC00019850F005004EF69451CEF200010860BE
:1016FC004EF62450CEF2000000680190019850F490
:10170C0080304EF62451CEF200010860BFF34F8FAB
:10171C00BFF36F8F5DF804EB1DF1040D7047BDF145
:10172C00040D00B543F63000C4F2020000680190CD
:10173C00019850F07E0043F63001C4F202010860BB
:10174C0043F63800C4F202000121016040F200406F
:10175C00C4F2020060215FF470525FF07F630024DA
:10176C005FF420555FF4705600275FF000085FF0BF
:10177C004C695FF0000AFFF73DFC40F60000C4F234
:10178C000200012101220123002402250326002747
:10179C005FF000085FF00C095FF0000AFFF72AFC0D
:1017AC0040F60040C4F202004CF203710F22CFF25B
:1017BC003F02FF2340F6FF74CFF600740A25CAF2ED
:1017CC002A050F26CFF23F0600275FF000085FF0D6
:1017DC00CC0940F6CC4ACCF6004AFFF70BFC41F2A0
:1017EC000000C4F202004FF683714CF20F02CFF6E8
:1017FC00FF72FF23CFF200035FF0FF3448F20A05BB
:10180C00CAF6AA254CF20F06CFF6FF7600275FF03A
:10181C00000840F2CC09CCF200095FF0CC3AFFF79B
:10182C00E9FB41F20040C4F202004FF63F0140F6E2
:10183C00FF72CFF6C0727FF07F434FF20004CFF6F9
:10184C00FF7440F6AA25CAF6802540F6FF76CFF63F
:10185C00C07600275FF000084CF6CC49C0F2CC09EA
:10186C004CF2000ACCF6CC4AFFF7C4FB41F6000060
:10187C00C4F2020048F2331140F60F72CCF20302AC
:10188C005FF0FF130F24CFF2000440F60A25C8F2D4
:10189C00020540F60F76CCF2030600275FF0000835
:1018AC005FF0CC1940F20C0ACCF2000AFFF7A2FB55
:1018BC0040F24010CAF2000000680190019830F428
:1018CC00F84050F4605040F24011CAF20001086038
:1018DC0040F24410CAF200005FF4EA71016040F279
:1018EC004810CAF200000068019001984FF2000104
:1018FC00C0F2F00130EA010050F4831040F24811BC
:10190C00CAF20001086040F24C10CAF2000040F22A
:10191C006131C0F20211016040F25010CAF20000B5
:10192C000921016040F25810CAF2000000685FEA19
:10193C00B010F7D47820FEF755FC40F25010CAF2E4
:10194C0000000A21016040F25810CAF20000006841
:10195C005FEAB010F7D440F25010CAF200008B21AD
:10196C00016040F25810CAF2000000685FEAB01043
:10197C00F7D440F25010CAF2000046F20C01C0F24B
:10198C000401016040F25810CAF2000000685FEADE
:10199C00B010F7D440F25410CAF2000040F61821EF
:1019AC0001605DF804EB1DF1040D7047FFF7B7FE05
:1019BC00FFF74CFEFFF70BFE41F20C00CDF22000BE
:1019CC000021CDF28001016041F21800CDF220001F
:1019DC000021C1F20101016041F20100CDF22000B1
:1019EC000047000053B94AB9002908BF00281CBFA2
:1019FC004FF0FF314FF0FF3000F06AB9ADF1080C39
:101A0C006DE904CE00F006F8DDF804E0DDE9022310
:101A1C0004B070472DE9F047089D0C46002B4ED1C1
:101A2C0094468C458646B2FA82F262D94AB1C2F12A
:101A3C002003914020FA03F30CFA02FC194300FA3C
:101A4C0002FE4FEA1C471FFA8CF6B1FBF7F44FEA83
:101A5C001E4307FB141143EA014304FB06F19942B0
:101A6C000AD91CEB030304F1FF3080F01281994278
:101A7C0040F20F81023C6344591A1FFA8EF3B1FBFA
:101A8C00F7F007FB101143EA014300FB06F69E42F8
:101A9C000AD91CEB030300F1FF3180F0FC809E425D
:101AAC0040F2F980634402389B1B40EA0440002159
:101ABC001DB1D3400022C5E90032BDE8F0878B424E
:101ACC0005D90DB1C5E9000100210846F5E7B3FAC7
:101ADC0083F1002946D1A34202D39042C0F0F0809A
:101AEC00861A64EB03030120002DE6D0C5E90063E0
:101AFC00E3E7002A40F09080A1EB0C044FEA1C486D
:101B0C001FFA8CF70121B4FBF8F64FEA1E4308FBD1
:101B1C00164443EA044307FB06F0984208D91CEB31
:101B2C00030306F1FF3402D2984200F2CD80264620
:101B3C001C1A1FFA8EF3B4FBF8F008FB104443EAAE
:101B4C00044300FB07F79F4208D91CEB030300F189
:101B5C00FF3402D29F4200F2B0802046DB1B40EAE9
:101B6C000640A5E7C1F120068B4022FA06F71F4379
:101B7C0020FA06FC04FA01F343EA0C03F44000FAE1
:101B8C0001F8380C4FEA1349B4FBF0FE1FFA87FC3E
:101B9C0000FB1E4449EA04440EFB0CF9A14502FA71
:101BAC0001F20AD93C190EF1FF3A80F08480A1456C
:101BBC0040F28180AEF1020E3C44A4EB09041FFA02
:101BCC0083F9B4FBF0F300FB134449EA044403FB30
:101BDC000CFCA44507D93C1903F1FF3067D2A4458E
:101BEC0065D9023B3C4443EA0E40A0FB0293A4EBB4
:101BFC000C049C42CE469C4651D34ED055B1B8EB0A
:101C0C000E0364EB0C0404FA06F6CB401E43CC40E6
:101C1C00C5E90064002150E7C2F1200320FA03F16A
:101C2C000CFA02FC24FA03F394400C434FEA1C48D0
:101C3C0000FA02FE1FFA8CF7B3FBF8F008FB103128
:101C4C00230C43EA014300FB07F1994208D91CEB32
:101C5C00030300F1FF362CD299422AD9023863448F
:101C6C005B1AA4B2B3FBF8F108FB113344EA03444A
:101C7C0001FB07F3A34208D91CEB040401F1FF3666
:101C8C0013D2A34211D902396444E41A41EA004147
:101C9C0039E70446F0E6084606E7C845AED2B9EB8C
:101CAC00020E63EB070C0138A8E73146EDE703465B
:101CBC0099E73046D4E7D6467FE7634402384DE7D0
:101CCC000646234608460FE7023E634430E700BF52
:101CDC00704700BF30B5002395B0CDE90A33CDE98C
:101CEC000C33CDE90333CDE9053321490193079337
:101CFC00086C204A40F080500864096C01F0805157
:101D0C00019101990293136843F4404313601368E3
:101D1C0001204FF4803103F44043CDE908010293D4
:101D2C004FF480010224CDE90E41029807210220D4
:101D3C00CDE912010422A82308A81092119300F0F7
:101D4C009FF908B172B6FEE70F220346CDE90324D2
:101D5C004FF4A0554FF4805203A80521CDE9053569
:101D6C00079200F0A3FB08B172B6FEE715B030BDC8
:101D7C00003802400070004038B5154C636A4FF0D3
:101D8C00E02243F4C0236362936843F00103936041
:101D9C0000F0E2F8FFF79EFFD4F8FC200D4B22F088
:101DAC008072C4F8FC20D4F8FC2042F08072C4F895
:101DBC00FC201A68002522F001021A605D601A6886
:101DCC0042F001021A60FEF70BFA284638BD00BF3C
:101DDC0000ED00E0001000E010B582B000241B4BB9
:101DEC0000945A6C42F480425A645A6C02F4804259
:101DFC000092009A01941A6C42F080521A641B6C87
:101E0C0003F080530193224601216FF00A00019BDD
:101E1C0000F0E0F8224601216FF0090000F0DAF83A
:101E2C0022460F216FF0040000F0D4F82246012165
:101E3C006FF0030000F0CEF822460F216FF0010086
:101E4C0002B0BDE8104000F0C5B800BF0038024039
:101E5C00FEE700BFFEE700BFFEE700BFFEE700BFE6
:101E6C00704700BF704700BF00F090B8054BD3F827
:101E7C0088204FF0005142F47002C3F8882099601A
:101E8C00704700BF00ED00E0DFF858D01648174946
:101E9C00174A002300F021F816481749174A002367
:101EAC0000F01BF8164A174C002301E013600432B3
:101EBC00A242FBD3FFF7DAFF00F096FB124880F347
:101ECC0009884FF0020080F31488BFF36F8FFFF77F
:101EDC0053FF7047D458C4500433C4188C42F9D300
:101EEC00704700000000032000000020AC0100201F
:101EFC0000000008AC010020B80100207426000886
:101F0C00B8010020D801002000000110FEE70000FD
:101F1C0038B50E4A0E4B12781B6805464FF47A7092
:101F2C00B0FBF2F0B3FBF0F000F090F808B90F2D15
:101F3C0001D9012038BD0446024629464FF0FF3036
:101F4C0000F048F8034B20461D6038BDB00100205E
:101F5C00AC010020B401002008B50B4B1A6842F408
:101F6C0000721A601A6842F480621A601A6842F4AD
:101F7C0080721A60032000F01BF80A20FFF7C8FFDC
:101F8C00FFF72AFF002008BD003C0240034A044B27
:101F9C0011681B780B441360704700BFD4010020FC
:101FAC00B0010020014B1868704700BFD40100201D
:101FBC000749CA6803024FF6FF0003F4E0630240CE
:101FCC00134343F0BF6343F40033CB60704700BF4F
:101FDC0000ED00E01B4BDB68C3F3022300B5C3F13B
:101FEC00070EBEF1040F03F1040C28BF4FF0040ED2
:101FFC00BCF1060F1CD9A3F1030C4FF0FF3303FA0D
:10200C000CF322EA03024FF0FF3303FA0EF321EA3A
:10201C00030303FA0CF313431B010028DBB20ADBA6
:10202C0000F1604000F5614080F800335DF804FB7E
:10203C0000229446E7E7044A00F00F0002441376AE
:10204C005DF804FB00ED00E0FCEC00E00138B0F1C1
:10205C00807F01D30120704710B44FF0E023074C70
:10206C0058614FF0F00C84F823C000220721104671
:10207C009A615DF8044B1961704700BF00ED00E0F8
:10208C00002800F0D8812DE9F0410368DD0782B00B
:10209C0004462FD59D498A6802F00C02042A00F0F0
:1020AC00EC808A6802F00C02082A00F0E280636877
:1020BC00B3F5803F00F0EB80B3F5A02F00F07381F7
:1020CC00924D2A6822F480322A602A6822F48022F7
:1020DC002A60002B40F0E080FFF764FF064605E025
:1020EC00FFF760FF801B642800F200812B689F03C0
:1020FC00F6D423689D0728D5844A916811F00C0FFB
:10210C0000F09B80916801F00C01082900F091808F
:10211C00E368002B00F00C817D4B7C4E01221A6091
:10212C00FFF740FF054605E0FFF73CFF401B022888
:10213C0000F2DC8033689F07F6D53368226923F000
:10214C00F80343EAC203336023681A075CD45D07C3
:10215C003AD56E4A136C13F0805340F0888001938B
:10216C00136C43F080531364136C03F0805301938E
:10217C00019B0125674E3368D80540F1A780A36801
:10218C00012B00F0B780052B00F01D815F4E326FE4
:10219C0022F001023267326F22F004023267002B08
:1021AC0040F0AD80FFF7FEFE41F28838074605E0AF
:1021BC00FFF7F8FEC01B404500F29880336F9B0779
:1021CC00F6D4002D40F0F980A369CBB14F4DAA682D
:1021DC0002F00C02082A00F0BC80022B4C4B4FF092
:1021EC0000021A6600F0F980FFF7DCFE044604E0FA
:1021FC00FFF7D8FE001B022878D82B689B01F7D478
:10220C00002002B0BDE8F0816369FBB1404B3F4E4A
:10221C000122C3F8802EFFF7C5FE054604E0FFF748
:10222C00C1FE401B022861D8736F9B07F7D523684A
:10223C008DE7526851023FF56BAF344A1268920732
:10224C0038D5E268012A35D00120DAE7304A2F4E22
:10225C00C2F8803EFFF7A6FE054604E0FFF7A2FE9B
:10226C00401B022842D8736F9F07F7D4DFE7002585
:10227C0080E74A6851027FF51AAF244A126892032C
:10228C007FF538AF6268002A7FF434AFDCE71F4A71
:10229C00136843F480331360FFF784FE1B4E05462E
:1022AC0004E0FFF77FFE401B64281FD833689B03B4
:1022BC00F7D51EE7154920690A6822F0F80242EAB0
:1022CC00C0020A601A077FF542AF9DE7336843F4FA
:1022DC0080733360FFF766FE07463368D9053FF518
:1022EC004EAFFFF75FFEC01B0228F6D9032002B0E9
:1022FC00BDE8F081054A136F43F001031367FFF744
:10230C0051FE024F064641F288380AE0003802407E
:10231C000000474200700040FFF744FE801B404520
:10232C00E4D83B6F9A07F7D5002D3FF44DAF44E04E
:10233C00424A434E1360FFF735FE054604E0FFF7B3
:10234C0031FE401B0228D1D833689907F7D4236893
:10235C00FBE6012B3FF478AF6B68E26903F4800174
:10236C0091427FF471AF226A03F03F0191427FF4F6
:10237C006BAF616A47F6C0721A40B2EB811F7FF4F3
:10238C0063AFA26A520803F44031013AB1EB024F39
:10239C007FF45AAFE26A03F07063B3EB026F14BFC1
:1023AC00012000202DE7264B1A6842F480221A6087
:1023BC001A6842F480321A606EE7214A136C23F0DB
:1023CC008053136400E71E4B1A6F42F004021A6725
:1023DC001A6F42F001021A6791E7FFF7E3FD064618
:1023EC0005E0FFF7DFFD801B02283FF67FAF2B686F
:1023FC009901F6D4D4E90731626A0B4343EA82139C
:10240C00D4E90A21520843EA0163013A0B4943EA31
:10241C00024301226B600A66FFF7C4FD084D0446B7
:10242C0005E0FFF7BFFD001B02283FF65FAF2B68EE
:10243C009A01F6D5E4E60120704700BF0000474240
:10244C0000380240164908B58B6803F00C03042BC6
:10245C001BD0082B17D14A684B68496813F48003CA
:10246C0002F03F0213D10F48C1F38811A1FB000108
:10247C00FFF7B8FA0A4B5B68C3F3014301335B0007
:10248C00B0FBF3F008BD074808BD074808BD064877
:10249C00C1F388110023A1FB0001FFF7A3FAE9E7C0
:1024AC00003802400024F40000127A00002800F0EA
:1024BC008780484A136803F00F038B422DE9F041E3
:1024CC000D46044609D2CBB21370136803F00F0308
:1024DC008B4202D00120BDE8F0812368980714D507
:1024EC00590704D53C498A6842F4E0528A601A07BD
:1024FC0004D539498A6842F460428A603649A0683A
:10250C008A6822F0F00202438A60DF0721D56268F4
:10251C00012A57D0931E012B2F4B1B684DD99907BD
:10252C00D8D52D4EB36823F003031343B360FFF7E4
:10253C0039FD41F28838074604E0FFF733FDC01B34
:10254C00404544D8B368626803F00C03B3EB820FC8
:10255C00F3D1204A136803F00F03AB4206D9EBB258
:10256C001370136803F00F03AB42B3D123685A07FF
:10257C0006D51949E0688A6822F4E05202438A6061
:10258C001B0707D5144A2169936823F4604343EA77
:10259C00C1039360FFF756FF0F4A104C9268104925
:1025AC00C2F303120346A25C0E48D34000680B60D2
:1025BC00FFF7AEFC0020BDE8F0819801B1D489E7AB
:1025CC0001207047044B1B689E03AAD482E70320AA
:1025DC0081E700BF003C024000380240542600084E
:1025EC00AC010020B401002070B50D4D0D4C641BE6
:1025FC00A4100026A64209D10B4D0C4C00F018F883
:10260C00641BA4100026A64205D170BD55F8043BEE
:10261C0098470136EEE755F8043B98470136F2E748
:10262C006C2600086C2600086C2600087026000832
:10263C00F8B500BFF8BC08BC9E467047F8B500BFA3
:08264C00F8BC08BC9E46704773
:10265400000000000000000001020304060708094E
:08266400BCF3FF7F0100000040
:04266C00D101000890
:04267000AD010008B0
:0C2674000024F400010000001000000031
:0400000508001E953C
:00000001FF
