:020000040800F2
:1000000000000320A12300087520000879200008C3
:100010007D20000881200008252400080000000041
:10002000000000000000000000000000790200084D
:10003000A520000800000000A9200008F120000809
:10004000252400082524000825240008252400086C
:10005000252400082524000825240008252400085C
:10006000F520000825240008FD20000825240008AC
:10007000252400082524000825240008252400083C
:10008000252400082524000825240008252400082C
:10009000252400082524000825240008052100083F
:1000A000252400082524000825240008252400080C
:1000B00025240008252400082524000825240008FC
:1000C00025240008252400082524000825240008EC
:1000D00025240008252400082524000825240008DC
:1000E0000D210008252400082524000825240008E7
:1000F00025240008252400082524000825240008BC
:1001000025240008152100082524000825240008BE
:10011000252400082524000825240008252400089B
:100120002121000825240008252400082D2100088D
:10013000252400082524000825240008252400087B
:10014000252400082524000825240008252400086B
:10015000252400083921000825240008252400084A
:10016000252400082524000825240008252400084B
:10017000252400082524000825240008000000008C
:10018000252400082524000825240008252400082B
:10019000252400082524000825240008252400081B
:0C01A00025240008252400082524000860
:1001AC0010B5054C237833B9044B13B10448AFF3A5
:1001BC0000800123237010BDB80100200000000056
:1001CC000052000808B5034B1BB103490348AFF3B9
:1001DC00008008BD00000000BC0100200052000897
:1001EC0000F029B8BDF1080D00B50420C0F20800DC
:1001FC0041F20001CDF22001012202DF019041F217
:10020C001000CDF22000006802900520C0F208001A
:10021C0041F20021CDF22001029A4FF2FF13C2F6F7
:10022C00DF73D2185212521E02DF01905DF804EBFC
:10023C001DF1080D7047422001DFFFF7D3FF41F29B
:10024C000C00CDF220000021CDF28001016041F2C2
:10025C001800CDF220000021C1F201010160442000
:10026C0001DF41F20100CDF2200000471EF0040F27
:10027C000CBFEFF30880EFF3098001F05DBF0000C5
:10028C0053B94AB9002908BF00281CBF4FF0FF31F1
:10029C004FF0FF3000F070B9ADF1080C6DE904CEF1
:1002AC0000F006F8DDF804E0DDE9022304B0704745
:1002BC002DE9F047089E0D4604460F46002B4AD107
:1002CC008A42944665D9B2FA82F343B102FA03FC2E
:1002DC00C3F120029F4020FA02F217439C404FEAE0
:1002EC001C4E1FFA8CF5B7FBFEF1220C0EFB11779E
:1002FC0042EA074201FB05F090420AD91CEB0202CC
:10030C0001F1FF3780F01C81904240F219810239D3
:10031C006244121AA4B2B2FBFEF00EFB102244EAA5
:10032C00024400FB05F5A5420AD91CEB040400F1BC
:10033C00FF3280F00781A54240F204816444023808
:10034C0040EA0140641B00211EB1DC400023C6E9D9
:10035C000043BDE8F0878B4208D9002E00F0ED80F9
:10036C000021C6E900050846BDE8F087B3FA83F121
:10037C00002949D1AB4202D3824200F2F880841AA0
:10038C0065EB030201201746002EE2D0C6E90047B8
:10039C00DFE702B9FFDEB2FA82F3002B40F0908067
:1003AC008A1A4FEA1C471FFA8CFE0121B2FBF7F5A3
:1003BC0007FB1520220C42EA00420EFB05F090428E
:1003CC0008D91CEB020205F1FF3802D2904200F270
:1003DC00CB804546121AA4B2B2FBF7F007FB1022F1
:1003EC0044EA02440EFB00FEA64508D91CEB0404AB
:1003FC0000F1FF3202D2A64500F2BB801046A4EBFE
:10040C000E0440EA05409FE7C1F120078B4022FA19
:10041C0007FC4CEA030C05FA01F420FA07F3FD4043
:10042C004FEA1C492343B5FBF9F81FFA8CFE09FB74
:10043C0018551C0C44EA054408FB0EF5A54202FABB
:10044C0001F200FA01F00BD91CEB040408F1FF3A9D
:10045C0080F08880A54240F28580A8F102086444AF
:10046C00641B9DB2B4FBF9F309FB134445EA044445
:10047C0003FB0EFEA64508D91CEB040403F1FF3563
:10048C006CD2A6456AD9023B644443EA0843A3FBF9
:10049C000295A4EB0E04AC42C846AE4656D353D0DC
:1004AC0056B1B0EB080264EB0E0404FA07F7CA402D
:1004BC00CC401743C6E9007418460021BDE8F0870C
:1004CC00C3F1200102FA03FC20FA01F225FA01F132
:1004DC009D402A434FEA1C471FFA8CFEB1FBF7F0F4
:1004EC0007FB1015110C41EA054100FB0EF58D427E
:1004FC0004FA03F408D91CEB010100F1FF382FD2E8
:10050C008D422DD902386144491B92B2B1FBF7F5EB
:10051C0007FB151142EA014205FB0EF1914208D985
:10052C001CEB020205F1FF3816D2914214D9023DA0
:10053C006244521A45EA004138E73146304608E732
:10054C003946E6E61046FBE64845A9D2B9EB020867
:10055C0065EB0C0E013BA3E74546EAE72B4694E717
:10056C004046D1E7D0467BE7023D624432E708467D
:10057C000AE76444023842E7704700BF30B50023F5
:10058C0095B0CDE90A33CDE90C33CDE90333CDE990
:10059C000533214901930793086C204A40F08050A1
:1005AC000864096C01F08051019101990293136860
:1005BC0043F440431360136803F440430122029355
:1005CC004FF48033CDE908230423022402981093BE
:1005DC004FF48001A822072308A8CDE90E41CDE9EC
:1005EC001124139302F044FE08B172B6FEE70F22F9
:1005FC000346CDE903244FF4A0554FF4805203A8D1
:10060C000521CDE90535079203F04AF808B172B619
:10061C00FEE715B030BD00BF00380240007000404E
:10062C002DE9F04FC74CDFF84883636A4FF0E022A6
:10063C0043F4C0236362936843F001039BB093605F
:10064C0001F010FFFFF79AFFD4F8FC20BE4BBF4817
:10065C0022F08072C4F8FC20D4F8FC2042F08072A6
:10066C00C4F8FC201A68002622F001021A605E60B1
:10067C001A6842F001021A60CDE90D66CDE90F66E9
:10068C0005961196D8F8303043F01003C8F8303086
:10069C00D8F8303003F010030593059B0696D8F874
:1006AC00303043F00403C8F83030D8F8303003F061
:1006BC0004030693069B0796D8F8303043F02003CA
:1006CC00C8F83030D8F8303003F020030793079B7C
:1006DC000896D8F8303043F08003C8F83030D8F89A
:1006EC00303003F080030893089B0996D8F830301B
:1006FC0043F00103C8F83030D8F8303003F0010370
:10070C000993099B0A96D8F8303043F00203C8F8D5
:10071C003030D8F8303003F002030A930A9B0B9662
:10072C00D8F8303043F04003C8F83030D8F83030C7
:10073C0003F040030B930B9B0C96D8F8303043F02E
:10074C000803C8F83030D8F8303003F008033246CC
:10075C000C934FF400710C9B02F0B8FB7C48062103
:10076C00012202F0B3FB7A483246082102F0AEFBBC
:10077C0078483246A02102F0A9FB774832464FF464
:10078C00405102F0A3FB7548324646F2082102F0B4
:10079C009DFB01227248802102F098FB14237148C2
:1007AC000D930DA94FF444130E934FF028090F9697
:1007BC0002F048FA6B480F960DA90124CDE90D966D
:1007CC0002F040FA402367480F940DA9CDE90D368D
:1007DC0002F038FA4FF420425D480D920DA94FF407
:1007EC00041A4FF4804BCDE90E6402F02BFA5848F2
:1007FC000F940DA9CDE90DBA02F024FA4FF4E07272
:10080C0052480D920DA94FF40077CDE90E6402F019
:10081C0019FA4E4810960DA9CDE90E460D9702F027
:10082C0011FA0E224A480D920DA9CDE90E461096EA
:10083C0002F008FA4FF4901246480E920DA90D944E
:10084C000F9602F0FFF9A02242480D920DA9042543
:10085C00CDE90E46109602F0F5F941480D950DA91B
:10086C00CDE90E6602F0EEF94FF440523A480D9283
:10087C000DA9CDE90E46109602F0E4F937480F9415
:10088C000DA9CDE90D5602F0DDF946F208223348E8
:10089C000D920DA9CDE90E46109602F0D3F9302237
:1008AC002D480D920DA9CDE90E6402F0CBF9CDE9DE
:1008BC000EA629484FF0800A0DA9CDF834A002F0FD
:1008CC00C1F927480DA9CDE90DA4CDE90F6602F0B9
:1008DC00B9F932463146082001F014FE082001F027
:1008EC004FFE324631460A2001F00CFE0A2001F080
:1008FC0047FE32463146172001F004FE172001F066
:10090C003FFE32463146484601F0FCFD484601F0B8
:10091C0037FE0496D8F83030134843F48003C8F8F7
:10092C003030D8F83030C0F808A003F480030493BA
:10093C00049B0E4B03604FF4805A4FF480634FF0CE
:10094C00030817E000ED00E0001000E00014024086
:10095C000008024000000240000C02400018024057
:10096C000004024000100240EC0100201064024020
:10097C0000380240C0E90766C0E90B66C0E9043ADA
:10098C00C0F818B04660C7604562C0F8288001F016
:10099C0083FE08B172B6FEE7834602462146382034
:1009AC0001F0B0FD382001F0EBFD5A4621463B200A
:1009BC0001F0A8FD3B2001F0E3FD5A4621464520FD
:1009CC00B94E01F09FFD452001F0DAFDB74A3260C7
:1009DC004FF4C0724023B2614FF40062C6E9014B80
:1009EC007361C6F824A00723C6F81CB04FF0020AA6
:1009FC0032624FF0100B4FF400520DA93046CDE986
:100A0C0012AAF5600F95CDF84480CDF834A00E9362
:100A1C001093C6F810B0B26203F0D4FE814608B150
:100A2C0072B6FEE7A2490390C1E9024008234FF6D3
:100A3C00FF7230464B600C6003F0E6FE204601F07E
:100A4C003DFD9B4908234FF6FF723046C1E9013446
:100A5C00C1F800A0C1F80C9003F0D6FE944908230D
:100A6C004FF6FF723046C1E90135C1F80080C1F87C
:100A7C000C9003F0C9FE4FF40C728D49039203984D
:100A8C00C86008234FF6FF723046C1E901340D608F
:100A9C0003F0BAFE40F20C51304603F0D3FE342280
:100AAC0049460DEB020004F079FB824DDFF840E281
:100ABC00A5F834904FF00042C5E900E24FF08042B7
:100ACC00AA608F226A614FF4B27A1B2240F2BA6399
:100ADC00C5E907A240F21B32C5E909324FF4E061C7
:100AEC0040F21E322846C5E90B12C5E90399C5F838
:100AFC00188085F8369002F081FA0723024608B177
:100B0C0072B6FEE7159340F256530E9317934FF4BB
:100B1C004073109318930526FF23CDE911634FF40E
:100B2C00C0630D900F901390ADF864008DF86600C3
:100B3C0014930DA94FF050432846169302F0CEFAA9
:100B4C0008B172B6FEE7024601904FF4B061284638
:100B5C0002F050FB5849019B4FF48072284602F07A
:100B6C00F3FA014608B172B6FEE7284602F024FB00
:100B7C00034608B172B6FEE72A685048D2F88410D2
:100B8C004F4D41F00101C2F88410C0E90233C0E9B5
:100B9C0006330361536B43F0080353634FF4E133A3
:100BAC00C0E900530C23436103F034FF054608B140
:100BBC0072B6FEE74348202102F082F90128024672
:100BCC0051D04048594602F07BF90128024644D0E6
:100BDC003D483946224602F079F93C482246082124
:100BEC0002F074F93A483B4B8561C0E90035C0E925
:100BFC000255C0E9045503F091FB08B172B6FEE74B
:100C0C0033484FF4006103F0A7FB044608B172B6F9
:100C1C00FEE72D484FF40071224602F057F92B489D
:100C2C002246082102F052F92B482C4984624FF4D9
:100C3C008272C0E9001210264FF40072C0E9062639
:100C4C000A22C0E90244C0E90444C0E90844C26273
:100C5C0003F010FE68B172B6FEE71C48082102F0E2
:100C6C0035F972B6FEE71848394602F02FF972B61C
:100C7C00FEE71B481B4B036001F0FAFC024608B16F
:100C8C0072B6FEE71848194901607C21C0E90121C0
:100C9C0040F69F71C0E90312C0E9052202F036FF4D
:100CAC00044638B372B6FEE758040020400100A099
:100CBC00D40100200C03002018520008E40400208A
:100CCC0000100140000C02400014024000080240D9
:100CDC00D4030020002C01408C040020003C004078
:100CEC00E401002000300240B40300200028004042
:100CFC0000680140394D1190CDE90D00CDE90F0090
:100D0C0001222846042102F0E1F82846012208219C
:100D1C0002F0DCF831462846012202F0D7F82846CA
:100D2C000122202102F0D2F83C221123CDE90D231F
:100D3C000DA902232846CDE90F4301F083FF4FF4A0
:100D4C00FA7001F0BBFB2648264FDFF8B090C56265
:100D5C004FF004084FF4005B4FF4804A08234563BE
:100D6C00C7634764C0F82890A0F83080A0F840B062
:100D7C00A0F848A0038700F0EFF91B482023C0E936
:100D8C000A950686A0F840B0A0F848A04563C76352
:100D9C004764038700F0E0F901F01AFC134B144987
:100DAC000E93144B01250DA8CDE90F13ADF834505B
:100DBC0001F02CFC104B0E930DA815238DF83C3034
:100DCC008DF8355001F022FC404601F00FFCFFF786
:100DDC0007FA20461BB0BDE8F08F00BF00100240A0
:100DEC004C05002000180240A0050020001020D067
:100DFC001500000300010100000040D02805002070
:100E0C00102805D0B0F5804F08D0042803D07047C7
:100E1C00064800F0BFB8064800F0BCB8054A536855
:100E2C0043F080535360BFF36F8F7047A0050020D1
:100E3C004C05002000ED00E072B6FEE74A000223EC
:100E4C0042F4806270B503750446028308230122C4
:100E5C0011F0010F18BF0132013B4FEA5101F7D1DC
:100E6C00238BE06C520202F400729BB213430122FA
:100E7C002383627718B1B4F8501002F027F8104DA4
:100E8C00218EE06A002202F021F86E6802F0A6FCC6
:100E9C000C4BA3FB00239B0C952203FB02F26B680B
:100EAC009B1B9342FBD3218F606B002202F00EF848
:100EBC00218EE06A0122BDE8704002F007B800BF45
:100ECC00001000E083DE1B4370B50378856A022BAB
:100EDC000E460BD02B686A68013303F00F039A425D
:100EEC0003D02A682A4411722B6070BD044601F0AD
:100EFC00DFFA6368C31A052B33D8A3685A1C234442
:100F0C00A2601E7323699342EFD8237B002213F057
:100F1C00C006A260E9D1AA69607B13F0100FC2F37E
:100F2C000B01C2F30B3220D10144E869884296BF11
:100F3C0000F1FF30C1F30B01C0F30B01A07B9C0649
:100F4C0019D5A0F58070821816D50024DA059806FC
:100F5C0002F0407300F0806213430B442344AB61F6
:100F6C0070BD606001220023C9E7A0F580704118B4
:100F7C00DBD53146E2E70244286A054C904296BF25
:100F8C0000F1FF3004EA023404EA0034DEE700BF6B
:100F9C0000F0FF0070B5037D012B0446DDB22BD0B1
:100FAC00022D13D005B170BD018EC06A01F088FF0F
:100FBC000128F8D1E36C2075002BF4D0B4F8501054
:100FCC002A461846BDE8704001F080BF018EC06A09
:100FDC0001F076FF0028E6D1258BADB2002D3DD077
:100FEC00228B218F606B02F0010201F06FFF238BCB
:100FFC00C3F34E03238370BD018EC06A01F060FF02
:10100C000028D0D1218F606B01F05AFF638B9BB20B
:10101C000B2B064643D0237F012BDAB22BD0638BEC
:10102C00013B9BB26383638B9BB2002BBBD10B2325
:10103C006383237F1BB194F82430002B49D1E18AC0
:10104C002046C9B2FFF740FFE06C0028ABD0B4F8E3
:10105C0050100022BDE8704001F038BF218F606B4A
:10106C0001F02EFF003818BF0120830063770B229C
:10107C002575628370BD638B9BB2022B1FD9E38AEB
:10108C00C3F34E03E382E38A9BB238B343F080038D
:10109C000128E382C3D1236A01332362BFE7E06CEA
:1010AC0020B1B4F850102A4601F010FF002E18BFE2
:1010BC0002250023012225772262E382AFE7638BAE
:1010CC009BB2022B0CD0731E18BF01235B0023773D
:1010DC00A5E7FE212046FFF7B1FEB5E7E3829EE7C8
:1010EC0094F82430002BEED0236A60B913F0010F72
:1010FC0018BF03222277237F032B90D1FE21204699
:10110C00FFF79CFE8BE713F0010F08BF0322227739
:10111C00F1E700BFF8B5836A0F4659681A68914227
:10112C0008D059685A681944013202F00F02087A43
:10113C005A60F8BD064600240120A742044407D09B
:10114C0001F0BCF9B36A5D681A689542E9D1F3E71E
:10115C004FF0FF30F8BD00BFF8B5836A018E05462D
:10116C000022027002751A60C06A5A60EA6401F0CB
:10117C00ADFE012001F0A2F9298EE86A012201F0EE
:10118C00A5FE05230B210122698385F824202B77EA
:10119C0003276B770A2001F091F9F2212846FFF71B
:1011AC004DFE012001F08AF9AB6A59681A68914228
:1011BC0000F0BF8059685A6819440132097A02F06C
:1011CC000F02FA295A6040F0C28059681A6891429D
:1011DC0000F0068159685A6819440132097A02F004
:1011EC000F02AB295A6000F00C81002940F02181DC
:1011FC00686CB5F8482085F824100323E864A5F83A
:10120C00502069702B61F3212846FFF717FEAB6A5B
:10121C0059681A68914208BF142400F0D7805968A5
:10122C005A6819440132097A02F00F02FA295A60FD
:10123C0040F0E680C8212846FFF700FEAB6A5968EB
:10124C001A68914200F0938159685A681944013226
:10125C00097A02F00F02FA295A6040F0D180F3218A
:10126C002846FFF7EBFDAB6A59681A68914200F00B
:10127C008F8159685A6819440132097A02F00F02B9
:10128C00FA295A6040F0BC8064212846FFF7D6FD4D
:10129C00AB6A59681A68914200F0588159685A68CB
:1012AC0019440132097A02F00F02FA295A6040F00F
:1012BC00A780F3212846FFF7C1FDAB6A59681A686D
:1012CC00914200F0768159685A6819440132097AC2
:1012DC0002F00F02FA295A6040F092805021284601
:1012EC00FFF7ACFDAB6A59681A68914200F0728145
:1012FC0059685A6819440132097A02F00F02FA2926
:10130C005A607DD1F2212846FFF798FD142128461A
:10131C00FFF700FFFA2873D114212846FFF7FAFED5
:10132C00C3B2032B40F09480012204236A702B611A
:10133C008EE01424012001F0C1F8AB6A59681A68D8
:10134C0091427FF437AF013CA4B2002CF2D10226BB
:10135C00FF212846FFF772FDAB6A59681A68914263
:10136C0000F0948059685A6819440132097A02F0E5
:10137C000F02FA295A6004D0BEB1AA2915D0013E39
:10138C00E6E74FF47A7001F099F8AB6A59681A687D
:10139C00914200F09D805A681A44117A5A680132C1
:1013AC0002F00F025A60002EE7D159681A68914278
:1013BC007ED05A685A68013202F00F025A60013F1F
:1013CC007FF4E8AE01E7013CA4B2CCB1012001F0FE
:1013DC0075F8AB6A59681A6891427FF420AFF2E74E
:1013EC001424012001F06AF8AB6A59681A6891421A
:1013FC007FF4F0AE013CA4B2002CF2D100232B7090
:10140C00F8BD59681A68914200F0918059685A6881
:10141C0019440132097A02F00F0283295A60EDD186
:10142C000123E96BB5F840202B70E964A5F8502036
:10143C00F8BD0329E2D16B6CB5F84810EB640020C1
:10144C000122042385F82400A5F850106A702B6142
:10145C0001F02EF8AB6A0022C5E9010240F25651A8
:10146C004FF44072C3E907122846F421FFF7E6FC5B
:10147C00AB6A59681A68914244D05A685A6801326A
:10148C0002F00F025A6002232B70F8BD14240120C5
:10149C0001F014F8AB6A59681A6891427FF462AF94
:1014AC00013CA4B2002CF2D1002E7FF468AF7CE793
:1014BC001424012001F002F8AB6A59681A689142B1
:1014CC007FF477AF013CA4B2002C3FF478AFF0E787
:1014DC001424012000F0F2FFAB6A59681A6891429B
:1014EC0008D059685A681944013202F00F02097A7F
:1014FC005A6041E7013CA4B2002CEAD1002E7FF4E3
:10150C003EAF52E71424012000F0D8FFAA6A5168BC
:10151C001368994206D053685368013303F00F03E4
:10152C005360B0E7013CA4B2002CECD1ABE714241F
:10153C00012000F0C3FFAB6A59681A6891427FF42E
:10154C0065AF013CA4B2002CF2D157E7142404E09F
:10155C00013CA4B2002C3FF453AF012000F0AEFFCD
:10156C00AB6A59681A6891427FF498AEF0E714247C
:10157C0004E0013CA4B2002C3FF442AF012000F087
:10158C009DFFAB6A59681A6891427FF45DAEF0E733
:10159C00142404E0013CA4B2002C3FF431AF012030
:1015AC0000F08CFFAB6A59681A6891427FF461AE07
:1015BC00F0E7142404E0013CA4B2002C3FF420AF6B
:1015CC00012000F07BFFAB6A59681A6891427FF4E6
:1015DC007AAEF0E71424012000F070FFAB6A596872
:1015EC001A6891427FF484AE013CA4B2002CF2D173
:1015FC00F8BD00BF2DE9F04F51F8040B5FFA80FBEA
:10160C000BF1030AADF2444DC0F307494FEAAA0AA5
:10161C005748DDF8685417461E4610AA0AFB09F312
:10162C0001F0D2F852480122002101F097F900286C
:10163C0062D1C6F53F7303334FF4B062002F02FB47
:10164C0003F63B46B8BFFB1C23F0030306F15046E0
:10165C001E447B4207F0030203F00303019258BFC0
:10166C005A4293440BF1030B4FEAAB0B0BF1FF33D4
:10167C000393B9F1000F3FD04FF4B06303FB196330
:10168C0002934FEA8A03C2F104080593DFF8E09055
:10169C004FEA8B0310ACD7004FEAC808049307AA93
:1016AC0031465B46484601F08FF80122002148463E
:1016BC0001F054F900BB019B13BB049B06AAE01874
:1016CC0054F8043B5168022D0CBF4B400B43A04215
:1016DC0042F8043FF4D1324607A95B46484601F074
:1016EC0073F801220021484601F038F920B9029B19
:1016FC00A6F5B0669E42D2D10DF2444DBDE8F08FF6
:10170C002046079950F8043B022D03FA07F20CBF50
:10171C004A400A43BAF1010F079226DD059A0DF1F2
:10172C001C0C1444194650F8043B21FA08F103FA36
:10173C0007F20A44DCF80410022D0CBF4A400A439D
:10174C00A0424CF8042FEDD1524603999142C2D3DA
:10175C0007A923FA08F351F82210022D0CBF5940A7
:10176C00194307AB43F82210B5E704460122ECE716
:10177C00EC0100202DE9F04F43EA0004144395B02E
:10178C0000F1D080141840F25555AC4200F3CA80D9
:10179C001E9E0E4300F1C6805E18B6F5407F80F2A7
:1017AC00C1801E9E9619AE4200F3BC801F9D002D79
:1017BC00C0F2B8805D19B5F5407F80F2B380A410FB
:1017CC00A4EBA004A40004941E9C04F0030C1F9C26
:1017DC0040F2FF2706F00306791AF6003F1B4FF084
:1017EC00FF3404FA06F64FF4B065079620F00306B2
:1017FC0000F0030005FB0166A0EB0C0100911E99A3
:10180C004FEACC0021F0030105FB071104FA00F7A5
:10181C00079808977840891B06F15044039000F113
:10182C00FC80834800FB034301932346019DAC429B
:10183C0078D0009D0E92C5EB4574E40026460594C5
:10184C004FF0FF34B4400994099EF6432C1D0C96BE
:10185C00049E00294FEAC40401F1040506940C46C9
:10186C00B8BFCC1CAD1948BF033525F00305139543
:10187C00059D6F42009DC5F10406049D491948BFA2
:10188C0003314FF0FF3821F0030108FA07F80A91F1
:10189C006FEA080189460499B1F1040E48BF01F1C1
:1018AC00FF3E24F003042EF0030E211D71440B9116
:1018BC0002EB0C0102910499051E61444FEAC60625
:1018CC00B8BF033525F003059E440D91CC46B346B5
:1018DC0012E0029A032A28DC1968185901FA0BF253
:1018EC00F9400A43039942400A4042401A51019A76
:1018FC002B449342AE4415D0009A002AE9DA1868BA
:10190C000599069E1A5900FA01F1F040014302981C
:10191C00032804EB030947DC039851400140514074
:10192C001951E4E715B0BDE8F08F049A0A9E985857
:10193C009A5900FA0BF1F84041EA000908EA09004B
:10194C00079942400A4003F1040A4240F2459A5179
:10195C000CEA090116D80B9A704602EB03095E4695
:10196C0050F8042902FA06FBFA404BEA020208EA94
:10197C00020B4BEA0101824549F8041D0CEA0201F5
:10198C00EED9B346186853F8049000FA0BF2F840FD
:10199C00024302EA08020A43089982EA09020A4051
:1019AC0082EA09021A51A2E7089E81EA020030403D
:1019BC005040049A18510C9E181D03EB020A8245E4
:1019CC0001EA06011CD3CDE90F7CCDE911B4099FC6
:1019DC00069CDDF814C050F8042B02FA0CFBE24014
:1019EC004BEA020207EA020B4BEA0101824549F875
:1019FC00041F06EA0201EED2DDE90F7CDDE911B429
:101A0C00DDE90D2082427FF772AF1398079E1A58BA
:101A1C004A4032404A401A5069E72846044D013B7F
:101A2C0005FB034304F5B06401941C46FEE600BFBD
:101A3C0080FAFFFF10B582B01A4B00220092586C4E
:101A4C0040F4804058645C6C04F480440094009C26
:101A5C0001921C6C44F080541C641B6C03F080538A
:101A6C00019301216FF00A00019B00F04BFD002255
:101A7C0001216FF0090000F045FD00220F216FF0ED
:101A8C00040000F03FFD002201216FF0030000F084
:101A9C0039FD00220F216FF0010002B0BDE81040AB
:101AAC0000F030BD003802400B4B02689A4200D067
:101ABC00704782B000220192D3F8302842F4805251
:101ACC00C3F8302803F500631B6B03F480530193B8
:101ADC00019B02B0704700BF003002402DE9F0437B
:101AEC00302299B0044600210DEB0200CDE907111C
:101AFC00CDE909110B9103F051FB6C4B22689A4212
:101B0C0002D019B0BDE8F0830821A02202230CA852
:101B1C000C911092129301F087FE002840F0C380C4
:101B2C000024634B00945A6C624842F080625A6401
:101B3C005A6C02F080620092009A01941A6B42F087
:101B4C0020021A631A6B02F020020192019A02948D
:101B5C001A6B42F001021A631A6B02F00102029234
:101B6C00029A03941A6B02252A431A631A6B2A40B1
:101B7C000392039A04941A6B42F040021A631A6B94
:101B8C0002F040020492049A05941A6B42F004028B
:101B9C001A631A6B02F004020592059A06941A6BEA
:101BAC0042F008021A631B6B089503F008030E261B
:101BBC00069307A94FF4806303270793CDE90944E3
:101BCC00069B0B9601F03EF841F6480307A93A48EC
:101BDC000793CDE90854CDE90A7601F033F81023C8
:101BEC0007A9354807934FF00908CDE90854CDE90A
:101BFC000A4601F027F807A93048CDF82C80CDE92A
:101C0C000775CDE9094701F01DF807A94FF470637A
:101C1C002A480793CDE90854CDE90A7601F012F869
:101C2C004FF4046307A9264807934FF08009CDE9C8
:101C3C000854CDE90A7601F005F807A92048CDF83B
:101C4C001C90CDE90854CDE90A4600F0FBFF402377
:101C5C0007A91C480793CDE90854CDE90A4600F0C2
:101C6C00F1FF07A917480B96CDE90795CDE9094770
:101C7C0000F0E8FF07A9082313480793CDE908549F
:101C8C000B960A9700F0DEFF4FF4A0530C48089512
:101C9C0007A9CDE90947CDF82C80079300F0D2FFB6
:101CAC0019B0BDE8F083FFF7C7F839E700680140C9
:101CBC0000380240001402400000024000040240C0
:101CCC000018024000080240000C024010B5044607
:101CDC008CB030220021684603F060FA0B4B22686E
:101CEC009A4201D00CB010BD094B0A9320226846D1
:101CFC00009201F099FD28B9064B0122C3F83C2E45
:101D0C000CB010BDFFF798F8F6E700BF00280040B4
:101D1C0000031000000047422DE9F043544B0268C9
:101D2C0089B000249A42CDE90344CDE905440794D7
:101D3C0002D009B0BDE8F08303F5863300945A6CE9
:101D4C004C4E42F400625A645A6C02F400620092E7
:101D5C00009A01941A6B42F004021A631A6B02F097
:101D6C0004020192019A02941A6B42F008021A635F
:101D7C001B6B4FF00C0803F00803029303270DEBC9
:101D8C0008014FF002094FF4F85305463A48039303
:101D9C00CDF81C80029BCDF81090069700F052FFF6
:101DAC003648CDF81C800DEB08014FF00408CDE946
:101DBC000547CDF81090CDF80C8000F043FF4FF4A0
:101DCC0000024FF40013C6E90B232D4AC6F82480F9
:101DDC004FF00063C6E900234FF480624FF4805348
:101DEC00C6E9042330464FF480422023C6E902445E
:101DFC00C6E906233462B76200F04EFC90BB214C5E
:101E0C0021492E644FF000620023C4E900124021E6
:101E1C004FF48062C4E9021322614FF480514FF4F5
:101E2C008042C4E905122022C4E9072304210323BC
:101E3C00C4E909134FF400024FF400132046C4E91F
:101E4C000B23B56300F028FC78B900221146312031
:101E5C00EC63A56300F056FB312000F091FB09B058
:101E6C00BDE8F083FEF7E8FFC9E7FEF7E5FFECE716
:101E7C00002C01404C02002000080240000C0240E3
:101E8C0058640240AC020020A064024030B5214BE3
:101E9C00026889B000249A42CDE90344CDE9054497
:101EAC00079401D009B030BD03F5FE3300941A6CD1
:101EBC00194842F400421A641A6C02F4004200926F
:101ECC00009A01941A6B42F008021A631A6B02F022
:101EDC0008020192019A02941A6B02252A431A6392
:101EEC001B6B04952B400293402303A90393029B85
:101EFC000523079300F0A6FE182206230748079334
:101F0C0003A9CDE90325CDE9054400F09BFE09B0FA
:101F1C0030BD00BF003C0040000C024000040240F9
:101F2C0030B5194A016889B000239142CDE90333D9
:101F3C00CDE90533079301D009B030BD02F59432D9
:101F4C000193516C41F010015164506C00F0100081
:101F5C00019001980293136B0C4843F00103136337
:101F6C00136B03F001030293032207234FF4C065A4
:101F7C0003A902240395CDE90623029D049400F0E5
:101F8C0061FE09B030BD00BF0010014000000240EE
:101F9C002DE9F0412C4B86B01C6800220392002CDA
:101FAC004FD12A4A00944FF00108C3F80080936B7C
:101FBC00274843EA08039363936B03EA0803022759
:101FCC004FF63F0203260C25009301A90192009BBA
:101FDC000297CDE9046500F035FE1E48059501A970
:101FEC00CDE90187CDE9034600F02CFE48F233130E
:101FFC001948019301A9CDE90274CDE9046500F0FB
:10200C0021FE4FF683731548019301A9CDE90274A3
:10201C00CDE9046500F016FE4CF2037310480193F1
:10202C0001A9CDE90274CDE9046500F00BFE602333
:10203C000C48029701A9CDE903460595019300F0E0
:10204C0001FE06B0BDE8F081F40500200038024026
:10205C000014024000080240001802400010024028
:10206C00000C024000040240FEE700BFFEE700BF88
:10207C00FEE700BF074B9A6AD20400D4FEE79A6AC7
:10208C0042F480529A625A6842F080525A60BFF30E
:10209C006F8F704700ED00E0704700BF734613F080
:1020AC00100F03F00F0214BF202368230D2A16D142
:1020BC00C3F1805303F5803300224FF0FF30C3E9A6
:1020CC000022C3E90222C3E90420054909684FF044
:1020DC008072C3E9061283F30988BFF36F8F7047D0
:1020EC00001020D000F0D8B9042000F0F3BE00BFDF
:1020FC00102000F0EFBE00BF802000F0EBBE00BF50
:10210C004FF4804000F0E6BE014802F023BA00BF55
:10211C00D4030020014800F0BDBC00BFEC0100203E
:10212C00014800F0B7BC00BF4C020020014800F091
:10213C00B1BC00BFAC020020F0B5836913F8023CBF
:10214C00ADF5005D013B85B00446062B14D8DFE8E5
:10215C0013F02A0047008F00D700D100DE001700D3
:10216C0020607F480122082100F0B0FE7D4800224B
:10217C004FF4007100F0AAFE0DF5005D05B0F0BD46
:10218C00836862680068E168029199B21B0CCDE922
:10219C00003193B281B2120C000CFFF7EBFA0DF583
:1021AC00005D05B0F0BD704D0468704E6D4805F1D2
:1021BC0018074FF4007103E055F8040F36F8021FAE
:1021CC0014F001034FF0010208BF1A4600F07EFE26
:1021DC00AF424FEA6404EFD10DF5005D05B0F0BDE0
:1021EC004FF400715F48012200F070FE6168A36833
:1021FC00B1F1005F03D2102B00F2968004A9226883
:10220C005B4801F03BFD0028AAD12B220123584D3D
:10221C0022706370A070E07007E000F04FF9236843
:10222C005A1E2260002B00F09180284602F026F9FD
:10223C000346042B4FF00100EFD12368002B0CBF99
:10224C000346002323608CD06168B1F1005F8DD20E
:10225C00A3685B029D08002B88D004AB0022CC1A2B
:10226C001919013253F8040B08609542F8D87DE730
:10227C004FF400713B48012200F028FE6168A3680E
:10228C00B1F1005F0FD2102B4ED85A0295084AB10B
:10229C0001EB850504AA08460431006842F8040BDA
:1022AC008D42F8D104A92268314801F087FD00283D
:1022BC007FF456AF2B2201232D4D22706370A0703A
:1022CC00E07006E000F0FAF823685A1E2260002B3A
:1022DC0041D0284602F0D2F80346042B4FF00100FF
:1022EC00F0D12368002B0CBF0346002323607FF43E
:1022FC003DAF36E71F4B03600DF5005D05B0F0BD3B
:10230C0000F0D6F820600DF5005D05B0F0BD8268D8
:10231C00C36841680068009393B2120CFFF76AF926
:10232C000DF5005D05B0F0BD0D480122082100F04F
:10233C00CDFD00220B484FF4007100F0C7FD0023C7
:10234C00012222706370A370E37015E72370637031
:10235C00A370E37078E723706370A370E37005E7F4
:10236C0000080240001402402856000818560008C5
:10237C00D403002028050020054BD3F888204FF00B
:10238C00005142F47002C3F888209960704700BF76
:10239C0000ED00E0DFF858D016481749174A002323
:1023AC0000F021F816481749174A002300F01BF8D3
:1023BC00164A174C002301E013600432A242FBD3EF
:1023CC00FFF7DAFF02F0F2FE124880F309884FF0B3
:1023DC00020080F31488BFF36F8FFEF721F970476A
:1023EC00D458C4500433C4188C42F9D3704700003D
:1023FC000000032000000020AC01002000000008B9
:10240C00AC010020B801002090560008B801002053
:10241C00FC05002000000110FEE7000038B50E4A54
:10242C000E4B12781B6805464FF47A70B0FBF2F035
:10243C00B3FBF0F000F0B2F808B90F2D01D9012070
:10244C0038BD0446024629464FF0FF3000F05AF8DA
:10245C00034B20461D6038BDB0010020AC010020AC
:10246C00B401002008B50B4B1A6842F400721A60D4
:10247C001A6842F480621A601A6842F480721A6018
:10248C00032000F02DF80A20FFF7C8FFFFF7D2FA5F
:10249C00002008BD003C0240034A044B11681B7825
:1024AC000B441360704700BFF8050020B0010020FA
:1024BC00014B1868704700BFF805002038B504467A
:1024CC00FFF7F6FF631C054602D0044B1B781C4437
:1024DC00FFF7EEFF431BA342FAD338BDB001002037
:1024EC000749CA6803024FF6FF0003F4E063024099
:1024FC00134343F0BF6343F40033CB60704700BF1A
:10250C0000ED00E01C4BDB68C3F3022300B5C3F104
:10251C00070EBEF1040F03F1040C28BF4FF0040E9C
:10252C00BCF1060F1BD9033B4FF0FF3C0CFA03FC2C
:10253C0022EA0C024FF0FF3C0CFA0EFC21EA0C01D3
:10254C009940002841EA02010CDB00F160400901CE
:10255C0000F56140C9B280F800135DF804FB00225D
:10256C001346E7E7054B00F00F0009010344C9B21D
:10257C0019765DF804FB00BF00ED00E0FCEC00E018
:10258C00002807DB4109044A00F01F0001238340A7
:10259C0042F82130704700BF00E100E00138B0F193
:1025AC00807F10D210B44FF0E023084C58614FF0EC
:1025BC00F00C84F823C00022072110469A615DF8C4
:1025CC00044B196170470120704700BF00ED00E01B
:1025DC00BFF35F8F044B5A6A002122F480325A6297
:1025EC00C3F89410704700BF00ED00E0064B40F0BC
:1025FC000100C3F894005A6A42F480325A62BFF365
:10260C004F8FBFF36F8F704700ED00E01749437891
:10261C00C1F89830027822B3436800B5C1F89C30F9
:10262C00C37A90F80CC090F80FE01B0643EA0C73C9
:10263C0090F80AC0134343EACC4390F80DC0827B58
:10264C0043EA8C4343EA424390F809C0027A43EAD6
:10265C000E4343EA0C2343EA4203C1F8A0305DF871
:10266C0004FBC1F89C20C1F8A020704700ED00E0ED
:10267C0080B110B54379044603F0FF021BB101236E
:10268C006371002010BD0271FFF70EFA0123637114
:10269C00002010BD0120704738B50446FFF708FF35
:1026AC00002C67D023680022022184F8351084F8AE
:1026BC0034201A6822F0010205461A6005E0FFF783
:1026CC00F7FE431B052B39D823681A68D107F6D4BB
:1026DC00D4E90120E16802430A43D4E90451A0691A
:1026EC002A430A43E1691D6802430A4333492940DE
:1026FC00256A2A430A43616A042926D01A605A695A
:10270C0022F007021143D8B22D4A59611038A2FBAE
:10271C00005212092B4923F47F73895CE16523F085
:10272C0003035F2888BF04333F228A40A36500203F
:10273C009A600123606584F8353038BD032320226C
:10274C00626584F83530184638BDD4E90B512943FD
:10275C00114319605969A26A21F00701114341F034
:10276C000401002DCFD038B9012A23D032F0020257
:10277C00C9D108E0012038BDB0F5005F0CD0022AA9
:10278C0003D9032ABFD1EA01BDD5012340226265DA
:10279C0084F83530184638BD032AB4D801A050F857
:1027AC0022F000BF972700089327000897270008FE
:1027BC00C1270008B5F1C07FA5D1E6E73F8010F036
:1027CC00ABAAAAAA5C56000830B490F83440012C8D
:1027DC0025D0012480F8344090F83540012C05D0E8
:1027EC00002380F8343030BC02207047022480F87B
:1027FC00354000244465046885682068402D20F429
:10280C008020206063600BBFA260A160E160E26089
:10281C00236843F001030020236030BC7047022082
:10282C0030BC704770B490F83440856D012C35D0B5
:10283C0090F835404FF0010C644580F834C005D059
:10284C00002380F8343070BC02207047022680F8D8
:10285C003560046800264665266826F480262660C6
:10286C0063608368402B0EBFA260A160E260C26D02
:10287C0008BFE1603F239340AB602368026C43F0D8
:10288C00160323601AB1236843F0080323602368FE
:10289C0043F001030020236070BC7047022070BC21
:1028AC00704700BF70B50446866DFFF701FE94F8C3
:1028BC003530022B06D080236365002384F8343036
:1028CC00012070BD23681A6822F016021A605A693A
:1028DC0022F080025A61226C054642B31A6822F03B
:1028EC0008021A601A6822F001021A6005E0FFF76C
:1028FC00DFFD431B052B10D823681B6813F0010365
:10290C00F5D1E16D3F228A40184601210023B260C7
:10291C0084F8351084F8343070BD032320226265AE
:10292C00184684F83530002384F8343070BDA26C1E
:10293C00002AD3D1D6E700BF90F83530022B03D054
:10294C0080234365012070470268052380F83530E9
:10295C00136823F001030020136070472DE9F04F3A
:10296C00044683B093460191FFF7A2FD94F83530ED
:10297C00022B08D080220023626584F834300120B9
:10298C0003B0BDE8F08F23681B68D90555D4019BB3
:10299C000546002B58D0E16D10268E40D4F858A077
:1029AC00DAF800301E4236D14FF008094FF001081A
:1029BC0004272DE0BBF1FF3F08D0BBF1000F47D03F
:1029CC00FFF776FD401B584542D8E16DDAF8003030
:1029DC0009FA01F0184205D0626D42F001026265FD
:1029EC00CAF8080008FA01F0184205D0626D42F0EE
:1029FC0002026265CAF8080007FA01F0184205D015
:102A0C00626D42F004026265CAF808001E4202D1EF
:102A1C00636DDA07CED5636D13B1636DDB0729D413
:102A2C00019A0ABB30238B400121CAF808301046AA
:102A3C0084F8351084F83420A2E74FF48073012019
:102A4C00636503B0BDE8F08FE16D20268E40A5E7ED
:102A5C002021012300220320616584F8342084F8AE
:102A6C00353003B0BDE8F08F10238B40CAF8083026
:102A7C00002085E72046FFF715FFE16D30238B40E2
:102A8C00CAF808300120002384F8350084F834306B
:102A9C0076E700BFF0B583B0674A876D16680023F0
:102AAC000193C36D3D6808229A402A42044603D024
:102ABC0001680868400778D401229A402A4203D062
:102ACC002168496908066AD404229A402A4203D034
:102ADC002168096889075CD410229A402A4203D0E5
:102AEC0021680868000741D420229A402A4214D059
:102AFC0021680868C00610D5BA6094F83520052AFC
:102B0C0063D00B6813F4802F0B687ED0190340F14F
:102B1C008980E36B0BB120469847636D23B3636DDB
:102B2C00DA071AD522684549052384F8353013682D
:102B3C00A1FB061623F00103B60A136002E013682A
:102B4C00DB0704D5019B0133B3420193F7D9012272
:102B5C00002384F8352084F83430E36C23B120460C
:102B6C0003B0BDE8F040184703B0F0BDBA600A6886
:102B7C0012F4802F0A6822D1D20503D40A6822F0FD
:102B8C0008020A60226C002AAED020469047E36D02
:102B9C00AAE7BA60626D42F0040262659CE7BA6013
:102BAC00626D42F0020262658EE7086820F0040054
:102BBC000860BA60626D42F0010262657CE7110345
:102BCC00E0D5A26C002AE0D18EE70A6822F016024A
:102BDC000A604A6922F080024A61226C3AB30A68A0
:102BEC0022F008020A603F2202FA03F3216DBB6057
:102BFC000122002384F8352084F834300029B3D026
:102C0C00204603B0BDE8F040084713F4807380D130
:102C1C000A6822F010020A60012284F8352084F838
:102C2C00343076E7636C002B7FF475AF75E7A26CDC
:102C3C00002AD4D1D7E700BFAC010020B5814E1BD0
:102C4C00406D70472DE9F04F00220C68DFF860A250
:102C5C00904E85B01346894605E00133102B02F1E6
:102C6C00020200F095800121994001EA040BA14376
:102C7C00F3D1D9F804C00CF003014D1E012D40F224
:102C8C008A80032940F0CA809140CD4307683D40BB
:102C9C0029431CF4403F0160DFD000210391DAF896
:102CAC00441041F48041CAF84410DAF8441001F49D
:102CBC0080410391039923F0030101F1804101F557
:102CCC009C3103F003078D68BF004FF00F0E0EFA16
:102CDC0007FE25EA0E08704DA8422ED005F580653A
:102CEC00A84200F09F806D4DA84200F0A2806C4D70
:102CFC00A84200F0A5806B4DA84200F0A8806A4D58
:102D0C00A84200F0B280694DA84200F0B580DFF80F
:102D1C00A4E1704500F0A280DFF89CE1704500F062
:102D2C00B280DFF898E170450CBF4FF0090E4FF000
:102D3C000A0E0EFA07F748EA0708C1F80880B168CE
:102D4C006FEA0B051CF4801F0CBF29404BEA0101F4
:102D5C00B160F1681CF4001F0CBF29404BEA010163
:102D6C00F16071681CF4003F0CBF29404BEA010173
:102D7C00716031681CF4803F03F101030CBF2940E2
:102D8C004BEA0101102B316002F102027FF46BAFB0
:102D9C0005B0BDE8F08FD9F80C50D0F808E005FA72
:102DAC0002F7032505FA02F82EEA080E47EA0E0789
:102DBC008760476827EA0B0ECCF300179F4047EA61
:102DCC000E076FEA08054760C76807EA050ED9F8D1
:102DDC000870974047EA0E070229C76001FA02F112
:102DEC007FF454AF4FEAD30E00EB8E0E03F00708BE
:102DFC00DEF820700097D9F810704FEA880807FAAF
:102E0C0008F701970F2707FA08F8009F27EA080828
:102E1C00019F47EA0807CEF8207037E70325954055
:102E2C00ED43D1E74FF0010E0EFA07F748EA070819
:102E3C0083E74FF0020E0EFA07F748EA07087CE723
:102E4C004FF0030E0EFA07F748EA070875E74FF044
:102E5C00040E0EFA07F748EA07086EE74FF0070E64
:102E6C000EFA07F748EA070867E74FF0050E0EFA67
:102E7C0007F748EA070860E74FF0060E0EFA07F767
:102E8C0048EA070859E74FF0080E0EFA07F748EA28
:102E9C00070852E7003C01400000024000080240D5
:102EAC00000C0240001002400014024000180240C6
:102EBC0000380240001C0240002002400024024066
:102ECC000369194214BF01200020704702B909049C
:102EDC0081617047044A5169014200D1704708B5BD
:102EEC005061FDF78DFF08BD003C01402DE9F04716
:102EFC000468D1F804A0E3680F68D1F81890D201E7
:102F0C0002F18400C3F30B4303EB0A06231807F109
:102F1C00010C5D6805F470455D60E568C5F30B4513
:102F2C00654445EA06455D60E6689D68D1F80CC0CD
:102F3C0005F470459D60E568C6F30A066644C5F362
:102F4C000A0C8D680135654445EA06459D601D698E
:102F5C000E6925F007051D614FF0000C1E619D697F
:102F6C0091F8318091F832E0C3F818C091F83050E4
:102F7C0045EA096545EA082545EA0E459D615D6906
:102F8C0025F0FF055D614D695D61DD6925F4E06546
:102F9C0025F00705DD61D1E907521543DD619D6A16
:102FAC004D6AC3F828C09D6226B1013E062E1FD97A
:102FBC00012500E004258E6AAAEB070205FB02F24C
:102FCC00033206FB05F542EA0542CD6AD96A01F0E7
:102FDC00E021D962DA621A6B22F4FF6222F0070256
:102FEC001A631D63235843F001032350BDE8F08797
:102FFC00014D55F82650DEE764560008002869D0CC
:10300C0038B590F8A130044603F0FF02002B5CD0D9
:10301C000222236884F8A120D4E901209969024393
:10302C00D4E9035021F07041996199692A43024314
:10303C000A439A619A68284960690A409A609A68BA
:10304C0042EA0042A06902439A60DA68E0690A40E9
:10305C00DA60DA6842EA0042206A0243DA601A69EE
:10306C00606A0A401A611A6942EA0042A06A024385
:10307C001A615A69E06A0A405A615A69216B42EA3C
:10308C0000420A435A61DA6A94F8350094F8361013
:10309C0002F07F42DA62DD6A94F834202A4342EA75
:1030AC00002242EA0142DA625A6B42F006025A638B
:1030BC009A694FF0010C002142EA0C029A61C4F8A3
:1030CC00A41084F8A1C0084638BD80F8A020FEF7F3
:1030DC0005FD9DE70120704700F800F0F8B590F869
:1030EC00A030012B2DD00127022380F8A07080F88E
:1030FC00A1304FF0340C8E4604460D4616460CFBA0
:10310C00020CBEE80F000CF1380CACE80F00BEE866
:10311C000F00ACE80F00BEE80F00ACE80F00DEF8C3
:10312C000030CCF80030324620462946FFF7DEFE50
:10313C0022680023576284F8A17084F8A0301846E6
:10314C00F8BD0220F8BD00BF70B590F8A040012C6E
:10315C002FD0022480F8A1401AB3342404FB0304BA
:10316C000568A66CDB0184334FF0000E1D44F44659
:10317C000FE00C68A3B243EA0C6304F47F0423430E
:10318C000CF1010C62452B6401F104010EF1885E17
:10319C0007D0062EEDD10B6823F07F4343EA0E03D4
:1031AC00EEE70023012280F8A12080F8A030184619
:1031BC0070BD022070BD00BF90F8A020012A16D06F
:1031CC000346C90102688431022010B483F8A100BF
:1031DC00505840F01000505001240021546283F8E4
:1031EC00A14083F8A01008465DF8044B70470220FC
:1031FC00704700BF90F8A030012B33D0342310B4AB
:10320C0003FB0203022480F8A1409B6C43B3013BF7
:10321C00062B04D8144C54F8233003FB01F103683B
:10322C00124CD20184321344DA6A22F0FF5222F497
:10323C00F812DA62626A42F001026262DA6A42EA07
:10324C000142DA62626A002342F0010201216262E9
:10325C0080F8A11080F8A0305DF8044B1846704738
:10326C00A140DCE70220704764560008006801406A
:10327C00002800F0A2812DE9F0410368DD0782B03F
:10328C0004462FD59E498A6802F00C02042A00F0ED
:10329C00ED808A6802F00C02082A00F0E380636873
:1032AC00B3F5803F00F0EC80B3F5A02F00F07581F2
:1032BC00934D2A6822F480322A602A6822F48022F4
:1032CC002A60002B40F0E180FFF7F2F8064605E09B
:1032DC00FFF7EEF8801B642800F201812B689B033A
:1032EC00F6D423689F0728D5854A916811F00C0FF6
:1032FC0000F09080916801F00C01082900F08680A4
:10330C00E368002B00F00E817E4B7D4E01221A608B
:10331C00FFF7CEF8054605E0FFF7CAF8401B022878
:10332C0000F2DD8033689807F6D53368226923F004
:10333C00F80343EAC203336023681A0751D45807D1
:10334C002FD56F4A136C13F080537FD000256E4E2F
:10335C003368D90540F1B380A368012B00F0C3801A
:10336C00052B00F02C81664E326F22F00102326781
:10337C00326F22F004023267002B40F0B980FFF765
:10338C0097F841F28838074605E0FFF791F8C01B23
:10339C00404500F2A480336F9807F6D4002D40F01E
:1033AC000681A069C8B1564DAB6803F00C03082B1D
:1033BC0000F0C980534B002202281A6600F00981E4
:1033CC00FFF776F8044605E0FFF772F8001B0228B9
:1033DC0000F285802B689B01F6D4002002B0BDE87A
:1033EC00F08163690BB3474B454E0122C3F8802E25
:1033FC00FFF75EF8054604E0FFF75AF8401B022879
:10340C006DD8736F9B07F7D5236898E752685602FF
:10341C003FF576AF3A4A1268950744D5E268012A1F
:10342C0041D0012002B0BDE8F081364A344EC2F8DA
:10343C00803EFFF73DF8054604E0FFF739F8401BE6
:10344C0002284CD8736F9F07F7D4DDE70193136CF8
:10345C0043F080531364136C03F080530193019B6E
:10346C00012574E74A6850027FF519AF244A1268A7
:10347C0091037FF537AF6268002A7FF433AFD0E752
:10348C001F4A136843F480331360FFF711F81C4E86
:10349C00054604E0FFF70CF8401B64281FD833687E
:1034AC009A03F7D51DE7164920690A6822F0F8023D
:1034BC0042EAC0020A601A077FF541AF91E7336810
:1034CC0043F480733360FEF7F3FF07463368DA0585
:1034DC003FF542AFFEF7ECFFC01B0228F6D90320E4
:1034EC0002B0BDE8F081064A136F43F00103136785
:1034FC00FEF7DEFF024F064641F288380BE000BFB4
:10350C00003802400000474200700040FEF7D0FF38
:10351C00801B4045E3D83B6F9B07F7D5002D3FF44C
:10352C0040AF44E0424A434E1360FEF7C1FF0546EC
:10353C0004E0FEF7BDFF401B0228D0D83368990782
:10354C00F7D42368F9E601283FF448AF6B68E269C9
:10355C0003F4800191427FF464AF226A03F03F01CF
:10356C0091427FF45EAF616A47F6C0721A40B2EBCB
:10357C00811F7FF456AFA26A520803F44031013A1E
:10358C00B1EB024F7FF44DAFE26A03F07063B3EB23
:10359C00026F14BF0120002020E7264B1A6842F46A
:1035AC0080221A601A6842F480321A606DE7214A50
:1035BC00136C23F080531364F3E6012070471D4B0A
:1035CC001A6F42F004021A671A6F42F001021A676E
:1035DC008EE7FEF76DFF064605E0FEF769FF801BE0
:1035EC0002283FF67CAF2B689901F6D4D4E9073159
:1035FC00626A0B4343EA8213D4E90A21520843EA74
:10360C000163013A0A4943EA024301226B600A66EC
:10361C00FEF74EFF074D044605E0FEF749FF001B81
:10362C0002283FF65CAF2B689A01F6D5D5E600BFB1
:10363C000000474200380240164908B58B6803F079
:10364C000C03042B1BD0082B17D14A684B68496814
:10365C0013F4800302F03F0213D10F48C1F3881119
:10366C00A1FB0001FCF70CFE0A4B5B68C3F30143A2
:10367C0001335B00B0FBF3F008BD074808BD0748F9
:10368C0008BD0648C1F388110023A1FB0001FCF71B
:10369C00F7FDE9E7003802400024F40000127A003C
:1036AC00002800F08780484A136803F00F038B4210
:1036BC002DE9F0410D46044609D2CBB213701368C4
:1036CC0003F00F038B4202D00120BDE8F081236888
:1036DC00980714D5590704D53C498A6842F4E0523E
:1036EC008A601A0704D539498A6842F460428A60B4
:1036FC003649A0688A6822F0F00202438A60DF072C
:10370C0021D56268012A57D0931E012B2F4B1B68C1
:10371C004DD99907D8D52D4EB36823F00303134325
:10372C00B360FEF7C5FE41F28838074604E0FEF7A9
:10373C00BFFEC01B404544D8B368626803F00C035D
:10374C00B3EB820FF3D1204A136803F00F03AB42A3
:10375C0006D9EBB21370136803F00F03AB42B3D16D
:10376C0023685A0706D51949E0688A6822F4E052A2
:10377C0002438A601B0707D5144A2169936823F416
:10378C00604343EAC1039360FFF756FF0F4A104CA6
:10379C0092681049C2F303120346A25C0E48D34050
:1037AC0000680B60FEF73AFE0020BDE8F08198013E
:1037BC00B1D489E701207047044B1B689E03AAD43F
:1037CC0082E7032081E700BF003C02400038024042
:1037DC0044560008AC010020B4010020014B1868CD
:1037EC00704700BFAC010020044B05499B68054A9B
:1037FC000868C3F38223D35CD8407047003802407A
:10380C00AC01002054560008044B05499B68054A3E
:10381C000868C3F34233D35CD84070470038024089
:10382C00AC01002054560008F0B5036813F0430FA8
:10383C0083B0044611D113F00C0F6FD1980600F130
:10384C00C28013F0100300F0BB80894B94F82C203D
:10385C00C3F8E021002003B0F0BD864B864E002259
:10386C009A66FEF725FE054604E0FEF721FE431B93
:10387C00022B50D833681801F7D42368D90706D522
:10388C00D4E90112120742EA8112C6F884209A0781
:10389C0015D57949E268D1F884006568120600F004
:1038AC00E04042EA85120243C1F88420D1F88C0032
:1038BC00E26920F01F00013A0243C1F88C205B063C
:1038CC0009D5201D0BC81B066B4A43EA801343EA3B
:1038DC000173C2F88430674B674E01229A66FEF77B
:1038EC00E7FD054604E0FEF7E3FD401B022812D875
:1038FC0033681F01F7D523689DE7FEF7D9FD41F228
:10390C00883706462B6F9B0700F1A580FEF7D0FD8C
:10391C00801BB842F6D9032003B0F0BD554B564E70
:10392C0000221A67FEF7C4FD054604E0FEF7C0FD51
:10393C00431B022BEFD833689800F7D42268510749
:10394C0015D56369D6F8881020691B0601F0E04193
:10395C0043EA80130B43C6F88830D6F88C30216AC2
:10396C0023F4F853013943EA0123C6F88C301307CA
:10397C0014D5414AA369D2F8881020691B0701F0BD
:10398C00706143EA80130B43C2F88830D2F88C3054
:10399C00616A23F440330B43C2F88C30354B364EFE
:1039AC0001221A67FEF784FD054604E0FEF780FD50
:1039BC00401B0228AFD833689F00F7D523683DE73A
:1039CC00184603B0F0BD2C4B2C4D002201921A6C02
:1039DC0042F080521A641B6C03F080530193019BDC
:1039EC002B6843F480732B60FEF762FD064604E0FF
:1039FC00FEF75EFD831B022B8DD82B68D905F7D5FE
:103A0C001D4DA36A2A6F12F4407211D103F4407257
:103A1C00B2F5407F21D018498A6822F4F8128A60E6
:103A2C00154A116FC3F30B030B431367236808E7A5
:103A3C0003F440719142EBD02B6F0E4A0121C2F876
:103A4C00401E23F440730021C2F8401E2B672B6FDD
:103A5C00DA073FF552AFA36AD8E70748826823F02C
:103A6C00704121F4407122F4F8120A438260D7E7C6
:103A7C0000104742000047420038024000700040EE
:103A8C00F8B50368DC6814F0400402D0002420462A
:103A9C00F8BDDA6842F08002DA600546FEF708FDF0
:103AAC000427064609E0002CF1D1FEF701FD831B2B
:103ABC00B3F57A7F84BF6F7701242B68DB685B06D4
:103ACC00F1D52046F8BD00BF38B50368DA6822F09E
:103ADC008002DA609A68920601D5002038BDDA6857
:103AEC0022F0A002DA600446FEF7E2FC05462368E9
:103AFC00DB689B06F1D4FEF7DBFC431BB3F57A7F46
:103B0C00F5D904236377012038BD00BF002841D0CC
:103B1C0038B5437F044603F0FF02002B36D02368F0
:103B2C000220CA2153226077596220465A62FFF75D
:103B3C00A7FF236810B1FF225A6238BD99686268EA
:103B4C00256921F4E00121F04001996061699868D0
:103B5C002A430A430243E1689A6019611A69A16811
:103B6C0042EA01421A612046FFF7AEFF23680028A3
:103B7C00E1D11A6CA16922F480221A641A6C0A43EE
:103B8C0001211A646177FF225A6238BD0277FEF771
:103B9C009DF8C4E701207047836B1A68D36B43F41C
:103BAC008073D363704700BFF0B589B005460F46EC
:103BBC00FEF77EFC0023082106462868CDE9003379
:103BCC0001F052F9044610B1204609B0F0BD296D40
:103BDC002868090401F0B6F904460028F4D14FF026
:103BEC00FF32029208213022CDE903120123022276
:103BFC00069002A928680592079301F029F8286815
:103C0C0001F0C0F9044640B1DEE7426B910415D5D2
:103C1C00FEF74EFC831B013324D02868426B12F054
:103C2C002A0F0BD1426B9302EFD500F0FBFF08ABD0
:103C3C0003EB8403013443F8200CE9E7426B1207D1
:103C4C0016D4426B930716D4446B14F020040CD199
:103C5C00DDE9002140F23A5309BA12BA8363C7E98D
:103C6C000012B1E74FF00044AEE720248463ABE7C9
:103C7C0008248463A8E702248463A5E72DE9F041B6
:103C8C00044686B000297ED090F834000128C5B2D5
:103C9C0066D117461E46E26DB81900239042A36305
:103CAC0007D9A36B43F00073A363284606B0BDE8A5
:103CBC00F0810A462168DFF800E1032084F8340023
:103CCC00CB62C86B40F44A7040F00200C863206CB1
:103CDC00D0F800C003658360344BC363DCF800305C
:103CEC00C0F84CE023F0C0034FEA4628CCF8003073
:103CFC0080314FEA9803FEF795FD002835D12C4B07
:103D0C002068C3F88C55636CCDF80480012B4FF000
:103D1C0090024FF00203CDE902234FF000014FF067
:103D2C000103CDE904134FF0FF33694618BF7F023E
:103D3C00009300F08DFF012E30D98223206823637D
:103D4C00394601F0AFF838B323681A4A9A63A36B6B
:103D5C000343A3630122002384F834202363A4E7E4
:103D6C000225284606B0BDE8F08123681149DA6BBC
:103D7C0022F49572DA639963A36B43F08043A363D7
:103D8C0084F8345091E7836B012543F0006383631F
:103D9C00284606B0BDE8F081054686E781232068F9
:103DAC002363394601F06EF8CDE700BF313F0008C0
:103DBC0000802542FF054000B14400082DE9F04188
:103DCC00044686B000297DD01D4690F83430012B76
:103DDC00DFB23AD1C36D0E4600218163501998426F
:103DEC0038D82068DFF828C1032384F83430C16246
:103DFC00C36B43F4067343F00203C363E36B1965AF
:103E0C00616CC3F83CC0012918BF5202DFF804C131
:103E1C00C3F84CC0012D11465DD9A023236301F0DA
:103E2C005FF88046B8F1000F1CD02368364A9A63BD
:103E3C00A36B43EA0803A36301220023384684F8EA
:103E4C003420236306B0BDE8F0810227384606B063
:103E5C00BDE8F081A36B384643F00073A36306B052
:103E6C00BDE8F081E06B294BD0F800C022683146E8
:103E7C000126C3F88C65DCF8003023F0C00343F056
:103E8C0040036D024FF0400EC0F808E08032CCF8D1
:103E9C000030AB08FEF7C6FC30B322681A49D36B6E
:103EAC0023F4067323F00203D3639163A36B3846A8
:103EBC0043F08043A36384F83460C4F8308006B0C8
:103ECC00BDE8F081836B012743F0006383633846C0
:103EDC0006B0BDE8F0819023236300F0F3FF804629
:103EEC00B8F1000FA1D1BDE74FF0FF33009320686C
:103EFC00059690236946CDE90153CDE903884746E1
:103F0C0000F0A6FEA2E700BFFF054000008025429E
:103F1C00A53B0008B1440008704700BF704700BFC4
:103F2C00704700BF10B5846B236B822B10D02368B5
:103F3C00DA6A40F23A5022F00802DA620121986300
:103F4C00002384F8341020462363FFF7E7FF10BDED
:103F5C00206800F0D5FF03460028E8D0A26B13437D
:103F6C002046A363FFF7DCFFE1E700BF704700BF0B
:103F7C00426E10B40346940FC2F383600C70487009
:103F8C00C2F30164C2F307408C70C870C2F30720FF
:103F9C00D2B208714A719A6E140DCC80C2F30344EC
:103FAC000C72C2F3C0344C72C2F380348C72C2F304
:103FBC004034CC720020C2F300340C734873586C3C
:103FCC0000286FD1D86E40F6FC7404EA820242EAF3
:103FDC009072C0F3C2640A610C75C0F34252C0F314
:103FEC0002644C758A75C0F38244C0F3C232CC753E
:103FFC000A760C690A7E02F0070202320134944000
:10400C005C6591F808C001220CF00F0C02FA0CF25E
:10401C009A65520A04FB02F2DA65C0F380324FF45F
:10402C0000741C664A76C0F3C61200F07F008A76D4
:10403C00C8761B6FDC0FC3F341720C774A77C3F35E
:10404C008264C3F383528C770020CA77C3F3405445
:10405C00C3F3004281F8204081F82100C3F3C0343F
:10406C0081F82220C3F3803281F8234081F8242088
:10407C00C3F34034C3F3003281F8254081F8262085
:10408C00C3F38124C3F3012281F82740C3F3460311
:10409C0081F82820012281F8293081F82A205DF846
:1040AC00044B704701280FD1D86E120402F47C1215
:1040BC0042EA10420A610A69013292024FF400741A
:1040CC00C3E916425A65A8E71A68064991639A6BC8
:1040DC00012142F080529A6383F8341008465DF84F
:1040EC00044B7047FF054000F0B5002399B0CDE9B3
:1040FC000A3376220C920AAA054607CA8DE80700F5
:10410C00CDE90733099307AB0ECB286800F06EFDA1
:10411C0018B10126304619B0F0BD7D4E044601277A
:10412C002868C6F8A04000F087FD0220C6F8A070F1
:10413C00FEF7C4F92868069400F0A0FD044658B9AF
:10414C00286801F01DF880B9AF642868002100F0E0
:10415C00F9FEA0B14FF08054012685F83460AB6BAA
:10416C0030462343AB6319B0F0BD2868AC6400F053
:10417C0085FD002840F0C680AB6C012BE5D0069A7B
:10418C004FF6FE739A421FD8624E4FF6FE7712E03E
:10419C00286800F099FD21460028DBD1286800F042
:1041AC0053FD069B01330693069BBB4204464FEA24
:1041BC00D07209D842B90021286800F0C3FE3146FC
:1041CC0004460028E4D0C7E7069A4FF6FE739A42DD
:1041DC0000F29A80C4F38074012328686C64ADF8F3
:1041EC00163000F02DFD002800F086806B6C032B40
:1041FC0031D10421286800F027FD000DE8640DA9D9
:10420C002846FFF7B5FE0646002878D12A6D2868A7
:10421C001204334600F086FE08BB2A462B1D52F8CA
:10422C00104B07CA8DE8070020460ECB00F0DEFCD1
:10423C0028684FF4007100F017FE00283FF46AAFB5
:10424C002B68354A9A63AA6B01231043A8631E4658
:10425C0085F834305EE7286800F0E2FE40B10126B4
:10426C0085F83460AB6B03433046AB6319B0F0BDDB
:10427C000146286800F0E8FC034604216B672868B7
:10428C0000F0E2FC0346AB670821286800F0DCFC78
:10429C000C21E867286800F0D7FC6B6CC5F880002F
:1042AC00032BA6D028680DF1160100F027FF00287B
:1042BC00D5D16B6C032B9CD0BDF8161029652868E2
:1042CC00090400F0BBFE0028C9D10146286800F0A3
:1042DC00BBFC034604216B66286800F0B5FC034662
:1042EC000821AB66286800F0AFFC0C21E866286852
:1042FC0000F0AAFC28677CE74FF08060AFE74FF036
:10430C008050ACE7044627E74FF0807424E700BFE9
:10431C0000802542000010C1FF054000C8B110B557
:10432C0090F83430044603F0FF0273B1032384F891
:10433C0034302046FFF7D8FE28B90123A063206350
:10434C0084F8343010BD012010BD0277FDF7E4FC79
:10435C00ECE70120704700BF30B5436C0322934259
:10436C008BB0044680F834200D4625D0B1F5805F23
:10437C0022D0B1F5006F5CD000293DD0836B43F0A7
:10438C0000638363A36BF3B9D4E90512CDE907513C
:10439C0009920AAA12E90700656804958DE80700DE
:1043AC001D46D4E90213CDE9051304AA0ECA2068F0
:1043BC0000F01CFC20680DE0A36B43F08053A3635A
:1043CC00A36B002BE0D020682B4A826301231D468F
:1043DC0084F834304FF4007100F046FD30B123689E
:1043EC00254A9A63A36B03430125A3630123284643
:1043FC0084F834300BB030BD0068CDE9041100F006
:10440C0023FC820132D404A92046FFF7CDFB60B90E
:10441C00059BDB032DD5216D2068090400F092FD6E
:10442C0018B90146206800F09DFDA36B0343A363FC
:10443C00C6E700210068CDE9041100F005FC8001FD
:10444C0014D404A92046FFF7AFFB0028EDD1059B3F
:10445C0059030ED5216D2068090400F073FD002866
:10446C00E3D12068022100F07DFDDEE74FF400600F
:10447C00DBE74FF08060D8E7FF054000016D10B519
:10448C0009040446006800F08FFD014620B1A36BBF
:10449C000B430020A36310BD206800F0D5FBC0F3D4
:1044AC00432010BD10B5846BFEF7CAFB02280AD05E
:1044BC00D4E90F235B6D526D012B05D0012A03D07B
:1044CC002046FFF72DFD10BD2368104A9A63DA6B66
:1044DC0022F49D72DA63A36B43F080432046A363FE
:1044EC00FFF7CCFF0538012808D90122002384F8F6
:1044FC00342020462363FFF713FDE4E7206800F027
:10450C00FFFCA36B1843A063EFE700BFFF0540005F
:10451C0010B5846B236840F23A529A632046FFF739
:10452C00ADFF012205380023904284F83420236328
:10453C0008D9A36B204613B9FFF718FD10BDFFF780
:10454C00EFFC10BD206800F0DBFCA36B1843A063EC
:10455C00EFE700BF2DE9F04104460068256B436B83
:10456C001A0482B01DD52B0700F1C080436BDB050C
:10457C006BD54FF480738363C36B23F4434323F0F5
:10458C003A03C363C36A23F00103C362290605D54A
:10459C00AA0600F1FA80AB0700F0C98002B0BDE8B2
:1045AC00F081436BDF0523D54FF480738363C36BBA
:1045BC0023F4434323F03A03C363C36A2E0723F067
:1045CC000103C362E2D515F0220F40F0BE8040F229
:1045DC003A5383630122002384F83420204623635A
:1045EC00AC0700F0AD80FFF799FC02B0BDE8F0819C
:1045FC00436B5F042AD52E0728D5666A002ECDD0D2
:10460C00276A07F1040807F1240500E0206818F870
:10461C00043C019318F8032C43EA0223019318F885
:10462C00022C43EA0243019318F8012C01A943EA36
:10463C00026308F10408019300F0F8FA4545E5D14E
:10464C002037203EC4E90876A8E7436B426B40F262
:10465C003A231A42A2D0436B990703D5A36B43F0BC
:10466C000203A363436B1A0703D5A36B43F0080340
:10467C00A363436B9B0603D5A36B43F02003A36397
:10468C00436BDF0603D5A36B43F01003A363436BAB
:10469C009E0503D5A36B43F00803A36340F23A7362
:1046AC008363C36B23F44E7323F00203C36300F0E4
:1046BC0027FCA36B290740EA0300A0634BD42A060E
:1046CC007FF56CAF15F0300F55D115F0030569D09F
:1046DC00206C394B0365FEF72FF900283FF45EAFD1
:1046EC00206C02B0BDE8F041FFF712BFD4E90A76A6
:1046FC00002E3FF453AF07F1040807F1240500E046
:10470C00206800F08FFA08F8040C020A030C000E63
:10471C0008F8032C08F8023C08F8010C08F104080E
:10472C00A845EDD12037203EC4E90A7636E7226849
:10473C00D36A012123F00803D362204684F8341095
:10474C00FFF7EAFB02B0BDE8F08100F0D9FB0346AD
:10475C0050B920683BE70122002384F8342020461E
:10476C002363FFF7DDFB19E7A26B13432046A3631A
:10477C00FFF7D6FBEDE7E06B104B0365FEF7DCF8BB
:10478C0000283FF40BAFE06BABE700F0B9FB03463E
:10479C0000283FF400AFA26B13432046A363FFF73E
:1047AC00BFFBF8E60123A563204684F8343025636B
:1047BC00FFF7DCFBF2E600BFCD4700081D45000803
:1047CC00FFF7A6BEF0B138B590F82C300D46044674
:1047DC0003F0FF028BB12146022384F82C3051F8F0
:1047EC00040B00F047F9D4E90002294600F080F9E7
:1047FC00012384F82C30002038BD80F82D20FDF7E3
:10480C00C7FBE8E70120704770B590F82C30022BFD
:10481C000546D8B204D000F0FB04012C01D00120D5
:10482C0070BD0E46022385F82C30286800F0ACF9D8
:10483C003368022B06BF052385F82C3085F82C40F5
:10484C00002070BD38B590F82C30022B0446D8B23D
:10485C0005D094F82C30012BDDB201D0012038BDED
:10486C000223206884F82C3000F0B4F984F82C5022
:10487C00002038BD00285CD070B50446406A002882
:10488C0047D00023C4E9043394F851300022A262CB
:10489C0003F0FF01002B42D094462168A568A26961
:1048AC00266A022384F851300B6823F040030B6016
:1048BC00636805F4044503F482732B43E56805F43F
:1048CC0000652B43256905F002052B43656905F04E
:1048DC0001052B43E56906F0800E02F4007605F025
:1048EC00380533432B43120C00F0100043EA0E033F
:1048FC0002F0040243EA0C0302430B604A60CB69EA
:10490C00002023F400630122CB61606584F8512000
:10491C0070BD6368B3F5827FB6D0E061B4E7204622
:10492C0084F85010FDF7B2FAD4E9090303F4005CE3
:10493C00B3E70120704700BF0268116910B5044647
:10494C00C068A36821F440510143206911610343FD
:10495C006069D1680343E06921F4164121F00C0130
:10496C0003430B43D3605369A069274923F4407375
:10497C0003438A42536128D0244B9A4225D0FEF738
:10498C0033FFE369B3F5004F25D162681921921802
:10499C004FF000035B41A0FB0101FBF771FC1C4ACB
:1049AC002468A2FB00314909642303FB1103DB00DB
:1049BC003233A2FB0323C3F342121B0902EB011295
:1049CC0003F4F8731344A36010BDFEF71DFFE369F5
:1049DC00B3F5004FD9D0636819219A00A0FB0101EF
:1049EC009B0FFBF74DFC0A4AA2FB00135B092168E5
:1049FC00642404FB130000013230A2FB00201B01D5
:104A0C0003EB50138B6010BD0010014000140140EB
:104A1C001F85EB5160B338B590F83D30044603F078
:104A2C00FF0203B32268242384F83D30D36823F4B7
:104A3C0000532046D360FFF77FFF23681A6922F4E6
:104A4C0090421A615A6922F02A025A61DA680025EA
:104A5C00202142F40052DA60256484F83D1084F879
:104A6C003E10284638BD80F83C20FDF759FAD9E7AE
:104A7C00012070470B6830B4D3B903684C688A685E
:104A8C0023F4FF4323F07F0323431343D1E9034271
:104A9C0023431343D1E905422343D1E9075413437C
:104AAC002B434A6A23431343036030BC00207047F6
:104ABC00D1E90742036823F4F84323434C6A1343B8
:104ACC0023434A680360436823F4FF4323F07F03C6
:104ADC001343D1E902422343D1E9045413432B433A
:104AEC008A6923431343436030BC0020704700BFE6
:104AFC0030B4836802BBD1E9002403F07043013C5D
:104B0C0043EA0413013A1343D1E90242013C43EA5C
:104B1C000423D1E90454013A43EA02338A69691E39
:104B2C0043EA0143611E43EA0153013A43EA02633B
:104B3C00836030BC00207047CC684A698D6823F4D0
:104B4C007003013C23F4704343EA0433013A43EA13
:104B5C0002538360D1E90024C368013C03F0704325
:104B6C0043EA0413013A0C6913438A69691E43EA48
:104B7C000123611E43EA0143013A43EA0263C36025
:104B8C0030BC0020704700BF70B50B6815464A68F2
:104B9C00044613430069CA68800D43EA42238A68BD
:104BAC0080050343013A43EA42132361FDF780FC7D
:104BBC00064601E06B1C05D1A36913F02003F9D163
:104BCC00184670BD25B1FDF773FC801BA842F3D9C4
:104BDC00032070BD436923F47F53024623F03E0348
:104BEC0043EA410100205161704700BF84B010B40A
:104BFC000DF1080C8CE80E000B46049913430B4383
:104C0C00DDE90541426823430B4307995DF8044BEA
:104C1C0022F4FD420B4322F07F021343436004B0A5
:104C2C0000207047D0F88000704700BF0B68C0F8B8
:104C3C0080300020704700BF0323036000207047C2
:104C4C00006800F00300704714304058704700BFF4
:104C5C0010B4D1E900428B684462CC688262234371
:104C6C00D1E90441C26A234322F0F7020B431343F8
:104C7C00C3625DF8044B0020704700BF00238360C3
:104C8C000F4BC2680F491B6822F47F62A1FB031310
:104C9C0022F00F0242F480625B0A41F28831C2605A
:104CAC0001FB03F302E0426B120604D4013BFAD27F
:104CBC004FF000407047C52383630020704700BF4E
:104CCC00AC010020D34D621041F0004141F4801141
:104CDC008160184AC3681849126823F47F63A1FBEA
:104CEC00021223F00F0343F48D63520A41F2883110
:104CFC0043F0010301FB02F2C3608446531E52B120
:104D0C00DCF8342012F0450F03F1FF3301D012050B
:104D1C0004D5591CF4D14FF000407047DCF8340036
:104D2C0010F0040015BF0420C523CCF83800CCF8D3
:104D3C0038307047AC010020D34D6210474B10B493
:104D4C001B68474CA4FB03435B0A03FB02F2531E94
:104D5C004AB1426B12F0450F03F1FF3301D012053B
:104D6C0007D55C1CF5D14FF0004318465DF8044B99
:104D7C007047436B5C073DD4436B13F0010334D194
:104D8C00C52383630369DBB2994231D14269354B48
:104D9C001340002BE9D0002A2FDB510030D49400B3
:104DAC0030D4D00030D4110131D4540132D4D001DC
:104DBC0033D4110234D4540235D490023FD4D102EE
:104DCC003AD4540335D4900330D4D10343D41404CF
:104DDC003ED4500439D4910434D412F0080F14BFCB
:104DEC004FF400034FF48033BFE701228263BCE72A
:104DFC000123BAE704238363B7E74FF00073B4E7EA
:104E0C004023B2E78023B0E74FF48073ADE74FF453
:104E1C000073AAE74FF48063A7E74FF40063A4E79D
:104E2C004FF48053A1E74FF400539EE74FF48023D7
:104E3C009BE74FF4003398E74FF4004395E74FF4AA
:104E4C00804392E74FF480038FE74FF400138CE715
:104E5C004FF4801389E74FF4002386E7AC01002060
:104E6C00D34D621008E0FFFD8160C36823F47F63BB
:104E7C0023F00F0343F48A6341F28832C36010219C
:104E8C00FFF75CBF8160C36823F47F6323F00F03DB
:104E9C0043F48A6343F0010341F28832C360112169
:104EAC00FFF74CBF8160C36823F47F6323F00F03CB
:104EBC0043F48A6343F0020341F28832C360122147
:104ECC00FFF73CBF8160C36823F47F6323F00F03BB
:104EDC0043F48B6341F28832C3601821FFF72EBF75
:104EEC008160C36823F47F6323F00F0343F48B6367
:104EFC0043F0010341F28832C3601921FFF71EBF52
:104F0C0000238360C368064A23F47F6323F00F03F6
:104F1C0043F4896343F00403C3600C21FFF70EBF15
:104F2C0000E1F5058260C36823F47F6323F00F036F
:104F3C0043F4886343F0070341F28832C3600721CE
:104F4C00FFF7FCBE8160C36823F47F6323F00F037B
:104F5C0043F48E6343F0070341F28832C360372178
:104F6C00FFF7ECBE8160C36823F47F6323F00F036B
:104F7C0043F4886343F0060341F28832C360062190
:104F8C00FFF7DCBE00238360C36823F47F6323F048
:104F9C000F0343F48E6343F0030341F28832C36082
:104FAC003321FFF7CBBE00BF8160C36823F47F635E
:104FBC0023F00F0343F4896343F0050341F2883275
:104FCC00C3600D21FFF7BABE134A144B1268A3FB42
:104FDC00023241F28831520A01FB02F2531E0146A1
:104FEC004AB14A6B12F0450F03F1FF3301D01205A1
:104FFC0004D5581CF5D14FF0004070474B6B5B0744
:10500C0007D4486B10F0010014BF0123C5238B6338
:10501C007047042088637047AC010020D34D6210A8
:10502C0000238360C36823F47F6323F00F0343F4EE
:10503C00986343F00203C360FFF7C6BF8160C36887
:10504C0023F47F6323F00F0343F4996343F00103CC
:10505C00C360FFF7B9BF00BF10B4264C264B2468C1
:10506C00A3FB0434640A41F2883303FB04F464B1F7
:10507C008446631EDCF8344014F0450F03F1FF3313
:10508C0001D0240506D5581CF4D14FF000405DF832
:10509C00044B7047DCF83430580721D4DCF834006A
:1050AC0010F0010016D1DCF81030DBB2994215D1AA
:1050BC00C523CCF83830DCF8143013F4604016D02B
:1050CC005A0411D413F4004F14BF4FF480504FF412
:1050DC008030DCE70123CCF83830D8E70120D6E764
:1050EC000420CCF83800D2E74FF40050CFE71B0C6B
:1050FC001380CCE7AC010020D34D621000238360F9
:10510C00C36823F47F6323F00F0343F4886343F0F5
:10511C0003030A46C3600321FFF79EBF164A174BD1
:10512C001268A3FB023241F28831520A01FB02F2EF
:10513C00531E01464AB14A6B12F0450F03F1FF337F
:10514C0001D0100504D55A1CF5D14FF00040704722
:10515C004B6B5A070CD4486B10F0010005D14B6B0C
:10516C005B06F4D540238B63704701238B63704738
:10517C0004208863704700BFAC010020D34D62103F
:10518C004FF4D5738360C36823F47F6323F00F035C
:10519C0043F48963C360FFF7C1BF00BF02440346F9
:1051AC00934200D1704703F8011BF9E770B50D4D20
:1051BC000D4C641BA4100026A64209D10B4D0C4CBF
:1051CC0000F018F8641BA4100026A64205D170BD8F
:1051DC0055F8043B98470136EEE755F8043B9847E1
:1051EC000136F2E7885600088856000888560008F1
:1051FC008C560008F8B500BFF8BC08BC9E4670473A
:0C520C00F8B500BFF8BC08BC9E46704717
:105218000000000055000000AA000000FF00000088
:105228000024000055240000AA240000FF240000E8
:105238000048000055480000AA480000FF48000048
:10524800006D0000556D0000AA6D0000FF6D0000A4
:105258000091000055910000AA910000FF91000004
:1052680000B6000055B60000AAB60000FFB6000060
:1052780000DA000055DA0000AADA0000FFDA0000C0
:1052880000FF000055FF0000AAFF0000FFFF00001C
:105298000000240055002400AA002400FF00240078
:1052A8000024240055242400AA242400FF242400D8
:1052B8000048240055482400AA482400FF48240038
:1052C800006D2400556D2400AA6D2400FF6D240094
:1052D8000091240055912400AA912400FF912400F4
:1052E80000B6240055B62400AAB62400FFB6240050
:1052F80000DA240055DA2400AADA2400FFDA2400B0
:1053080000FF240055FF2400AAFF2400FFFF24000B
:105318000000480055004800AA004800FF00480067
:105328000024480055244800AA244800FF244800C7
:105338000048480055484800AA484800FF48480027
:10534800006D4800556D4800AA6D4800FF6D480083
:105358000091480055914800AA914800FF914800E3
:1053680000B6480055B64800AAB64800FFB648003F
:1053780000DA480055DA4800AADA4800FFDA48009F
:1053880000FF480055FF4800AAFF4800FFFF4800FB
:1053980000006D0055006D00AA006D00FF006D0053
:1053A80000246D0055246D00AA246D00FF246D00B3
:1053B80000486D0055486D00AA486D00FF486D0013
:1053C800006D6D00556D6D00AA6D6D00FF6D6D006F
:1053D80000916D0055916D00AA916D00FF916D00CF
:1053E80000B66D0055B66D00AAB66D00FFB66D002B
:1053F80000DA6D0055DA6D00AADA6D00FFDA6D008B
:1054080000FF6D0055FF6D00AAFF6D00FFFF6D00E6
:105418000000910055009100AA009100FF00910042
:105428000024910055249100AA249100FF249100A2
:105438000048910055489100AA489100FF48910002
:10544800006D9100556D9100AA6D9100FF6D91005E
:105458000091910055919100AA919100FF919100BE
:1054680000B6910055B69100AAB69100FFB691001A
:1054780000DA910055DA9100AADA9100FFDA91007A
:1054880000FF910055FF9100AAFF9100FFFF9100D6
:105498000000B6005500B600AA00B600FF00B6002E
:1054A8000024B6005524B600AA24B600FF24B6008E
:1054B8000048B6005548B600AA48B600FF48B600EE
:1054C800006DB600556DB600AA6DB600FF6DB6004A
:1054D8000091B6005591B600AA91B600FF91B600AA
:1054E80000B6B60055B6B600AAB6B600FFB6B60006
:1054F80000DAB60055DAB600AADAB600FFDAB60066
:1055080000FFB60055FFB600AAFFB600FFFFB600C1
:105518000000DA005500DA00AA00DA00FF00DA001D
:105528000024DA005524DA00AA24DA00FF24DA007D
:105538000048DA005548DA00AA48DA00FF48DA00DD
:10554800006DDA00556DDA00AA6DDA00FF6DDA0039
:105558000091DA005591DA00AA91DA00FF91DA0099
:1055680000B6DA0055B6DA00AAB6DA00FFB6DA00F5
:1055780000DADA0055DADA00AADADA00FFDADA0055
:1055880000FFDA0055FFDA00AAFFDA00FFFFDA00B1
:105598000000FF005500FF00AA00FF00FF00FF0009
:1055A8000024FF005524FF00AA24FF00FF24FF0069
:1055B8000048FF005548FF00AA48FF00FF48FF00C9
:1055C800006DFF00556DFF00AA6DFF00FF6DFF0025
:1055D8000091FF005591FF00AA91FF00FF91FF0085
:1055E80000B6FF0055B6FF00AAB6FF00FFB6FF00E1
:1055F80000DAFF0055DAFF00AADAFF00FFDAFF0041
:1056080000FFFF0055FFFF00AAFFFF00FFFFFF009C
:1056180000020800200080000020001008000000A0
:10562800001402400008024000000240000002404E
:10563800000C0240000C024000180240000000006C
:10564800000000000102030406070809000000002A
:1056580001020304000610160006101603000000DD
:10566800020000000200000002000000010000002B
:08567800010000000200000027
:085680003CACFF7F01000000BB
:04568800D101000844
:04568C00AD01000864
:0C5690000024F4000100000010000000E5
:04000005080023A12B
:00000001FF
