:020000040800F2
:0800000000000320AD0100081F
:020000040800F2
:1001AC0001F02ABD82B001B400B541F20400CEF2D8
:1001BC0000000068029041F20400CEF200000068DA
:1001CC00039003980299401A4FF0A801019A5143E9
:1001DC008842F0DB5DF804EB03B0704701B400B566
:1001EC0001986FF31F2000060199090A6FF31F2174
:1001FC00090440180199090C6FF31F2109024018DA
:10020C000199090E6FF31F2140185DF804EB01B042
:10021C00704782B000B54FF00000019042F63440B8
:10022C00C4F2010000680290029810F080003FF4C4
:10023C00F5AF029810F40060F0D15DF804EB02B059
:10024C00704782B001B400B542F63440C4F20100EC
:10025C0000680290029810F045003FF4F5AF029848
:10026C0010F40060F0D1029810F00500029042F6F4
:10027C003840C4F201004FF0C5010160029800281B
:10028C0040F0D68042F61040C4F2010000680390A2
:10029C0003980199884200F005804FF400500290B9
:1002AC0000F0C6B842F61440C4F201000068039096
:1002BC0003984EF20801CFF6FF5110EA010000F04E
:1002CC00B780039810F0004000F005804FF00070EC
:1002DC00029000F0ADB8039810F0804000F005805B
:1002EC004FF04000029000F0A3B8039810F00050BB
:1002FC0000F005804FF08000029000F099B8039850
:10030C0010F0805000F005804FF48070029000F0E7
:10031C008FB8039810F0006000F005804FF4007067
:10032C00029000F085B8039810F0806000F0058012
:10033C004FF48060029000F07BB8039810F080704E
:10034C0000F005804FF40060029000F071B8039843
:10035C0010F4000000F005804FF48050029000F083
:10036C0067B8039810F4800000F005804FF400503B
:10037C00029000F05DB8039810F4001000F00580B6
:10038C004FF48040029000F053B8039810F48010A2
:10039C0000F005804FF40040029000F049B803983B
:1003AC0010F4802000F005804FF40030029000F033
:1003BC003FB8039810F4003000F005804FF4802013
:1003CC00029000F035B8039810F4803000F00580EE
:1003DC004FF40020029000F02BB8039810F400406A
:1003EC0000F005804FF48010029000F021B80398C3
:1003FC0010F4804000F005804FF40010029000F0E3
:10040C0017B8039810F4005000F005804FF48000EA
:10041C00029000F00DB8039810F0080000F0058071
:10042C004FF40000029000F003B84FF480300290BB
:10043C0002985DF804EB03B0704781B000B542F64A
:10044C003440C4F2010000680190019810F045009E
:10045C003FF4F5AF019810F40060F0D1019810F062
:10046C000400019042F63840C4F201004FF0C5017F
:10047C00016001985DF804EB01B0704782B003B4E1
:10048C0000B54FF00000039042F63440C4F2010076
:10049C0000680390039810F045003FF4F5AF039803
:1004AC0010F40060F0D1039810F00500039042F6B0
:1004BC003840C4F201004FF0C501016003980028D8
:1004CC0040F0388042F61040C4F2010000680490FD
:1004DC0004980199884200F005804FF40050039075
:1004EC0000F028B842F61440C4F2010000680490F1
:1004FC00049810F4604040F006800498000C0299B7
:10050C00086000F017B8049810F4804000F00580E3
:10051C004FF40050039000F00DB8049810F4004014
:10052C0000F005804FF48050039000F003B84FF4B6
:10053C008030039003985DF804EB04B0704781B0F1
:10054C0000B542F63440C4F20100006801900198F5
:10055C0010F045003FF4F5AF019810F40060F0D1B5
:10056C00019810F00500019042F63840C4F20100E9
:10057C004FF0C501016001985DF804EB01B07047C4
:10058C0081B001B400B501980069000442F608413D
:10059C00C4F20101086042F60C40C4F2010000688C
:1005AC000290029840F6FF7130EA010040F24D4192
:1005BC0050EA010042F60C41C4F2010108604FF010
:1005CC000D00FFF73EFE0199096851EA0000019900
:1005DC00086042F61440C4F20100006802900298D0
:1005EC00400A6FF31F105DF804EB02B0704781B046
:1005FC0000B542F60840C4F201004FF00001016062
:10060C0042F60C40C4F2010000680190019840F6DB
:10061C00FF7130EA010040F24C4150EA010042F611
:10062C000C41C4F2010108604FF00C00FFF709FE09
:10063C005DF804EB01B0704783B00FB400B54FF018
:10064C000000019908600498012880F204804FF0A2
:10065C000060019908600398049940180199C969D0
:10066C00884240F304804FF00070019908600198B3
:10067C000068002840F0478142F62C40C4F201008B
:10068C004FF00001016042F63C40C4F201004FF013
:10069C000001016046F26040C4F2020042F6804163
:1006AC00C4F20101016046F26440C4F202000299F6
:1006BC00016046F20840C4F202004FF07461016020
:1006CC0046F25840C4F2020000680590059830F0DC
:1006DC001E0046F25841C4F20201086046F26C401A
:1006EC00C4F2020000680590059830F0800046F2D4
:1006FC006C41C4F20201086048F60030C4F24C2090
:10070C004FF00101016048F28C50C4F225204FF0EB
:10071C000101016001984068012800F003800398F2
:10072C004002039042F62440C4F201004FF0FF3126
:10073C0001600498400242F62841C4F201010860AD
:10074C0042F62C40C4F2010000680590059830F088
:10075C00F70050F0930042F62C41C4F201010860FE
:10076C0042F60840C4F201000399016042F60C40C5
:10077C00C4F20100006805900498012840F316802B
:10078C00059840F6FF7130EA010040F2524150EA00
:10079C00010042F60C41C4F2010108604FF0120056
:1007AC00FFF74FFD0199086000F014B8059840F66A
:1007BC00FF7130EA010040F2514150EA010042F66B
:1007CC000C41C4F2010108604FF01100FFF739FD34
:1007DC000199086001980068002840F0848046F276
:1007EC000040C4F202000068069042F63440C4F2A5
:1007FC0001000068079006985FEAB06000F118806D
:10080C00079840F22A3110EA010040F011804FF0B5
:10081C006400FFF7C7FC46F20040C4F20200006817
:10082C00069042F63440C4F2010000680790E2E7FB
:10083C00FFF7DDFE0199086007985FEA702000F170
:10084C00528048F60030C4F24C204FF00001016099
:10085C0006985FEAB06040F106800198006850F09D
:10086C0080400199086007985FEAB00040F106806B
:10087C000198006850F002000199086007985FEA3F
:10088C00301040F106800198006850F00800019982
:10089C00086007985FEAB01040F106800198006884
:1008AC0050F020000199086007985FEA701040F141
:1008BC0006800198006850F01000019908600798B4
:1008CC005FEAB02040F106800198006850F0080003
:1008DC000199086048F60030C4F24C20006805907D
:1008EC0005980028F6D146F20840C4F202004FF0F9
:1008FC007461016042F63840C4F2010040F2FF71AD
:10090C00C0F240010160019800685DF804EB07B08B
:10091C00704781B00FB400B50498802840F3018073
:10092C00FEE701980199096D029A049BFFF784FE7A
:10093C0005900598002840F00B800198FFF720FEE9
:10094C00042800F005804FF47A70FFF72BFCF4E7D5
:10095C0001980068002840F00C800498C0010199AF
:10096C00096D039A05D051F8043B42F8043B401E34
:10097C00F9D15DF804EB05B0704784B001B400B553
:10098C004FF0000003904FF000008DF8140042F679
:10099C000840C4F201004FF00001016042F60C4027
:1009AC00C4F2010000680290029840F6FF7130EA30
:1009BC00010050F4806042F60C41C4F20101086061
:1009CC00FFF727FC42F60840C4F201004FF4D57142
:1009DC00016042F60C40C4F20100006802900298DB
:1009EC0040F6FF7130EA010050F4896042F60C4188
:1009FC00C4F201010860FFF7A2FD039003980028E0
:100A0C0000F009804FF00000019988604FF0000061
:100A1C00039000F004B84FF00100019988604FF08A
:100A2C000000049042F60840C4F201004FF00001AF
:100A3C00016042F60C40C4F201000068029002987A
:100A4C0040F6FF7130EA010040F2774150EA0100B4
:100A5C0042F60C41C4F2010108604FF03700FFF779
:100A6C00F0FB03900398002840F01F8042F60840EA
:100A7C00C4F201000021CCF20211016042F60C40DC
:100A8C00C4F2010000680290029840F6FF7130EA4F
:100A9C00010040F2694150EA010042F60C41C4F2F7
:100AAC0001010860FFF7C9FC03900398002840F08F
:100ABC000F8042F61440C4F20100006802900298C4
:100ACC00C00F5FEA70004CBF012000208DF81400AD
:100ADC000498401C04909DF81400002840F00980F4
:100AEC000398002840F0058004984FF6FF71884267
:100AFC0098DD9DF81400002800F01180029810F089
:100B0C00804000F006804FF001000199486000F031
:100B1C0004B84FF000000199486000F003B84FF0A2
:100B2C008070039003985DF804EB05B0704781B0BA
:100B3C0003B400B54FF0000003900198406B800F98
:100B4C006FF39F00029908700198406B000C6FF3D3
:100B5C001F20029948700198406B000A6FF31F2008
:100B6C00029988700198406B6FF31F200299C8702E
:100B7C000198806B000D6FF31F300299486001984B
:100B8C00806B000C6FF31F10029908720198806B38
:100B9C00C00B5FEA70004CBF012000200299487224
:100BAC000198806B800B5FEA70004CBF0120002025
:100BBC00029988720198806B400B5FEA70004CBF01
:100BCC00012000200299C8720198806B000B5FEA2B
:100BDC0070004CBF012000200299087301984068F6
:100BEC00002840F052800198806B6FF39F208000AA
:100BFC000199C96B890F6FF39F0140180299086125
:100C0C000198C06BC00E6FF3DF0002990875019854
:100C1C00C06B000E6FF3DF00029948750198C06B32
:100C2C00400D6FF3DF00029988750198C06B800C42
:100C3C006FF3DF000299C8750198C06BC00B6FF39E
:100C4C00DF000299087602980069401C0299097E1F
:100C5C00891C4FF0010212FA01F1484301994861D5
:100C6C004FF001000299097A884001998861019836
:100C7C00406901998969484340120199C8614FF450
:100C8C0000700199086200F02DB8019840680128A5
:100C9C0040F021800198806B6FF39F100004019944
:100CAC00C96B090C6FF31F41401802990861029837
:100CBC000069401C8002019948614FF40070019951
:100CCC008861019840690199C8610198806901990E
:100CDC00086200F007B84FF08050019908604FF09F
:100CEC00805003900398002840F072800198C06BEC
:100CFC00800B5FEA70004CBF0120002002994876FF
:100D0C000198C06BC0096FF3DF10029988760198C7
:100D1C00C06B6FF3DF100299C8760198006CC00F9E
:100D2C005FEA70004CBF01200020029908770198FF
:100D3C00006C800E6FF3DF00029948770198006C0D
:100D4C00800D6FF31F10029988770198006C400D8D
:100D5C005FEA70004CBF012000200299C87701980F
:100D6C00006CC00B6FF35F00029981F820000198B2
:100D7C00006C800B5FEA70004CBF012000200299D0
:100D8C0081F821000198006C400B5FEA70004CBFA9
:100D9C0001200020029981F822000198006C000BC0
:100DAC005FEA70004CBF01200020029981F82300FB
:100DBC000198006C800A6FF39F00029981F824005F
:100DCC000198006C40086FF3DF10029981F8250040
:100DDC0003985DF804EB03B070478DB001B400B517
:100DEC004FF000000D9042F60040C4F20100006884
:100DFC000C900C9810F00300032800F003804FF0C7
:100E0C0080600D900D98002840F0D88042F6084084
:100E1C00C4F201004FF00001016042F60C40C4F234
:100E2C00010000680C900C9840F6FF7130EA01004C
:100E3C0040F2C24150EA010042F60C41C4F20101F9
:100E4C000860FFF77CFB0D900D98002840F01C808B
:100E5C0042F61440C4F2010000680199486242F65F
:100E6C001840C4F2010000680199886242F61C40E7
:100E7C00C4F2010000680199C86242F62040C4F235
:100E8C0001000068019908630D98002840F021804A
:100E9C0042F60840C4F201004FF00001016042F636
:100EAC000C40C4F2010000680C900C9840F6FF71E5
:100EBC0030EA010040F2434150EA010042F60C4195
:100ECC00C4F2010108604FF003000EA9FFF7D6FA37
:100EDC000D900D98002840F022800E980199086121
:100EEC0001980069000442F60841C4F2010108604F
:100EFC0042F60C40C4F2010000680C900C9840F6CD
:100F0C00FF7130EA010040F2C94150EA010042F69B
:100F1C000C41C4F201010860FFF711FB0D900D9814
:100F2C00002840F0268042F61440C4F2010000680C
:100F3C000199486342F61840C4F201000068019917
:100F4C00886342F61C40C4F2010000680199C86332
:100F5C0042F62040C4F2010000680199086401982F
:100F6C00806B000D0199C860019802A9FFF7DFFDA5
:100F7C000D900D98002840F0218001980069000424
:100F8C0042F60841C4F20101086042F60C40C4F27A
:100F9C00010000680C900C9840F6FF7130EA0100DB
:100FAC0040F2474150EA010042F60C41C4F2010103
:100FBC0008604FF00700FFF744F90D900D985DF8AD
:100FCC0004EB0EB0704781B02DE9FF0700B5019816
:100FDC00083000680C90019808300C99039A9143E2
:100FEC00079A114301600198001D00680C9001984C
:100FFC00001D0C99029A9143089A114301600198C3
:10100C000C3000680C9001980C300C99039A9143A9
:10101C00099A114301600198203000680C900198E6
:10102C0020300C99049A91430A9A1143016001985B
:10103C00243000680C90019824300C99059A914347
:10104C000B9A11430160019800680C9001980C995F
:10105C00039A9143069A114301605DF804EB0CB0BE
:10106C00704785B001B400B540F25860C4F2472017
:10107C004FF00101017040F6AC00C4F247204FF074
:10108C000101017040F20860C4F247204FF00101E9
:10109C00017040F20C60C4F247204FF00101017066
:1010AC0040F20C60C4F247204FF00101017040F295
:1010BC001460C4F247204FF00101017040F214603B
:1010CC00C4F2472000788DF80C0040F60000C4F202
:1010DC00020041F60871C022C0F2FF324FF000034B
:1010EC004FF6FF74C0F20F044025C0F2AA2500266B
:1010FC00C0F2AA264FF000074FF000084FF000098D
:10110C004CF6CC4AC0F20C0AFFF75DFF40F60040EB
:10111C00C4F202004FF034014FF473624FF4706369
:10112C004FF000044FF020054FF020064FF0000761
:10113C004FF4A0684FF440694FF0000AFFF743FFEB
:10114C0041F20040C4F202004FF400714FF440220F
:10115C004FF000034FF000044FF480254FF00006D1
:10116C004FF000074FF000084FF000094FF0000A55
:10117C00FFF729FF4FF06400FFF714F848F2142032
:10118C00C4F241200068002800F0088048F2A42036
:10119C00C4F242204FF001010170FEE748F210202A
:1011AC00C4F241200068002800F0088040F28C2036
:1011BC00C4F241204FF001010170FEE740F60C40F3
:1011CC00C4F2020000680290029830F4706040F69D
:1011DC000C41C4F20201086048F2A420C4F242207F
:1011EC004FF00101017040F28C20C4F241204FF00D
:1011FC000101017048F60030C4F24C204FF00001A0
:10120C00016048F60030C4F24C200068029002984D
:10121C000028F6D146F25840C4F2020045F22041B3
:10122C00C0F6A001016046F26C40C4F202004FF01F
:10123C000701016049F20040C4F24C204FF000015C
:10124C00016049F20040C4F24C2000680290029800
:10125C000028F6D146F2A040C4F2020045F26041EB
:10126C00C0F6A001016046F2B440C4F202004FF097
:10127C000701016042F60440C4F201004FF0760110
:10128C00016042F60040C4F201004FF0030101601E
:10129C0048F2A000C4F225204FF0010101604FF488
:1012AC00FA60FEF77FFF0198FFF767FB0199086072
:1012BC0001980068002840F005800198FFF78DFD2B
:1012CC000199086001980068002840F08E8101980F
:1012DC004068002840F01D8042F60840C4F201002E
:1012EC004FF008010160029840F6FF7130EA0100EE
:1012FC0050F48A6042F60C41C4F2010108604FF0D0
:10130C001000FEF79EFF0199096851EA000001994F
:10131C00086001980068002840F02280019800695C
:10132C00000442F60841C4F20101086042F60C4088
:10133C00C4F2010000680290029840F6FF7130EA96
:10134C00010040F2774150EA010042F60C41C4F230
:10135C00010108604FF03700FEF773FF0199086038
:10136C0001980068002840F0398042F62440C4F20D
:10137C0001004FF0FF31016042F62840C4F2010039
:10138C004FF00801016042F62C40C4F201000068E5
:10139C000290029830F0F70050F0330042F62C41E6
:1013AC00C4F20101086042F60840C4F201004FF09B
:1013BC0000010160029840F6FF7130EA010040F232
:1013CC00734150EA010042F60C41C4F2010108607D
:1013DC004FF03300FEF735FF019908600198006863
:1013EC00002840F0BD8042F63440C4F20100006891
:1013FC0002904FF000000690029842F22A2110EA67
:10140C000100B0F5005F40F0188002985FEAB05020
:10141C0040F10C8006980DEB800042F68041C4F23E
:10142C000101096801610698401C069042F634409F
:10143C00C4F2010000680290DEE702985FEA7020B7
:10144C0040F10A800498FEF7C9FE04900598FEF757
:10145C00C5FE059000F01FB802985FEAB00040F19D
:10146C0006804FF002000199086000F014B8029851
:10147C005FEAB01040F106804FF02000019908603F
:10148C0000F009B802985FEAB02040F104804FF0F8
:10149C0008000199086042F63840C4F2010040F29D
:1014AC00FF71C0F24001016005985FEAF04040F125
:1014BC00578001980069000442F60841C4F201010A
:1014CC00086042F60C40C4F20100006802900298D9
:1014DC0040F6FF7130EA010040F2774150EA01001A
:1014EC0042F60C41C4F2010108604FF03700FEF7E0
:1014FC00A8FE0199086001980068002840F01B8044
:10150C0042F60840C4F201004FF00201016002985B
:10151C0040F6FF7130EA010040F2464150EA01000A
:10152C0042F60C41C4F2010108604FF00600FEF7D0
:10153C0088FE0199086001980068002840F010802E
:10154C0042F60440C4F2010000680290029830F4A4
:10155C00C05050F4006042F60441C4F2010108602E
:10156C0001980068002840F02D8042F60440C4F237
:10157C00010000680290029830F0FF0050F000006B
:10158C0042F60441C4F20101086042F60840C4F27C
:10159C0001004FF400710160029840F6FF7130EACF
:1015AC00010050F48A6042F60C41C4F2010108605B
:1015BC004FF01000FEF745FE0199096851EA000052
:1015CC000199086001980068002840F00E8048F2EC
:1015DC00A420C4F242204FF00001017040F28C2094
:1015EC00C4F241204FF0000101705DF804EB06B02D
:1015FC00704783B000B540F2AC10C2F2000003900B
:10160C00039840F20021C2F2000101650398FFF734
:10161C0028FD03980421C0F2080141F20002CDF22A
:10162C0020024FF00203FFF774F941F21000CDF2E3
:10163C0020000068019001984FF2FF11C2F6DF7193
:10164C0040184012801E02900298002840F30B8034
:10165C0003980621C0F2080141F20042CDF22002AB
:10166C00029BFFF756F95DF804EB03B0704781B0AD
:10167C0000B5BFF35F8F4EF62450CEF20000006829
:10168C000190019830F480304EF62451CEF20001D6
:10169C0008604EF69450CEF200004FF0000101604D
:1016AC004EF69850CEF200004FF0000101604EF65D
:1016BC009C50CEF200004FF0504101604EF6A0500D
:1016CC00CEF2000040F22D31C0F2063101604EF630
:1016DC009450CEF2000000680190019850F0050083
:1016EC004EF69451CEF2000108604EF62450CEF224
:1016FC00000000680190019850F480304EF624519F
:10170C00CEF200010860BFF34F8FBFF36F8F5DF80F
:10171C0004EB01B0704781B000B543F63000C4F261
:10172C00020000680190019850F07E0043F63001F1
:10173C00C4F20201086043F63800C4F202004FF014
:10174C000101016040F20040C4F202004FF0600160
:10175C004FF470524FF07F634FF000044FF420555C
:10176C004FF470564FF000074FF000084FF04C69E3
:10177C004FF0000AFFF727FC40F60000C4F202000D
:10178C004FF001014FF001024FF001034FF0000444
:10179C004FF002054FF003064FF000074FF0000822
:1017AC004FF00C094FF0000AFFF70DFC40F600401B
:1017BC00C4F202004CF203710F22CFF23F024FF041
:1017CC00FF0340F6FF74CFF600740A25CAF22A050F
:1017DC000F26CFF23F064FF000074FF000084FF0F6
:1017EC00CC0940F6CC4ACCF6004AFFF7ECFB41F2B0
:1017FC000000C4F202004FF683714CF20F02CFF6D8
:10180C00FF72FF23CFF200034FF0FF3448F20A05BA
:10181C00CAF6AA254CF20F06CFF6FF764FF000075A
:10182C004FF0000840F2CC09CCF200094FF0CC3A52
:10183C00FFF7C9FB41F20040C4F202004FF63F0132
:10184C0040F6FF72CFF6C0726FF07F434FF2000488
:10185C00CFF6FF7440F6AA25CAF6802540F6FF762F
:10186C00CFF6C0764FF000074FF000084CF6CC498D
:10187C00C0F2CC094CF2000ACCF6CC4AFFF7A3FB21
:10188C0041F60000C4F2020048F2331140F60F7228
:10189C00CCF203024FF0FF130F24CFF2000440F6FA
:1018AC000A25C8F2020540F60F76CCF203064FF07B
:1018BC0000074FF000084FF0CC1940F20C0ACCF2A4
:1018CC00000AFFF780FB40F24010CAF200000068EB
:1018DC000190019830F4F84050F4605040F24011FF
:1018EC00CAF20001086040F24410CAF200004FF442
:1018FC00EA71016040F24810CAF2000000680190E1
:10190C0001984FF20001C0F2F00130EA010050F4EE
:10191C00831040F24811CAF20001086040F24C10EA
:10192C00CAF2000040F26131C0F20211016040F2D3
:10193C005010CAF200004FF00901016040F258103B
:10194C00CAF2000000685FEAB010F7D44FF07800DC
:10195C00FEF728FC40F25010CAF200004FF00A01CA
:10196C00016040F25810CAF2000000685FEAB01043
:10197C00F7D440F25010CAF200004FF08B01016016
:10198C0040F25810CAF2000000685FEAB010F7D4B9
:10199C0040F25010CAF2000046F20C01C0F20401F1
:1019AC00016040F25810CAF2000000685FEAB01003
:1019BC00F7D440F25410CAF2000040F6182101602E
:1019CC005DF804EB01B0704781B000B54EF6FC50E9
:1019DC00CEF2000000680190019830F080704EF655
:1019EC00FC51CEF200010860019850F080704EF668
:1019FC00FC51CEF20001086041F20000CEF2000072
:101A0C0000680190019830F0010041F20001CEF223
:101A1C000001086041F20400CEF200004FF000011A
:101A2C000160019850F0010041F20001CEF200017A
:101A3C0008605DF804EB01B0704781B000B540F66A
:101A4C007000C4F247204FF0010101704020C4F235
:101A5C0047204FF0010101704420C4F24720006878
:101A6C000028F9D06020C4F247204FF0000101702B
:101A7C006420C4F2472000680028F9D143F6040022
:101A8C00C4F2020042F60421C0F2407101606020F1
:101A9C00C4F247204FF0010101706420C4F24720CA
:101AAC0000680028F9D043F60040C4F20200006838
:101ABC000190019810F00F00052880F2128043F677
:101ACC000040C4F202004FF00501017043F60040E3
:101ADC00C4F2020000680190019810F00F00052874
:101AEC00F4D143F60800C4F202000068019001989A
:101AFC004FF6F34130EA01004FF6024150EA010083
:101B0C0043F60801C4F20201086043F60800C4F26F
:101B1C00020000680190019810F00C000828F4D124
:101B2C00019830F47C4050F4144043F60801C4F2A0
:101B3C00020108604EF21400CEF2000049F23F019F
:101B4C00C0F2020101605DF804EB01B0704781B096
:101B5C0000B54EF20800CEF200004FF0010101601A
:101B6C0043F60040C4F2020000680190019850F462
:101B7C00E06043F60041C4F2020108604EF60C50DE
:101B8C00CEF2000040F20031C0F2FA5101604EF684
:101B9C002350CEF200004FF0A001017040F6B800C7
:101BAC00C4F247204FF00101017040F67000C4F2FE
:101BBC0047204FF0010101704EF61950CEF2000093
:101BCC004FF0100101704EF61A50CEF200004FF09B
:101BDC00100101704EF61F50CEF200004FF0F001D4
:101BEC0001704EF62250CEF200004FF0F001017061
:101BFC005DF804EB01B07047FFF7A9FFFFF71DFF7D
:101C0C00FFF7E2FEFFF787FDFFF731FDFFF7F1FC71
:101C1C0041F20400CDF2200040F2AC11C2F20001FE
:101C2C00016041F20C00CDF220000021CDF28001C8
:101C3C00016041F21800CDF220000021C1F2010137
:101C4C0001600020C1F2010080F309884FF002000E
:101C5C0080F31488BFF36F8F41F20100CDF22000A6
:021C6C0000472F
:0400000508001C05CE
:00000001FF
