:020000040F00EB
:1000000000F024B8BDF1040D00B50420C0F20800D2
:1000100041F20001CDF22001012202DF41F2100085
:10002000CDF22000006801900520C0F2080041F2E6
:100030000021CDF22001019A02F2FF125212521E4B
:1000400002DF5DF804EB1DF1040D7047422001DF73
:10005000FFF7D8FF41F20C00CDF220000021CDF2D5
:100060008001016041F21800CDF220000021C1F2B0
:1000700001010160442001DF41F20000CDF22000C7
:02008000004737
:040000050F00004D9B
:00000001FF
