:020000040F00EB
:1000000000F029B8BDF1080D00B50420C0F20800C9
:1000100041F20001CDF22001012202DF019041F204
:100020001000CDF22000006802900520C0F2080008
:1000300041F20021CDF22001029A4FF2FF13C2F6E5
:10004000DF73D2185212521E02DF01905DF804EBEA
:100050001DF1080D7047422001DFFFF7D3FF41F289
:100060000C00CDF220000021CDF28001016041F2B0
:100070001800CDF220000021C1F2010101604420EE
:0C00800001DF41F20000CDF2200000473B
:040000050F00005791
:00000001FF
