:020000040800F2
:0800000000000320AD0100081F
:020000040800F2
:1001AC0001F0E7BC82B001B400B541F20400CEF21C
:1001BC0000000068029041F20400CEF200000068DA
:1001CC00039003980299401AA821019A514388423E
:1001DC00F1DB5DF804EB03B0704701B400B5019896
:1001EC006FF31F2000060199090A6FF31F21090400
:1001FC0040180199090C6FF31F210902401801994D
:10020C00090E6FF31F2140185DF804EB01B0704725
:10021C0082B000B50020019042F63440C4F20100D7
:10022C0000680290029810F080003FF4F5AF02983D
:10023C0010F40060F0D15DF804EB02B0704782B0AE
:10024C0001B400B542F63440C4F2010000680290DB
:10025C00029810F045003FF4F5AF029810F40060DE
:10026C00F0D1029810F00500029042F63840C4F22A
:10027C000100C52101600298002840F0D48042F6AC
:10028C001040C4F201000068039003980199884261
:10029C0000F005805FF40050029000F0C4B842F604
:1002AC001440C4F201000068039003984EF2080158
:1002BC00CFF6FF5110EA010000F0B580039810F062
:1002CC00004000F005805FF00070029000F0ABB8C9
:1002DC00039810F0804000F004804020029000F061
:1002EC00A2B8039810F0005000F004808020029017
:1002FC0000F099B8039810F0805000F005805FF47E
:10030C008070029000F08FB8039810F0006000F03D
:10031C0005805FF40070029000F085B8039810F02F
:10032C00806000F005805FF48060029000F07BB884
:10033C00039810F0807000F005805FF4006002906C
:10034C0000F071B8039810F4000000F005805FF421
:10035C008050029000F067B8039810F4800000F011
:10036C0005805FF40050029000F05DB8039810F423
:10037C00001000F005805FF48040029000F053B84C
:10038C00039810F4801000F005805FF40040029098
:10039C0000F049B8039810F4802000F005805FF459
:1003AC000030029000F03FB8039810F4003000F0D9
:1003BC0005805FF48020029000F035B8039810F4AB
:1003CC00803000F005805FF40020029000F02BB824
:1003DC00039810F4004000F005805FF48010029048
:1003EC0000F021B8039810F4804000F005805FF411
:1003FC000010029000F017B8039810F4005000F0B1
:10040C0005805FF48000029000F00DB8039810F0A6
:10041C00080000F005805FF40000029000F003B8C3
:10042C005FF48030029002985DF804EB03B07047E3
:10043C0081B000B542F63440C4F20100006801906E
:10044C00019810F045003FF4F5AF019810F40060EE
:10045C00F0D1019810F00400019042F63840C4F23B
:10046C000100C521016001985DF804EB01B07047F3
:10047C0082B003B400B50020039042F63440C4F2BD
:10048C00010000680390039810F045003FF4F5AFAD
:10049C00039810F40060F0D1039810F0050003905D
:1004AC0042F63840C4F20100C521016003980028CF
:1004BC0040F0388042F61040C4F20100006804900D
:1004CC0004980199884200F005805FF40050039075
:1004DC0000F028B842F61440C4F201000068049001
:1004EC00049810F4604040F006800498000C0299C7
:1004FC00086000F017B8049810F4804000F00580F4
:10050C005FF40050039000F00DB8049810F4004014
:10051C0000F005805FF48050039000F003B85FF4A6
:10052C008030039003985DF804EB04B0704781B001
:10053C0000B542F63440C4F2010000680190019805
:10054C0010F045003FF4F5AF019810F40060F0D1C5
:10055C00019810F00500019042F63840C4F20100F9
:10056C00C521016001985DF804EB01B0704781B0C2
:10057C0001B400B501980069000442F60841C4F2C8
:10058C000101086042F60C40C4F2010000680290C0
:10059C00029840F6FF7130EA010040F24D4150EAFA
:1005AC00010042F60C41C4F2010108600D20FFF776
:1005BC0046FE0199096851EA00000199086042F66B
:1005CC001440C4F20100006802900298400A6FF3D4
:1005DC001F105DF804EB02B0704781B000B542F615
:1005EC000840C4F201000021016042F60C40C4F244
:1005FC00010000680190019840F6FF7130EA01009B
:10060C0040F24C4150EA010042F60C41C4F20101A7
:10061C0008600C20FFF713FE5DF804EB01B0704787
:10062C0083B00FB400B5002001990860049801282C
:10063C0080F204805FF000600199086003980499CF
:10064C0040180199C969884240F304805FF000703A
:10065C000199086001980068002840F03F8142F63B
:10066C002C40C4F201000021016042F63C40C4F26F
:10067C0001000021016046F26040C4F2020042F623
:10068C008041C4F20101016046F26440C4F20200F0
:10069C000299016046F20840C4F202005FF07461F6
:1006AC00016046F25840C4F20200006805900598BB
:1006BC0030F01E0046F25841C4F20201086046F2C6
:1006CC006C40C4F2020000680590059830F0800080
:1006DC0046F26C41C4F20201086048F60030C4F2E4
:1006EC004C200121016048F28C50C4F225200121DC
:1006FC00016001984068012800F0038003984002D3
:10070C00039042F62440C4F201005FF0FF31016017
:10071C000498400242F62841C4F20101086042F6F6
:10072C002C40C4F2010000680590059830F0F700E9
:10073C0050F0930042F62C41C4F20101086042F6DD
:10074C000840C4F201000399016042F60C40C4F267
:10075C000100006805900498012840F31580059865
:10076C0040F6FF7130EA010040F2524150EA0100BC
:10077C0042F60C41C4F2010108601220FFF75FFD44
:10078C000199086000F013B8059840F6FF7130EA43
:10079C00010040F2514150EA010042F60C41C4F212
:1007AC00010108601120FFF74AFD019908600198CA
:1007BC000068002840F0828046F20040C4F202003B
:1007CC000068069042F63440C4F2010000680790BD
:1007DC0006985FEAB06000F11780079840F22A3162
:1007EC0010EA010040F010806420FFF7DBFC46F2B9
:1007FC000040C4F202000068069042F63440C4F295
:10080C00010000680790E3E7FFF7E7FE0199086035
:10081C0007985FEA702000F1518048F60030C4F26E
:10082C004C200021016006985FEAB06040F1068020
:10083C000198006850F080400199086007985FEAC1
:10084C00B00040F106800198006850F00200019958
:10085C00086007985FEA301040F106800198006844
:10086C0050F008000199086007985FEAB01040F159
:10087C0006800198006850F02000019908600798E4
:10088C005FEA701040F106800198006850F010008B
:10089C000199086007985FEAB02040F10680019842
:1008AC00006850F008000199086048F60030C4F266
:1008BC004C200068059005980028F6D146F20840B7
:1008CC00C4F202005FF07461016042F63840C4F279
:1008DC00010040F2FF71C0F2400101600198006814
:1008EC005DF804EB07B0704781B00FB400B5049805
:1008FC00802840F30180FEE701980199096D029A66
:10090C00049BFFF78DFE05900598002840F00B80A6
:10091C000198FFF72CFE042800F005805FF47A7034
:10092C00FFF740FCF4E701980068002840F00C80C9
:10093C000498C0010199096D039A05D051F8043B44
:10094C0042F8043B401EF9D15DF804EB05B070474A
:10095C0084B001B400B50020039000208DF8140081
:10096C0042F60840C4F201000021016042F60C403E
:10097C00C4F2010000680290029840F6FF7130EA60
:10098C00010050F4806042F60C41C4F20101086091
:10099C00FFF73EFC42F60840C4F201005FF4D5714B
:1009AC00016042F60C40C4F201000068029002980B
:1009BC0040F6FF7130EA010050F4896042F60C41B8
:1009CC00C4F201010860FFF7B2FD03900398002800
:1009DC0000F007800020019988600020039000F04F
:1009EC0003B80120019988600020049042F6084069
:1009FC00C4F201000021016042F60C40C4F2010077
:100A0C0000680290029840F6FF7130EA010040F253
:100A1C00774150EA010042F60C41C4F20101086032
:100A2C003720FFF70CFC03900398002840F01F8040
:100A3C0042F60840C4F201000021CCF20211016020
:100A4C0042F60C40C4F2010000680290029840F695
:100A5C00FF7130EA010040F2694150EA010042F6B0
:100A6C000C41C4F201010860FFF7E2FC039003980B
:100A7C00002840F00F8042F61440C4F201000068D8
:100A8C0002900298C00F5FEA70004CBF012000205A
:100A9C008DF814000498401C04909DF81400002854
:100AAC0040F009800398002840F0058004984FF628
:100ABC00FF7188429ADD9DF81400002800F00F8029
:100ACC00029810F0804000F00580012001994860E8
:100ADC0000F003B800200199486000F003B85FF003
:100AEC008070039003985DF804EB05B0704781B0FB
:100AFC0003B400B5002003900198406B800F6FF396
:100B0C009F00029908700198406B000C6FF31F2036
:100B1C00029948700198406B000A6FF31F200299EC
:100B2C0088700198406B6FF31F200299C870019870
:100B3C00806B000D6FF31F30029948600198806B39
:100B4C00000C6FF31F10029908720198806BC00B98
:100B5C005FEA70004CBF0120002002994872019896
:100B6C00806B800B5FEA70004CBF01200020029963
:100B7C0088720198806B400B5FEA70004CBF0120BB
:100B8C0000200299C8720198806B000B5FEA70001C
:100B9C004CBF01200020029908730198406800287E
:100BAC0040F050800198806B6FF39F20800001997A
:100BBC00C96B890F6FF39F01401802990861019866
:100BCC00C06BC00E6FF3DF00029908750198C06B03
:100BDC00000E6FF3DF00029948750198C06B400D51
:100BEC006FF3DF00029988750198C06B800C6FF36E
:100BFC00DF000299C8750198C06BC00B6FF3DF0062
:100C0C000299087602980069401C0299097E891C99
:100C1C00012212FA01F1484301994861012002991D
:100C2C00097A88400199886101984069019989691C
:100C3C00484340120199C8615FF400700199086241
:100C4C0000F02DB801984068012840F021800198EF
:100C5C00806B6FF39F1000040199C96B090C6FF343
:100C6C001F4140180299086102980069401C8002DB
:100C7C00019948615FF4007001998861019840699D
:100C8C000199C861019880690199086200F007B860
:100C9C005FF08050019908605FF0805003900398DA
:100CAC00002840F072800198C06B800B5FEA7000E6
:100CBC004CBF01200020029948760198C06BC009F6
:100CCC006FF3DF10029988760198C06B6FF3DF1019
:100CDC000299C8760198006CC00F5FEA70004CBF97
:100CEC0001200020029908770198006C800E6FF3A8
:100CFC00DF00029948770198006C800D6FF31F108C
:100D0C00029988770198006C400D5FEA70004CBF27
:100D1C00012000200299C8770198006CC00B6FF37A
:100D2C005F00029981F820000198006C800B5FEA4B
:100D3C0070004CBF01200020029981F8210001981D
:100D4C00006C400B5FEA70004CBF01200020029940
:100D5C0081F822000198006C000B5FEA70004CBF18
:100D6C0001200020029981F823000198006C800A70
:100D7C006FF39F00029981F824000198006C4008E1
:100D8C006FF3DF10029981F8250003985DF804EBEE
:100D9C0003B070478DB001B400B500200D9042F641
:100DAC000040C4F2010000680C900C9810F0030095
:100DBC00032800F003805FF080600D900D980028F0
:100DCC0040F0D48042F60840C4F2010000210160DA
:100DDC0042F60C40C4F2010000680C900C9840F6EE
:100DEC00FF7130EA010040F2C24150EA010042F6C4
:100DFC000C41C4F201010860FFF799FB0D900D98AE
:100E0C00002840F01C8042F61440C4F20100006837
:100E1C000199486242F61840C4F201000068019939
:100E2C00886242F61C40C4F2010000680199C86255
:100E3C0042F62040C4F201000068019908630D9845
:100E4C00002840F01F8042F60840C4F20100002147
:100E5C00016042F60C40C4F2010000680C900C9842
:100E6C0040F6FF7130EA010040F2434150EA0100C4
:100E7C0042F60C41C4F20101086003200EA9FFF7F1
:100E8C00F7FA0D900D98002840F022800E980199E9
:100E9C00086101980069000442F60841C4F201019E
:100EAC00086042F60C40C4F2010000680C900C98EB
:100EBC0040F6FF7130EA010040F2C94150EA0100EE
:100ECC0042F60C41C4F201010860FFF730FB0D90B3
:100EDC000D98002840F0268042F61440C4F2010020
:100EEC0000680199486342F61840C4F2010000689A
:100EFC000199886342F61C40C4F201000068019914
:100F0C00C86342F62040C4F20100006801990864ED
:100F1C000198806B000D0199C860019802A9FFF738
:100F2C00E6FD0D900D98002840F020800198006996
:100F3C00000442F60841C4F20101086042F60C407C
:100F4C00C4F2010000680C900C9840F6FF7130EA76
:100F5C00010040F2474150EA010042F60C41C4F254
:100F6C00010108600720FFF76AF90D900D985DF8F4
:100F7C0004EB0EB0704781B02DE9FF0700B5019866
:100F8C00083000680C90019808300C99039A914332
:100F9C00079A114301600198001D00680C9001989C
:100FAC00001D0C99029A9143089A11430160019813
:100FBC000C3000680C9001980C300C99039A9143FA
:100FCC00099A114301600198203000680C90019837
:100FDC0020300C99049A91430A9A114301600198AC
:100FEC00243000680C90019824300C99059A914398
:100FFC000B9A11430160019800680C9001980C99B0
:10100C00039A9143069A114301605DF804EB0CB00E
:10101C00704785B001B400B540F25860C4F2472067
:10102C000121017040F6AC00C4F24720012101708F
:10103C0040F20860C4F247200121017040F20C60BC
:10104C00C4F247200121017040F20C60C4F2472029
:10105C000121017040F21460C4F24720012101709B
:10106C0040F21460C4F2472000788DF80C0040F672
:10107C000000C4F2020041F60871C022C0F2FF3237
:10108C0000234FF6FF74C0F20F044025C0F2AA25CE
:10109C000026C0F2AA2600275FF000085FF00009C6
:1010AC004CF6CC4AC0F20C0AFFF765FF40F6004044
:1010BC00C4F2020034215FF473625FF470630024A5
:1010CC002025202600275FF4A0685FF440695FF0BC
:1010DC00000AFFF750FF41F20040C4F202005FF437
:1010EC0000715FF44022002300245FF48025002669
:1010FC0000275FF000085FF000095FF0000AFFF7BF
:10110C003AFF6420FFF74EF848F21420C4F2412055
:10111C000068002800F0078048F2A420C4F24220A6
:10112C0001210170FEE748F21020C4F24120006852
:10113C00002800F0078040F28C20C4F241200121ED
:10114C000170FEE740F60C40C4F202000068029009
:10115C00029830F4706040F60C41C4F20201086051
:10116C0048F2A420C4F242200121017040F28C20EC
:10117C00C4F241200121017048F60030C4F24C2029
:10118C000021016048F60030C4F24C200068029047
:10119C0002980028F6D146F25840C4F2020045F2FB
:1011AC002041C0F6A001016046F26C40C4F202007E
:1011BC000721016049F20040C4F24C20002101607B
:1011CC0049F20040C4F24C200068029002980028BA
:1011DC00F6D146F2A040C4F2020045F26041C0F6DE
:1011EC00A001016046F2B440C4F202000721016084
:1011FC0042F60440C4F201007621016042F6004040
:10120C00C4F201000321016048F2A000C4F22520C1
:10121C00012101605FF4FA60FEF7C4FF0198FFF74B
:10122C0097FB0199086001980068002840F0058040
:10123C000198FFF7AFFD019908600198006800283C
:10124C0040F07E8101984068002840F01B8042F6F7
:10125C000840C4F2010008210160029840F6FF71B9
:10126C0030EA010050F48A6042F60C41C4F20101EC
:10127C0008601020FEF7E3FF0199096851EA0000AD
:10128C000199086001980068002840F021800198BD
:10129C000069000442F60841C4F20101086042F6FC
:1012AC000C40C4F2010000680290029840F6FF71F5
:1012BC0030EA010040F2774150EA010042F60C415D
:1012CC00C4F2010108603720FEF7B9FF01990860EC
:1012DC0001980068002840F0368042F62440C4F2A1
:1012EC0001005FF0FF31016042F62840C4F20100BA
:1012FC000821016042F62C40C4F201000068029003
:10130C00029830F0F70050F0330042F62C41C4F252
:10131C000101086042F60840C4F20100002101609E
:10132C00029840F6FF7130EA010040F2734150EA36
:10133C00010042F60C41C4F2010108603320FEF7B3
:10134C007EFF0199086001980068002840F0B68083
:10135C0042F63440C4F2010000680290002006906E
:10136C00029842F22A2110EA0100B0F5005F40F029
:10137C00188002985FEAB05040F10C8006980DEB93
:10138C00800042F68041C4F20101096801610698AF
:10139C00401C069042F63440C4F2010000680290F2
:1013AC00DEE702985FEA702040F10A800498FEF7AD
:1013BC0014FF04900598FEF710FF059000F01CB880
:1013CC0002985FEAB00040F10580022001990860A4
:1013DC0000F012B802985FEAB01040F105802020AE
:1013EC000199086000F008B802985FEAB02040F15B
:1013FC00038008200199086042F63840C4F20100CD
:10140C0040F2FF71C0F24001016005985FEAF040C4
:10141C0040F1548001980069000442F60841C4F27E
:10142C000101086042F60C40C4F201000068029011
:10143C00029840F6FF7130EA010040F2774150EA21
:10144C00010042F60C41C4F2010108603720FEF79E
:10145C00F6FE0199086001980068002840F0198098
:10146C0042F60840C4F2010002210160029840F6E5
:10147C00FF7130EA010040F2464150EA010042F6A9
:10148C000C41C4F2010108600620FEF7D8FE019958
:10149C00086001980068002840F0108042F6044073
:1014AC00C4F2010000680290029830F4C05050F46D
:1014BC00006042F60441C4F2010108600198006822
:1014CC00002840F02C8042F60440C4F20100006871
:1014DC000290029830F0FF0050F0000042F60441F8
:1014EC00C4F20101086042F60840C4F201005FF446
:1014FC0000710160029840F6FF7130EA010050F46F
:10150C008A6042F60C41C4F2010108601020FEF71B
:10151C0096FE0199096851EA00000199086001984A
:10152C000068002840F00C8048F2A420C4F242204D
:10153C000021017040F28C20C4F241200021017086
:10154C005DF804EB06B0704783B000B540F2AC1008
:10155C00C2F200000390039840F20021C2F2000195
:10156C0001650398FFF755FD03980421C0F20801AB
:10157C0041F20002CDF220020223FFF7B5F941F24D
:10158C001000CDF220000068019001984FF2FF117D
:10159C00C2F6DF7140184012801E0290029800289B
:1015AC0040F30B8003980621C0F2080141F200427F
:1015BC00CDF22002029BFFF797F95DF804EB03B024
:1015CC00704781B000B5BFF35F8F4EF62450CEF25A
:1015DC00000000680190019830F480304EF62451E0
:1015EC00CEF2000108604EF69450CEF200000021BD
:1015FC0001604EF69850CEF20000002101604EF6CC
:10160C009C50CEF200005FF0504101604EF6A050AD
:10161C00CEF2000040F22D31C0F2063101604EF6E0
:10162C009450CEF2000000680190019850F0050033
:10163C004EF69451CEF2000108604EF62450CEF2D4
:10164C00000000680190019850F480304EF624514F
:10165C00CEF200010860BFF34F8FBFF36F8F5DF8C0
:10166C0004EB01B0704781B000B543F63000C4F212
:10167C00020000680190019850F07E0043F63001A2
:10168C00C4F20201086043F63800C4F202000121E2
:10169C00016040F20040C4F2020060215FF470521D
:1016AC005FF07F6300245FF420555FF470560027D1
:1016BC005FF000085FF04C695FF0000AFFF75BFC1D
:1016CC0040F60000C4F20200012101220123002493
:1016DC000225032600275FF000085FF00C095FF07D
:1016EC00000AFFF748FC40F60040C4F202004CF23E
:1016FC0003710F22CFF23F02FF2340F6FF74CFF6A7
:10170C0000740A25CAF22A050F26CFF23F060027DD
:10171C005FF000085FF0CC0940F6CC4ACCF6004AEA
:10172C00FFF729FC41F20000C4F202004FF683716E
:10173C004CF20F02CFF6FF72FF23CFF200035FF0E3
:10174C00FF3448F20A05CAF6AA254CF20F06CFF66A
:10175C00FF7600275FF0000840F2CC09CCF20009BC
:10176C005FF0CC3AFFF707FC41F20040C4F20200F4
:10177C004FF63F0140F6FF72CFF6C0727FF07F4309
:10178C004FF20004CFF6FF7440F6AA25CAF6802566
:10179C0040F6FF76CFF6C07600275FF000084CF6D7
:1017AC00CC49C0F2CC094CF2000ACCF6CC4AFFF77B
:1017BC00E2FB41F60000C4F2020048F2331140F69D
:1017CC000F72CCF203025FF0FF130F24CFF2000470
:1017DC0040F60A25C8F2020540F60F76CCF2030655
:1017EC0000275FF000085FF0CC1940F20C0ACCF235
:1017FC00000AFFF7C0FB40F24010CAF2000000687C
:10180C000190019830F4F84050F4605040F24011CF
:10181C00CAF20001086040F24410CAF200005FF402
:10182C00EA71016040F24810CAF2000000680190B1
:10183C0001984FF20001C0F2F00130EA010050F4BF
:10184C00831040F24811CAF20001086040F24C10BB
:10185C00CAF2000040F26131C0F20211016040F2A4
:10186C005010CAF200000921016040F25810CAF26F
:10187C00000000685FEAB010F7D47820FEF792FC05
:10188C0040F25010CAF200000A21016040F25810D8
:10189C00CAF2000000685FEAB010F7D440F25010B2
:1018AC00CAF200008B21016040F25810CAF200000D
:1018BC0000685FEAB010F7D440F25010CAF2000092
:1018CC0046F20C01C0F20401016040F25810CAF259
:1018DC00000000685FEAB010F7D440F25410CAF26E
:1018EC00000040F6182101605DF804EB01B0704770
:1018FC0081B000B54EF6FC50CEF2000000680190AD
:10190C00019830F080704EF6FC51CEF20001086068
:10191C00019850F080704EF6FC51CEF20001086038
:10192C0041F20000CEF2000000680190019830F006
:10193C00010041F20001CEF20001086041F2040006
:10194C00CEF2000000210160019850F0010041F23C
:10195C000001CEF2000108605DF804EB01B07047A5
:10196C0081B000B540F67000C4F24720012101702F
:10197C004020C4F24720012101704420C4F24720CA
:10198C0000680028F9D06020C4F2472000210170C3
:10199C006420C4F2472000680028F9D143F6040003
:1019AC00C4F2020042F60421C0F2407101606020D2
:1019BC00C4F24720012101706420C4F24720006862
:1019CC000028F9D043F60040C4F2020000680190F0
:1019DC00019810F00F00052880F2118043F60040AA
:1019EC00C4F202000521017043F60040C4F202006B
:1019FC0000680190019810F00F000528F4D143F60F
:101A0C000800C4F202000068019001984FF6F341FF
:101A1C0030EA01004FF6024150EA010043F608019A
:101A2C00C4F20201086043F60800C4F20200006828
:101A3C000190019810F00C000828F4D1019830F4B2
:101A4C007C4050F4144043F60801C4F202010860D3
:101A5C004EF21400CEF2000049F23F01C0F2020136
:101A6C0001605DF804EB01B0704781B000B54EF237
:101A7C000800CEF200000121016043F60040C4F2E0
:101A8C00020000680190019850F4E06043F60041B8
:101A9C00C4F2020108604EF60C50CEF2000040F287
:101AAC000031C0F2FA5101604EF62350CEF2000024
:101ABC00A021017040F6B800C4F24720012101704A
:101ACC0040F67000C4F24720012101704EF6195007
:101ADC00CEF20000102101704EF61A50CEF200002A
:101AEC00102101704EF61F50CEF20000F021017053
:101AFC004EF62250CEF20000F02101705DF804EB9E
:101B0C0001B0704781B000B540F67000C4F24720B8
:101B1C000121017040F67000C4F2472000788DF866
:101B2C0004002020C4F20E20012101702020C4F2F8
:101B3C000E2000680028F9D05DF804EB01B0704766
:101B4C0000B540F60000C4F202005FF480415FF083
:101B5C004052002300240025002600275FF0805807
:101B6C005FF000095FF0000AFFF705FA5DF804EB7F
:101B7C007047FFF77AFFFFF7F3FEFFF7B9FEFFF7A9
:101B8C0072FDFFF71EFDFFF7BDFFFFF7D9FFFFF753
:101B9C00DBFC42F65000C4F2000041F20001CDF231
:101BAC00200101600020C1F2010080F309880220AD
:101BBC0080F31488BFF36F8F00F013B842F6500017
:101BCC00C4F2000042F2A011C0F27A0101600020C0
:101BDC00C1F2010080F30988022080F31488BFF35E
:0C1BEC006F8F41F20100CDF22000004795
:0400000508001B7F55
:00000001FF
